{
  "_format": "hh-sol-artifact-1",
  "contractName": "SessionManagerUpgradeable",
  "sourceName": "contracts/session/session-manager.sol",
  "abi": [
    {
      "inputs": [],
      "stateMutability": "nonpayable",
      "type": "constructor"
    },
    {
      "inputs": [
        {
          "internalType": "uint256",
          "name": "sessionId",
          "type": "uint256"
        },
        {
          "internalType": "uint256",
          "name": "required",
          "type": "uint256"
        },
        {
          "internalType": "uint256",
          "name": "available",
          "type": "uint256"
        }
      ],
      "name": "InsufficientBalance",
      "type": "error"
    },
    {
      "inputs": [],
      "name": "InvalidAmount",
      "type": "error"
    },
    {
      "inputs": [],
      "name": "InvalidInitialization",
      "type": "error"
    },
    {
      "inputs": [
        {
          "internalType": "uint256",
          "name": "sessionId",
          "type": "uint256"
        }
      ],
      "name": "InvalidSession",
      "type": "error"
    },
    {
      "inputs": [
        {
          "internalType": "address",
          "name": "_dtnContract",
          "type": "address"
        }
      ],
      "name": "NotDtnContract",
      "type": "error"
    },
    {
      "inputs": [],
      "name": "NotInitializing",
      "type": "error"
    },
    {
      "inputs": [
        {
          "internalType": "address",
          "name": "owner",
          "type": "address"
        }
      ],
      "name": "OwnableInvalidOwner",
      "type": "error"
    },
    {
      "inputs": [
        {
          "internalType": "address",
          "name": "account",
          "type": "address"
        }
      ],
      "name": "OwnableUnauthorizedAccount",
      "type": "error"
    },
    {
      "inputs": [
        {
          "internalType": "address",
          "name": "token",
          "type": "address"
        }
      ],
      "name": "SafeERC20FailedOperation",
      "type": "error"
    },
    {
      "inputs": [],
      "name": "TransferFailed",
      "type": "error"
    },
    {
      "inputs": [
        {
          "internalType": "address",
          "name": "caller",
          "type": "address"
        },
        {
          "internalType": "address",
          "name": "owner",
          "type": "address"
        }
      ],
      "name": "Unauthorized",
      "type": "error"
    },
    {
      "anonymous": false,
      "inputs": [
        {
          "indexed": false,
          "internalType": "uint64",
          "name": "version",
          "type": "uint64"
        }
      ],
      "name": "Initialized",
      "type": "event"
    },
    {
      "anonymous": false,
      "inputs": [
        {
          "indexed": true,
          "internalType": "address",
          "name": "previousOwner",
          "type": "address"
        },
        {
          "indexed": true,
          "internalType": "address",
          "name": "newOwner",
          "type": "address"
        }
      ],
      "name": "OwnershipTransferred",
      "type": "event"
    },
    {
      "anonymous": false,
      "inputs": [
        {
          "indexed": true,
          "internalType": "uint256",
          "name": "sessionId",
          "type": "uint256"
        },
        {
          "indexed": false,
          "internalType": "uint256",
          "name": "amount",
          "type": "uint256"
        },
        {
          "indexed": true,
          "internalType": "address",
          "name": "to",
          "type": "address"
        }
      ],
      "name": "SessionCharged",
      "type": "event"
    },
    {
      "anonymous": false,
      "inputs": [
        {
          "indexed": true,
          "internalType": "uint256",
          "name": "sessionId",
          "type": "uint256"
        },
        {
          "indexed": false,
          "internalType": "uint256",
          "name": "remainingBalance",
          "type": "uint256"
        }
      ],
      "name": "SessionClosed",
      "type": "event"
    },
    {
      "anonymous": false,
      "inputs": [
        {
          "indexed": true,
          "internalType": "uint256",
          "name": "sessionId",
          "type": "uint256"
        },
        {
          "indexed": true,
          "internalType": "address",
          "name": "owner",
          "type": "address"
        },
        {
          "indexed": false,
          "internalType": "uint256",
          "name": "balance",
          "type": "uint256"
        }
      ],
      "name": "SessionStarted",
      "type": "event"
    },
    {
      "inputs": [
        {
          "internalType": "address[]",
          "name": "_dtnContracts",
          "type": "address[]"
        }
      ],
      "name": "addDtnContracts",
      "outputs": [],
      "stateMutability": "nonpayable",
      "type": "function"
    },
    {
      "inputs": [
        {
          "internalType": "uint256",
          "name": "sessionId",
          "type": "uint256"
        },
        {
          "internalType": "uint256",
          "name": "amount",
          "type": "uint256"
        },
        {
          "internalType": "address",
          "name": "to",
          "type": "address"
        }
      ],
      "name": "chargeUserSession",
      "outputs": [],
      "stateMutability": "nonpayable",
      "type": "function"
    },
    {
      "inputs": [
        {
          "internalType": "uint256",
          "name": "sessionId",
          "type": "uint256"
        },
        {
          "internalType": "address",
          "name": "owner",
          "type": "address"
        }
      ],
      "name": "closeUserSession",
      "outputs": [],
      "stateMutability": "nonpayable",
      "type": "function"
    },
    {
      "inputs": [],
      "name": "getFeeTarget",
      "outputs": [
        {
          "internalType": "address",
          "name": "",
          "type": "address"
        }
      ],
      "stateMutability": "view",
      "type": "function"
    },
    {
      "inputs": [],
      "name": "getFeeToken",
      "outputs": [
        {
          "internalType": "address",
          "name": "",
          "type": "address"
        }
      ],
      "stateMutability": "view",
      "type": "function"
    },
    {
      "inputs": [
        {
          "internalType": "uint256",
          "name": "sessionId",
          "type": "uint256"
        }
      ],
      "name": "getSessionById",
      "outputs": [
        {
          "components": [
            {
              "internalType": "address",
              "name": "owner",
              "type": "address"
            },
            {
              "internalType": "uint256",
              "name": "balance",
              "type": "uint256"
            }
          ],
          "internalType": "struct ISessionManager.Session",
          "name": "",
          "type": "tuple"
        }
      ],
      "stateMutability": "view",
      "type": "function"
    },
    {
      "inputs": [
        {
          "internalType": "address",
          "name": "user",
          "type": "address"
        }
      ],
      "name": "getUserSessionIds",
      "outputs": [
        {
          "internalType": "uint256[]",
          "name": "",
          "type": "uint256[]"
        }
      ],
      "stateMutability": "view",
      "type": "function"
    },
    {
      "inputs": [
        {
          "internalType": "address",
          "name": "user",
          "type": "address"
        }
      ],
      "name": "getUserSessions",
      "outputs": [
        {
          "components": [
            {
              "internalType": "address",
              "name": "owner",
              "type": "address"
            },
            {
              "internalType": "uint256",
              "name": "balance",
              "type": "uint256"
            }
          ],
          "internalType": "struct ISessionManager.Session[]",
          "name": "",
          "type": "tuple[]"
        }
      ],
      "stateMutability": "view",
      "type": "function"
    },
    {
      "inputs": [
        {
          "internalType": "address",
          "name": "_feeToken",
          "type": "address"
        },
        {
          "internalType": "address",
          "name": "_feeTarget",
          "type": "address"
        },
        {
          "internalType": "address",
          "name": "owner",
          "type": "address"
        }
      ],
      "name": "initialize",
      "outputs": [],
      "stateMutability": "nonpayable",
      "type": "function"
    },
    {
      "inputs": [],
      "name": "owner",
      "outputs": [
        {
          "internalType": "address",
          "name": "",
          "type": "address"
        }
      ],
      "stateMutability": "view",
      "type": "function"
    },
    {
      "inputs": [
        {
          "internalType": "address",
          "name": "_dtnContract",
          "type": "address"
        }
      ],
      "name": "removeDtnContracts",
      "outputs": [],
      "stateMutability": "nonpayable",
      "type": "function"
    },
    {
      "inputs": [],
      "name": "renounceOwnership",
      "outputs": [],
      "stateMutability": "nonpayable",
      "type": "function"
    },
    {
      "inputs": [
        {
          "internalType": "address",
          "name": "_feeTarget",
          "type": "address"
        }
      ],
      "name": "setFeeTarget",
      "outputs": [],
      "stateMutability": "nonpayable",
      "type": "function"
    },
    {
      "inputs": [
        {
          "internalType": "address",
          "name": "owner",
          "type": "address"
        }
      ],
      "name": "startUserSession",
      "outputs": [
        {
          "internalType": "uint256",
          "name": "",
          "type": "uint256"
        }
      ],
      "stateMutability": "nonpayable",
      "type": "function"
    },
    {
      "inputs": [
        {
          "internalType": "address",
          "name": "newOwner",
          "type": "address"
        }
      ],
      "name": "transferOwnership",
      "outputs": [],
      "stateMutability": "nonpayable",
      "type": "function"
    }
  ],
  "bytecode": "0x6080604052348015600f57600080fd5b506113658061001f6000396000f3fe608060405234801561001057600080fd5b50600436106100f45760003560e01c80638f05ddc211610097578063dc3ca1bf11610066578063dc3ca1bf1461024a578063e03176d41461025d578063e203a8311461027e578063f2fde38b1461029157600080fd5b80638f05ddc2146101f3578063a5c4b6c214610206578063c0c53b8b14610219578063ca709a251461022c57600080fd5b80634db9913c116100d35780634db9913c146101575780635527014c14610177578063715018a6146101bb5780638da5cb5b146101c357600080fd5b8062410355146100f9578063223715dd1461010e5780633d97fbda14610137575b600080fd5b61010c610107366004610fe9565b6102a4565b005b61012161011c3660046110b9565b610320565b60405161012e91906110db565b60405180910390f35b61014a6101453660046110b9565b6103ee565b60405161012e919061113c565b61016a610165366004611174565b610479565b60405161012e919061118d565b7ff2c05596afc0fa7a667b407040331ebc39d72b2fe94f39b136657de5e1b94f04546001600160a01b03165b6040516001600160a01b03909116815260200161012e565b61010c6104dc565b7f9016d09d72d40fdae2fd8ceac6b6234c7706214fd39c1cd1e609a0528c199300546001600160a01b03166101a3565b61010c6102013660046110b9565b6104f0565b61010c6102143660046111ad565b610526565b61010c6102273660046111d9565b610614565b6000805160206112d0833981519152546001600160a01b03166101a3565b61010c6102583660046110b9565b61071c565b61027061026b3660046110b9565b610765565b60405190815260200161012e565b61010c61028c36600461121c565b610811565b61010c61029f3660046110b9565b610864565b6102ac6108a2565b60008051602061131083398151915260005b825181101561031b5760018260000160008584815181106102e1576102e1611248565b6020908102919091018101516001600160a01b03168252810191909152604001600020805460ff19169115159190911790556001016102be565b505050565b6060600061032d836103ee565b90506000815167ffffffffffffffff81111561034b5761034b610fb7565b60405190808252806020026020018201604052801561039057816020015b60408051808201909152600080825260208201528152602001906001900390816103695790505b50905060005b82518110156103e6576103c18382815181106103b4576103b4611248565b6020026020010151610479565b8282815181106103d3576103d3611248565b6020908102919091010152600101610396565b509392505050565b6001600160a01b03811660009081527ff2c05596afc0fa7a667b407040331ebc39d72b2fe94f39b136657de5e1b94f01602090815260409182902080548351818402810184019094528084526060939283018282801561046d57602002820191906000526020600020905b815481526020019060010190808311610459575b50505050509050919050565b604080518082018252600080825260209182018190529283527ff2c05596afc0fa7a667b407040331ebc39d72b2fe94f39b136657de5e1b94f02815291819020815180830190925280546001600160a01b03168252600101549181019190915290565b6104e46108a2565b6104ee60006108fd565b565b6104f86108a2565b6001600160a01b0316600090815260008051602061131083398151915260205260409020805460ff19169055565b336000908152600080516020611310833981519152602081905260409091205460ff1661056d576040516312a0e76360e01b81523360048201526024015b60405180910390fd5b600061057884610479565b9050826001600160a01b031681600001516001600160a01b0316146105c457805160405163295a81c160e01b81523360048201526001600160a01b039091166024820152604401610564565b60006105cf8561096e565b9050801561060d576000805160206112d0833981519152546000805160206112f08339815191529061060b906001600160a01b03163384610b09565b505b5050505050565b600061061e610b66565b805490915060ff600160401b820416159067ffffffffffffffff166000811580156106465750825b905060008267ffffffffffffffff1660011480156106635750303b155b905081158015610671575080155b1561068f5760405163f92ee8a960e01b815260040160405180910390fd5b845467ffffffffffffffff1916600117855583156106b957845460ff60401b1916600160401b1785555b6106c38888610b91565b6106cc86610bf3565b831561071257845460ff60401b19168555604051600181527fc7f505b2f371ae2175ee4913f4499e1f2633a7b5936321eed1cdaeb6115181d29060200160405180910390a15b5050505050505050565b6107246108a2565b7ff2c05596afc0fa7a667b407040331ebc39d72b2fe94f39b136657de5e1b94f0480546001600160a01b0319166001600160a01b0392909216919091179055565b3360009081526000805160206113108339815191526020819052604082205460ff166107a6576040516312a0e76360e01b8152336004820152602401610564565b6000805160206112d0833981519152546000805160206112f0833981519152906000906107db906001600160a01b0316610c04565b9050806000036107fe5760405163162908e360e11b815260040160405180910390fd5b6108088582610ca8565b95945050505050565b336000908152600080516020611310833981519152602081905260409091205460ff16610853576040516312a0e76360e01b8152336004820152602401610564565b61085e848484610d7a565b50505050565b61086c6108a2565b6001600160a01b03811661089657604051631e4fbdf760e01b815260006004820152602401610564565b61089f816108fd565b50565b336108d47f9016d09d72d40fdae2fd8ceac6b6234c7706214fd39c1cd1e609a0528c199300546001600160a01b031690565b6001600160a01b0316146104ee5760405163118cdaa760e01b8152336004820152602401610564565b7f9016d09d72d40fdae2fd8ceac6b6234c7706214fd39c1cd1e609a0528c19930080546001600160a01b031981166001600160a01b03848116918217845560405192169182907f8be0079c531659141344cd1fd0a4f28419497f9722a3daafe3b4186f6b6457e090600090a3505050565b60008181527ff2c05596afc0fa7a667b407040331ebc39d72b2fe94f39b136657de5e1b94f026020526040812080546000805160206112f083398151915291906001600160a01b03166109d757604051630950e82760e41b815260048101859052602401610564565b6001808201546000868152600285016020908152604080832080546001600160a01b0319168155850183905585546001600160a01b03168352938601905291822090915b8154811015610ac55786828281548110610a3757610a37611248565b906000526020600020015403610abd5781548290610a5790600190611274565b81548110610a6757610a67611248565b9060005260206000200154828281548110610a8457610a84611248565b906000526020600020018190555081805480610aa257610aa2611287565b60019003818190600052602060002001600090559055610ac5565b600101610a1b565b50857fd2fe606d6e5a1d7a66766fa1df5b7868957cdeb3e929db537e6cea563a79e8e683604051610af891815260200190565b60405180910390a250949350505050565b7ff2c05596afc0fa7a667b407040331ebc39d72b2fe94f39b136657de5e1b94f0580546000805160206112f0833981519152918391600090610b4c908490611274565b9091555061085e90506001600160a01b0385168484610e9c565b6000807ff0c57e16840df040f15088dc2f81fe391c3923bec73e23a9662efc9c229c6a005b92915050565b610b99610eee565b6000805160206112d083398151915280546001600160a01b039384166001600160a01b0319918216179091557ff2c05596afc0fa7a667b407040331ebc39d72b2fe94f39b136657de5e1b94f048054929093169116179055565b610bfb610eee565b61089f81610f13565b6000806000805160206112f08339815191526040516370a0823160e01b81523060048201529091506000906001600160a01b038516906370a0823190602401602060405180830381865afa158015610c60573d6000803e3d6000fd5b505050506040513d601f19601f82011682018060405250810190610c84919061129d565b90506000826005015482610c989190611274565b6005909301919091555092915050565b6000806000805160206112f0833981519152905060008160000160008154610ccf906112b6565b91829055506040805180820182526001600160a01b0388811680835260208084018a8152600087815260028a018352868120955186546001600160a01b03191695169490941785555160019485015581835283880181528483208054948501815583529182902090920184905591518781529293509183917f16179d2ae7d0f222358d8b9a730126da72c9a3c322b695c25d9a67dcbad4b745910160405180910390a3949350505050565b60008381527ff2c05596afc0fa7a667b407040331ebc39d72b2fe94f39b136657de5e1b94f026020526040902080546000805160206112f083398151915291906001600160a01b0316610de357604051630950e82760e41b815260048101869052602401610564565b8381600101541015610e1f57600181015460405163fcca373360e01b815260048101879052602481018690526044810191909152606401610564565b83816001016000828254610e339190611274565b90915550506003820154610e51906001600160a01b03168486610b09565b826001600160a01b0316857f95d9ac71fa5059c6b0dab152a1b719046f8820751d0ef43042b6d7d9a2b69a7786604051610e8d91815260200190565b60405180910390a35050505050565b604080516001600160a01b038416602482015260448082018490528251808303909101815260649091019091526020810180516001600160e01b031663a9059cbb60e01b17905261031b908490610f24565b610ef6610f95565b6104ee57604051631afcd79f60e31b815260040160405180910390fd5b610f1b610eee565b61089f81610faf565b600080602060008451602086016000885af180610f47576040513d6000823e3d81fd5b50506000513d91508115610f5f578060011415610f6c565b6001600160a01b0384163b155b1561085e57604051635274afe760e01b81526001600160a01b0385166004820152602401610564565b6000610f9f610b66565b54600160401b900460ff16919050565b61086c610eee565b634e487b7160e01b600052604160045260246000fd5b80356001600160a01b0381168114610fe457600080fd5b919050565b600060208284031215610ffb57600080fd5b813567ffffffffffffffff81111561101257600080fd5b8201601f8101841361102357600080fd5b803567ffffffffffffffff81111561103d5761103d610fb7565b8060051b604051601f19603f830116810181811067ffffffffffffffff8211171561106a5761106a610fb7565b60405291825260208184018101929081018784111561108857600080fd5b6020850194505b838510156110ae576110a085610fcd565b81526020948501940161108f565b509695505050505050565b6000602082840312156110cb57600080fd5b6110d482610fcd565b9392505050565b602080825282518282018190526000918401906040840190835b818110156111315761111b83855180516001600160a01b03168252602090810151910152565b60209390930192604092909201916001016110f5565b509095945050505050565b602080825282518282018190526000918401906040840190835b81811015611131578351835260209384019390920191600101611156565b60006020828403121561118657600080fd5b5035919050565b81516001600160a01b031681526020808301519082015260408101610b8b565b600080604083850312156111c057600080fd5b823591506111d060208401610fcd565b90509250929050565b6000806000606084860312156111ee57600080fd5b6111f784610fcd565b925061120560208501610fcd565b915061121360408501610fcd565b90509250925092565b60008060006060848603121561123157600080fd5b833592506020840135915061121360408501610fcd565b634e487b7160e01b600052603260045260246000fd5b634e487b7160e01b600052601160045260246000fd5b81810381811115610b8b57610b8b61125e565b634e487b7160e01b600052603160045260246000fd5b6000602082840312156112af57600080fd5b5051919050565b6000600182016112c8576112c861125e565b506001019056fef2c05596afc0fa7a667b407040331ebc39d72b2fe94f39b136657de5e1b94f03f2c05596afc0fa7a667b407040331ebc39d72b2fe94f39b136657de5e1b94f009042a41a974b9fb065efd30b036d9f6283b7b2827a70d0d1b892f50c78b11e00a26469706673582212202de26e2d1e2588eea3ace26c28540724f130a5cde1944ca7209274b0b5bbfcd664736f6c634300081c0033",
  "linkReferences": {},
  "deployedLinkReferences": {}
}