{
  "_format": "hh-sol-artifact-1",
  "contractName": "CallAiExample",
  "sourceName": "contracts/example/direct/call-ai-example.sol",
  "abi": [
    {
      "inputs": [
        {
          "internalType": "address",
          "name": "ai",
          "type": "address"
        }
      ],
      "stateMutability": "nonpayable",
      "type": "constructor"
    },
    {
      "inputs": [
        {
          "internalType": "address",
          "name": "token",
          "type": "address"
        }
      ],
      "name": "SafeERC20FailedOperation",
      "type": "error"
    },
    {
      "anonymous": false,
      "inputs": [
        {
          "indexed": false,
          "internalType": "bytes32",
          "name": "requestId",
          "type": "bytes32"
        }
      ],
      "name": "Error",
      "type": "event"
    },
    {
      "anonymous": false,
      "inputs": [
        {
          "indexed": false,
          "internalType": "bytes32",
          "name": "requestId",
          "type": "bytes32"
        },
        {
          "indexed": false,
          "internalType": "string",
          "name": "prompt",
          "type": "string"
        }
      ],
      "name": "Request",
      "type": "event"
    },
    {
      "anonymous": false,
      "inputs": [
        {
          "indexed": false,
          "internalType": "bytes32",
          "name": "requestId",
          "type": "bytes32"
        },
        {
          "indexed": false,
          "internalType": "enum IDtnAi.ResponseStatus",
          "name": "status",
          "type": "uint8"
        },
        {
          "indexed": false,
          "internalType": "string",
          "name": "message",
          "type": "string"
        },
        {
          "indexed": false,
          "internalType": "string",
          "name": "result",
          "type": "string"
        }
      ],
      "name": "Result",
      "type": "event"
    },
    {
      "inputs": [],
      "name": "ai",
      "outputs": [
        {
          "internalType": "contract IDtnAi",
          "name": "",
          "type": "address"
        }
      ],
      "stateMutability": "view",
      "type": "function"
    },
    {
      "inputs": [
        {
          "internalType": "bytes32",
          "name": "_requestId",
          "type": "bytes32"
        }
      ],
      "name": "aiError",
      "outputs": [],
      "stateMutability": "nonpayable",
      "type": "function"
    },
    {
      "inputs": [
        {
          "internalType": "bytes32",
          "name": "_requestId",
          "type": "bytes32"
        }
      ],
      "name": "callback",
      "outputs": [],
      "stateMutability": "nonpayable",
      "type": "function"
    },
    {
      "inputs": [
        {
          "internalType": "string",
          "name": "prompt",
          "type": "string"
        },
        {
          "internalType": "string",
          "name": "node",
          "type": "string"
        },
        {
          "internalType": "string",
          "name": "model",
          "type": "string"
        }
      ],
      "name": "doCallAi",
      "outputs": [],
      "stateMutability": "payable",
      "type": "function"
    },
    {
      "inputs": [],
      "name": "requestId",
      "outputs": [
        {
          "internalType": "bytes32",
          "name": "",
          "type": "bytes32"
        }
      ],
      "stateMutability": "view",
      "type": "function"
    },
    {
      "inputs": [],
      "name": "result",
      "outputs": [
        {
          "internalType": "string",
          "name": "",
          "type": "string"
        }
      ],
      "stateMutability": "view",
      "type": "function"
    },
    {
      "inputs": [],
      "name": "sessionId",
      "outputs": [
        {
          "internalType": "uint256",
          "name": "",
          "type": "uint256"
        }
      ],
      "stateMutability": "view",
      "type": "function"
    }
  ],
  "bytecode": "0x6080604052348015600f57600080fd5b506040516110c43803806110c4833981016040819052602c91604c565b600080546001600160a01b0319166001600160a01b03831617905550607a565b600060208284031215605d57600080fd5b81516001600160a01b0381168114607357600080fd5b9392505050565b61103b806100896000396000f3fe60806040526004361061006f5760003560e01c806368be1b1e1161004e57806368be1b1e146100e15780639648c9f414610119578063df13994e1461012f578063e1ceef121461014f57600080fd5b80626d6cae146100745780632bf0a7c91461009d57806365372147146100bf575b600080fd5b34801561008057600080fd5b5061008a60035481565b6040519081526020015b60405180910390f35b3480156100a957600080fd5b506100bd6100b8366004610881565b610162565b005b3480156100cb57600080fd5b506100d46101f7565b60405161009491906108ea565b3480156100ed57600080fd5b50600054610101906001600160a01b031681565b6040516001600160a01b039091168152602001610094565b34801561012557600080fd5b5061008a60025481565b34801561013b57600080fd5b506100bd61014a366004610881565b610285565b6100bd61015d3660046109c9565b6103c1565b6000546001600160a01b031633146101c15760405162461bcd60e51b815260206004820152601f60248201527f4f6e6c792044746e2063616e2063616c6c20746869732066756e6374696f6e0060448201526064015b60405180910390fd5b6040518181527fc0feee4291bd5b20db53763b87864bd1434da2717d6a9ba76efa4bafa8f6a99c9060200160405180910390a150565b6001805461020490610a5d565b80601f016020809104026020016040519081016040528092919081815260200182805461023090610a5d565b801561027d5780601f106102525761010080835404028352916020019161027d565b820191906000526020600020905b81548152906001019060200180831161026057829003601f168201915b505050505081565b6000546001600160a01b031633146102df5760405162461bcd60e51b815260206004820152601f60248201527f4f6e6c792044746e2063616e2063616c6c20746869732066756e6374696f6e0060448201526064016101b8565b6000805460405163d1e4be0760e01b815260048101849052829182916001600160a01b039091169063d1e4be0790602401600060405180830381865afa15801561032d573d6000803e3d6000fd5b505050506040513d6000823e601f3d908101601f191682016040526103559190810190610ae7565b9250925092508080602001905181019061036f9190610b71565b60019061037c9082610bfd565b507f08f93959aad2aac56d31361838e94d53bcf69cd431b8851b72466477b7e064ef84848460016040516103b39493929190610cd2565b60405180910390a150505050565b60025460000361054b576000670de0b6b3a764000090506104cf3360008054906101000a90046001600160a01b03166001600160a01b031663cd3c695a6040518163ffffffff1660e01b8152600401602060405180830381865afa15801561042d573d6000803e3d6000fd5b505050506040513d601f19601f820116820180604052508101906104519190610d92565b6000546040805163647846a560e01b8152905186926001600160a01b03169163647846a59160048083019260209291908290030181865afa15801561049a573d6000803e3d6000fd5b505050506040513d601f19601f820116820180604052508101906104be9190610d92565b6001600160a01b031692919061074b565b60008054906101000a90046001600160a01b03166001600160a01b0316636d8de31f6040518163ffffffff1660e01b81526004016020604051808303816000875af1158015610522573d6000803e3d6000fd5b505050506040513d601f19601f820116820180604052508101906105469190610dbb565b600255505b604080516001808252818301909252600091602080830190803683370190505090508260405160200161057e9190610dd4565b60405160208183030381529060405280519060200120816000815181106105a7576105a7610df0565b60200260200101818152505060008054906101000a90046001600160a01b03166001600160a01b031663e51d682234600254856040516020016105ea9190610dd4565b60405160208183030381529060405280519060200120610609866107ab565b6040805160c08101909152806106228c60e08301610e06565b60408051808303601f190181529181529082528051600c60208083019190915230828401819052835180840385018152606093840185528286015260018585015266038d7ea4c680008386018190526080860152670de0b6b3a764000060a09095019490945282519182018352636f89cca760e11b8252632bf0a7c960e01b9082015280820192909252516001600160e01b031960e089901b1681526106d395949392919033903490600401610efa565b60206040518083038185885af11580156106f1573d6000803e3d6000fd5b50505050506040513d601f19601f820116820180604052508101906107169190610dbb565b60038190556040517f58c4931f429cb18fea0238d66bdcec44991828642becdaed95b821ac2e59191d916103b3918790610fec565b604080516001600160a01b0385811660248301528416604482015260648082018490528251808303909101815260849091019091526020810180516001600160e01b03166323b872dd60e01b1790526107a5908590610810565b50505050565b6107da6040805160a0810182526060808252602082018190526000928201839052810182905290608082015290565b5060408051600080825260c0820183526020820182815292820193909352600160608201526008608082015260a0019190915290565b600080602060008451602086016000885af180610833576040513d6000823e3d81fd5b50506000513d9150811561084b578060011415610858565b6001600160a01b0384163b155b156107a557604051635274afe760e01b81526001600160a01b03851660048201526024016101b8565b60006020828403121561089357600080fd5b5035919050565b60005b838110156108b557818101518382015260200161089d565b50506000910152565b600081518084526108d681602086016020860161089a565b601f01601f19169290920160200192915050565b6020815260006108fd60208301846108be565b9392505050565b634e487b7160e01b600052604160045260246000fd5b604051601f8201601f1916810167ffffffffffffffff8111828210171561094357610943610904565b604052919050565b600067ffffffffffffffff82111561096557610965610904565b50601f01601f191660200190565b600082601f83011261098457600080fd5b81356109976109928261094b565b61091a565b8181528460208386010111156109ac57600080fd5b816020850160208301376000918101602001919091529392505050565b6000806000606084860312156109de57600080fd5b833567ffffffffffffffff8111156109f557600080fd5b610a0186828701610973565b935050602084013567ffffffffffffffff811115610a1e57600080fd5b610a2a86828701610973565b925050604084013567ffffffffffffffff811115610a4757600080fd5b610a5386828701610973565b9150509250925092565b600181811c90821680610a7157607f821691505b602082108103610a9157634e487b7160e01b600052602260045260246000fd5b50919050565b6000610aa56109928461094b565b9050828152838383011115610ab957600080fd5b6108fd83602083018461089a565b600082601f830112610ad857600080fd5b6108fd83835160208501610a97565b600080600060608486031215610afc57600080fd5b835160038110610b0b57600080fd5b602085015190935067ffffffffffffffff811115610b2857600080fd5b610b3486828701610ac7565b925050604084015167ffffffffffffffff811115610b5157600080fd5b8401601f81018613610b6257600080fd5b610a5386825160208401610a97565b600060208284031215610b8357600080fd5b815167ffffffffffffffff811115610b9a57600080fd5b610ba684828501610ac7565b949350505050565b601f821115610bf857806000526020600020601f840160051c81016020851015610bd55750805b601f840160051c820191505b81811015610bf55760008155600101610be1565b50505b505050565b815167ffffffffffffffff811115610c1757610c17610904565b610c2b81610c258454610a5d565b84610bae565b6020601f821160018114610c5f5760008315610c475750848201515b600019600385901b1c1916600184901b178455610bf5565b600084815260208120601f198516915b82811015610c8f5787850151825560209485019460019092019101610c6f565b5084821015610cad5786840151600019600387901b60f8161c191681555b50505050600190811b01905550565b634e487b7160e01b600052602160045260246000fd5b848152600060038510610ce757610ce7610cbc565b84602083015260806040830152610d0160808301856108be565b828103606084015260008454610d1681610a5d565b808452600182168015610d305760018114610d4c57610d83565b60ff1983166020860152602082151560051b8601019350610d83565b87600052602060002060005b83811015610d7a57815460208289010152600182019150602081019050610d58565b86016020019450505b50919998505050505050505050565b600060208284031215610da457600080fd5b81516001600160a01b03811681146108fd57600080fd5b600060208284031215610dcd57600080fd5b5051919050565b60008251610de681846020870161089a565b9190910192915050565b634e487b7160e01b600052603260045260246000fd5b60408152601e60408201527f74657874207b303a75696e74387d20616e64207b313a616464726573737d000060608201526080602082015260006108fd60808301846108be565b600081518084526020840193506020830160005b82811015610e7f578151865260209586019590910190600101610e61565b5093949350505050565b6000815160c08452610e9e60c08501826108be565b905060208301518482036020860152610eb782826108be565b915050604083015160028110610ecf57610ecf610cbc565b6040850152606083810151908501526080808401519085015260a09283015192909301919091525090565b87815286602082015261012060408201526000865160a0610120840152610f256101c0840182610e4d565b9050602088015161011f1984830301610140850152610f448282610e4d565b91505063ffffffff60408901511661016084015260ff606089015116610180840152608088015160058110610f7b57610f7b610cbc565b6101a08401528281036060840152610f938188610e89565b86516001600160e01b0319908116608086015260208801511660a085015260408701516001600160a01b031660c08501529150610fcd9050565b6001600160a01b039390931660e0820152610100015295945050505050565b828152604060208201526000610ba660408301846108be56fea264697066735822122083453f85c08596de2381ae03b736f05df741e9e8183de547faaf5915aad870f764736f6c634300081c0033",
  "linkReferences": {},
  "deployedLinkReferences": {}
}