{
  "_format": "hh-sol-artifact-1",
  "contractName": "ModelManagerUpgradeable",
  "sourceName": "contracts/model/model-manager.sol",
  "abi": [
    {
      "inputs": [],
      "name": "AccessControlBadConfirmation",
      "type": "error"
    },
    {
      "inputs": [
        {
          "internalType": "address",
          "name": "account",
          "type": "address"
        },
        {
          "internalType": "bytes32",
          "name": "neededRole",
          "type": "bytes32"
        }
      ],
      "name": "AccessControlUnauthorizedAccount",
      "type": "error"
    },
    {
      "inputs": [],
      "name": "InvalidInitialization",
      "type": "error"
    },
    {
      "inputs": [
        {
          "internalType": "string",
          "name": "modelName",
          "type": "string"
        }
      ],
      "name": "InvalidModelName",
      "type": "error"
    },
    {
      "inputs": [
        {
          "internalType": "string",
          "name": "namespace",
          "type": "string"
        }
      ],
      "name": "NamespaceAlreadyExists",
      "type": "error"
    },
    {
      "inputs": [
        {
          "internalType": "string",
          "name": "namespace",
          "type": "string"
        }
      ],
      "name": "NamespaceNotFound",
      "type": "error"
    },
    {
      "inputs": [],
      "name": "NotInitializing",
      "type": "error"
    },
    {
      "inputs": [
        {
          "internalType": "string",
          "name": "namespace",
          "type": "string"
        }
      ],
      "name": "UnauthorizedNamespaceAccess",
      "type": "error"
    },
    {
      "anonymous": false,
      "inputs": [
        {
          "indexed": false,
          "internalType": "uint64",
          "name": "version",
          "type": "uint64"
        }
      ],
      "name": "Initialized",
      "type": "event"
    },
    {
      "anonymous": false,
      "inputs": [
        {
          "indexed": false,
          "internalType": "string",
          "name": "namespace",
          "type": "string"
        },
        {
          "indexed": false,
          "internalType": "string",
          "name": "api",
          "type": "string"
        },
        {
          "indexed": false,
          "internalType": "string",
          "name": "docs",
          "type": "string"
        }
      ],
      "name": "ModelAPIRegistered",
      "type": "event"
    },
    {
      "anonymous": false,
      "inputs": [
        {
          "indexed": false,
          "internalType": "string",
          "name": "namespace",
          "type": "string"
        },
        {
          "indexed": false,
          "internalType": "address",
          "name": "owner",
          "type": "address"
        }
      ],
      "name": "ModelNamespaceRegistered",
      "type": "event"
    },
    {
      "anonymous": false,
      "inputs": [
        {
          "indexed": false,
          "internalType": "string",
          "name": "namespace",
          "type": "string"
        },
        {
          "indexed": false,
          "internalType": "string",
          "name": "modelName",
          "type": "string"
        },
        {
          "indexed": false,
          "internalType": "bytes32",
          "name": "modelId",
          "type": "bytes32"
        }
      ],
      "name": "ModelRegistered",
      "type": "event"
    },
    {
      "anonymous": false,
      "inputs": [
        {
          "indexed": true,
          "internalType": "bytes32",
          "name": "role",
          "type": "bytes32"
        },
        {
          "indexed": true,
          "internalType": "bytes32",
          "name": "previousAdminRole",
          "type": "bytes32"
        },
        {
          "indexed": true,
          "internalType": "bytes32",
          "name": "newAdminRole",
          "type": "bytes32"
        }
      ],
      "name": "RoleAdminChanged",
      "type": "event"
    },
    {
      "anonymous": false,
      "inputs": [
        {
          "indexed": true,
          "internalType": "bytes32",
          "name": "role",
          "type": "bytes32"
        },
        {
          "indexed": true,
          "internalType": "address",
          "name": "account",
          "type": "address"
        },
        {
          "indexed": true,
          "internalType": "address",
          "name": "sender",
          "type": "address"
        }
      ],
      "name": "RoleGranted",
      "type": "event"
    },
    {
      "anonymous": false,
      "inputs": [
        {
          "indexed": true,
          "internalType": "bytes32",
          "name": "role",
          "type": "bytes32"
        },
        {
          "indexed": true,
          "internalType": "address",
          "name": "account",
          "type": "address"
        },
        {
          "indexed": true,
          "internalType": "address",
          "name": "sender",
          "type": "address"
        }
      ],
      "name": "RoleRevoked",
      "type": "event"
    },
    {
      "inputs": [],
      "name": "DEFAULT_ADMIN_ROLE",
      "outputs": [
        {
          "internalType": "bytes32",
          "name": "",
          "type": "bytes32"
        }
      ],
      "stateMutability": "view",
      "type": "function"
    },
    {
      "inputs": [],
      "name": "NAMESPACE_ADMIN_ROLE",
      "outputs": [
        {
          "internalType": "bytes32",
          "name": "",
          "type": "bytes32"
        }
      ],
      "stateMutability": "view",
      "type": "function"
    },
    {
      "inputs": [
        {
          "internalType": "bytes32",
          "name": "_modelId",
          "type": "bytes32"
        }
      ],
      "name": "getModelAPI",
      "outputs": [
        {
          "components": [
            {
              "internalType": "bytes32",
              "name": "apiNamespaceId",
              "type": "bytes32"
            },
            {
              "internalType": "string",
              "name": "apiName",
              "type": "string"
            },
            {
              "internalType": "bytes32",
              "name": "apiId",
              "type": "bytes32"
            },
            {
              "internalType": "string",
              "name": "specs",
              "type": "string"
            },
            {
              "internalType": "string",
              "name": "docs",
              "type": "string"
            }
          ],
          "internalType": "struct IModelManager.ModelApi",
          "name": "",
          "type": "tuple"
        }
      ],
      "stateMutability": "view",
      "type": "function"
    },
    {
      "inputs": [
        {
          "internalType": "bytes32",
          "name": "_modelId",
          "type": "bytes32"
        }
      ],
      "name": "getModelConfig",
      "outputs": [
        {
          "components": [
            {
              "internalType": "bytes32",
              "name": "modelNamespaceId",
              "type": "bytes32"
            },
            {
              "internalType": "bytes32",
              "name": "modelId",
              "type": "bytes32"
            },
            {
              "internalType": "bytes32",
              "name": "modelApiId",
              "type": "bytes32"
            },
            {
              "internalType": "string",
              "name": "modelName",
              "type": "string"
            }
          ],
          "internalType": "struct IModelManager.ModelConfig",
          "name": "",
          "type": "tuple"
        }
      ],
      "stateMutability": "view",
      "type": "function"
    },
    {
      "inputs": [],
      "name": "getNamespaceManager",
      "outputs": [
        {
          "internalType": "address",
          "name": "",
          "type": "address"
        }
      ],
      "stateMutability": "view",
      "type": "function"
    },
    {
      "inputs": [
        {
          "internalType": "bytes32",
          "name": "role",
          "type": "bytes32"
        }
      ],
      "name": "getRoleAdmin",
      "outputs": [
        {
          "internalType": "bytes32",
          "name": "",
          "type": "bytes32"
        }
      ],
      "stateMutability": "view",
      "type": "function"
    },
    {
      "inputs": [],
      "name": "getRouter",
      "outputs": [
        {
          "internalType": "address",
          "name": "",
          "type": "address"
        }
      ],
      "stateMutability": "view",
      "type": "function"
    },
    {
      "inputs": [
        {
          "internalType": "bytes32",
          "name": "role",
          "type": "bytes32"
        },
        {
          "internalType": "address",
          "name": "account",
          "type": "address"
        }
      ],
      "name": "grantRole",
      "outputs": [],
      "stateMutability": "nonpayable",
      "type": "function"
    },
    {
      "inputs": [
        {
          "internalType": "bytes32",
          "name": "role",
          "type": "bytes32"
        },
        {
          "internalType": "address",
          "name": "account",
          "type": "address"
        }
      ],
      "name": "hasRole",
      "outputs": [
        {
          "internalType": "bool",
          "name": "",
          "type": "bool"
        }
      ],
      "stateMutability": "view",
      "type": "function"
    },
    {
      "inputs": [
        {
          "internalType": "address",
          "name": "owner",
          "type": "address"
        }
      ],
      "name": "initialize",
      "outputs": [],
      "stateMutability": "nonpayable",
      "type": "function"
    },
    {
      "inputs": [
        {
          "internalType": "bytes32",
          "name": "_modelId",
          "type": "bytes32"
        }
      ],
      "name": "modelExists",
      "outputs": [
        {
          "internalType": "bool",
          "name": "",
          "type": "bool"
        }
      ],
      "stateMutability": "view",
      "type": "function"
    },
    {
      "inputs": [
        {
          "internalType": "string",
          "name": "modelFullName",
          "type": "string"
        }
      ],
      "name": "modelId",
      "outputs": [
        {
          "internalType": "bytes32",
          "name": "",
          "type": "bytes32"
        }
      ],
      "stateMutability": "pure",
      "type": "function"
    },
    {
      "inputs": [
        {
          "internalType": "string",
          "name": "namespace",
          "type": "string"
        },
        {
          "internalType": "string",
          "name": "modelName",
          "type": "string"
        },
        {
          "internalType": "string",
          "name": "modelApi",
          "type": "string"
        }
      ],
      "name": "registerModel",
      "outputs": [
        {
          "internalType": "bytes32",
          "name": "",
          "type": "bytes32"
        }
      ],
      "stateMutability": "nonpayable",
      "type": "function"
    },
    {
      "inputs": [
        {
          "internalType": "string",
          "name": "namespace",
          "type": "string"
        },
        {
          "internalType": "string",
          "name": "apiName",
          "type": "string"
        },
        {
          "internalType": "string",
          "name": "specs",
          "type": "string"
        },
        {
          "internalType": "string",
          "name": "docs",
          "type": "string"
        }
      ],
      "name": "registerModelAPI",
      "outputs": [],
      "stateMutability": "nonpayable",
      "type": "function"
    },
    {
      "inputs": [
        {
          "internalType": "bytes32",
          "name": "role",
          "type": "bytes32"
        },
        {
          "internalType": "address",
          "name": "callerConfirmation",
          "type": "address"
        }
      ],
      "name": "renounceRole",
      "outputs": [],
      "stateMutability": "nonpayable",
      "type": "function"
    },
    {
      "inputs": [
        {
          "internalType": "bytes32",
          "name": "role",
          "type": "bytes32"
        },
        {
          "internalType": "address",
          "name": "account",
          "type": "address"
        }
      ],
      "name": "revokeRole",
      "outputs": [],
      "stateMutability": "nonpayable",
      "type": "function"
    },
    {
      "inputs": [
        {
          "internalType": "address",
          "name": "_router",
          "type": "address"
        },
        {
          "internalType": "address",
          "name": "_namespaceManager",
          "type": "address"
        }
      ],
      "name": "setDependencies",
      "outputs": [],
      "stateMutability": "nonpayable",
      "type": "function"
    },
    {
      "inputs": [
        {
          "internalType": "bytes4",
          "name": "interfaceId",
          "type": "bytes4"
        }
      ],
      "name": "supportsInterface",
      "outputs": [
        {
          "internalType": "bool",
          "name": "",
          "type": "bool"
        }
      ],
      "stateMutability": "view",
      "type": "function"
    }
  ],
  "bytecode": "0x6080604052348015600f57600080fd5b5061166a8061001f6000396000f3fe608060405234801561001057600080fd5b50600436106101165760003560e01c80636200fdc1116100a2578063b0f479a111610071578063b0f479a114610296578063c4d66de8146102c6578063d547741f146102d9578063e5c31ee0146102ec578063e87c28a71461030157600080fd5b80636200fdc1146102485780637715fcc31461026857806391d148541461027b578063a217fddf1461028e57600080fd5b806328d2f47f116100e957806328d2f47f146101da5780632f2ff15d146101fa57806336568abe1461020f578063437172bc14610222578063552c99271461023557600080fd5b806301ffc9a71461011b578063022964d2146101435780631ef5467c14610187578063248a9ca3146101b9575b600080fd5b61012e610129366004610f8a565b610314565b60405190151581526020015b60405180910390f35b61012e610151366004610fbb565b60009081527f317ad3d122488b64c2d86bf285bd2d0e9a7289d8b50201f32d6abb04fde8a3036020526040902060010154151590565b6000805160206115f5833981519152546001600160a01b03165b6040516001600160a01b03909116815260200161013a565b6101cc6101c7366004610fbb565b61034b565b60405190815260200161013a565b6101ed6101e8366004610fbb565b61036d565b60405161013a9190611024565b61020d6102083660046110ad565b6105e1565b005b61020d61021d3660046110ad565b610603565b6101cc610230366004611180565b61063b565b61020d6102433660046111bc565b61066b565b61025b610256366004610fbb565b610865565b60405161013a9190611278565b6101cc6102763660046112b1565b610971565b61012e6102893660046110ad565b610bb1565b6101cc600081565b7f317ad3d122488b64c2d86bf285bd2d0e9a7289d8b50201f32d6abb04fde8a301546001600160a01b03166101a1565b61020d6102d4366004611342565b610be9565b61020d6102e73660046110ad565b610ce3565b6101cc6000805160206115d583398151915281565b61020d61030f36600461135f565b610cff565b60006001600160e01b03198216637965db0b60e01b148061034557506301ffc9a760e01b6001600160e01b03198316145b92915050565b6000908152600080516020611615833981519152602052604090206001015490565b6040805160a0808201835260008083526060602080850182905284860183905281850182905260808501919091528582527f317ad3d122488b64c2d86bf285bd2d0e9a7289d8b50201f32d6abb04fde8a3038152848220600201548083527f317ad3d122488b64c2d86bf285bd2d0e9a7289d8b50201f32d6abb04fde8a30282529185902085519384019095528454835260018501805494956000805160206115f5833981519152959394939092840191906104289061138d565b80601f01602080910402602001604051908101604052809291908181526020018280546104549061138d565b80156104a15780601f10610476576101008083540402835291602001916104a1565b820191906000526020600020905b81548152906001019060200180831161048457829003601f168201915b50505050508152602001600282015481526020016003820180546104c49061138d565b80601f01602080910402602001604051908101604052809291908181526020018280546104f09061138d565b801561053d5780601f106105125761010080835404028352916020019161053d565b820191906000526020600020905b81548152906001019060200180831161052057829003601f168201915b505050505081526020016004820180546105569061138d565b80601f01602080910402602001604051908101604052809291908181526020018280546105829061138d565b80156105cf5780601f106105a4576101008083540402835291602001916105cf565b820191906000526020600020905b8154815290600101906020018083116105b257829003601f168201915b50505050508152505092505050919050565b6105ea8261034b565b6105f381610d68565b6105fd8383610d75565b50505050565b6001600160a01b038116331461062c5760405163334bd91960e11b815260040160405180910390fd5b6106368282610e1a565b505050565b60008160405160200161064e91906113c7565b604051602081830303815290604052805190602001209050919050565b6040516000805160206115f58339815191529060009061068f9087906020016113c7565b60408051808303601f190181529082905280516020909101208354633529e71d60e11b8352600483018290529092506000916001600160a01b0390911690636a53ce3a90602401602060405180830381865afa1580156106f3573d6000803e3d6000fd5b505050506040513d601f19601f8201168201806040525081019061071791906113e3565b90506001600160a01b038116331480159061074757506107456000805160206115d583398151915233610bb1565b155b1561077057866040516336d51b5f60e01b81526004016107679190611400565b60405180910390fd5b60008787604051602001610785929190611413565b60408051601f19818403018152828252805160209182012060a0840183528684528382018b8152848401829052606085018b9052608085018a9052600082815260028a019093529290912083518155915190935060018201906107e8908261149d565b506040820151600282015560608201516003820190610807908261149d565b506080820151600482019061081c908261149d565b509050507f89575a3f2d7b33810040ff3675bdbde5cd826812ddba463f35ac829cf130fcc08888876040516108539392919061155b565b60405180910390a15050505050505050565b60408051608081018252600080825260208201819052918101829052606080820152906000805160206115f583398151915290508060030160008481526020019081526020016000206040518060800160405290816000820154815260200160018201548152602001600282015481526020016003820180546108e79061138d565b80601f01602080910402602001604051908101604052809291908181526020018280546109139061138d565b80156109605780601f1061093557610100808354040283529160200191610960565b820191906000526020600020905b81548152906001019060200180831161094357829003601f168201915b505050505081525050915050919050565b6000806000805160206115f5833981519152905060008560405160200161099891906113c7565b60408051808303601f190181529082905280516020909101208354633529e71d60e11b8352600483018290529092506000916001600160a01b0390911690636a53ce3a90602401602060405180830381865afa1580156109fc573d6000803e3d6000fd5b505050506040513d601f19601f82011682018060405250810190610a2091906113e3565b90506001600160a01b0381163314801590610a505750610a4e6000805160206115d583398151915233610bb1565b155b15610a7057866040516336d51b5f60e01b81526004016107679190611400565b60008787604051602001610a85929190611413565b60405160208183030381529060405290508651600003610ab95786604051620489d360ed1b81526004016107679190611400565b600081604051602001610acc91906113c7565b604051602081830303815290604052805190602001209050604051806080016040528085815260200182815260200188604051602001610b0c91906113c7565b60408051601f198184030181529181528151602092830120835291810185905260008481526003808a018352908390208451815591840151600183015591830151600282015560608301519091820190610b66908261149d565b509050507f1cce9f901183dd4596be1b35dc2d01618a2c0780c32dc813293d46336280a9ba898983604051610b9d9392919061159e565b60405180910390a198975050505050505050565b6000918252600080516020611615833981519152602090815260408084206001600160a01b0393909316845291905290205460ff1690565b6000610bf3610e96565b805490915060ff600160401b82041615906001600160401b0316600081158015610c1a5750825b90506000826001600160401b03166001148015610c365750303b155b905081158015610c44575080155b15610c625760405163f92ee8a960e01b815260040160405180910390fd5b845467ffffffffffffffff191660011785558315610c8c57845460ff60401b1916600160401b1785555b610c9586610ebf565b8315610cdb57845460ff60401b19168555604051600181527fc7f505b2f371ae2175ee4913f4499e1f2633a7b5936321eed1cdaeb6115181d29060200160405180910390a15b505050505050565b610cec8261034b565b610cf581610d68565b6105fd8383610e1a565b6000610d0a81610d68565b506000805160206115f583398151915280546001600160a01b039283166001600160a01b0319918216179091557f317ad3d122488b64c2d86bf285bd2d0e9a7289d8b50201f32d6abb04fde8a3018054939092169216919091179055565b610d728133610ed8565b50565b6000600080516020611615833981519152610d908484610bb1565b610e10576000848152602082815260408083206001600160a01b03871684529091529020805460ff19166001179055610dc63390565b6001600160a01b0316836001600160a01b0316857f2f8788117e7eff1d82e926ec794901d17c78024a50270940304540a733656f0d60405160405180910390a46001915050610345565b6000915050610345565b6000600080516020611615833981519152610e358484610bb1565b15610e10576000848152602082815260408083206001600160a01b0387168085529252808320805460ff1916905551339287917ff6391f5c32d9c69d2a47ea670b442974b53935d1edc7fd64eb21e047a839171b9190a46001915050610345565b6000807ff0c57e16840df040f15088dc2f81fe391c3923bec73e23a9662efc9c229c6a00610345565b610ec7610f15565b610ecf610f3c565b610d7281610f44565b610ee28282610bb1565b610f115760405163e2517d3f60e01b81526001600160a01b038216600482015260248101839052604401610767565b5050565b610f1d610f70565b610f3a57604051631afcd79f60e31b815260040160405180910390fd5b565b610f3a610f15565b610f4c610f15565b610f57600082610d75565b50610f116000805160206115d583398151915282610d75565b6000610f7a610e96565b54600160401b900460ff16919050565b600060208284031215610f9c57600080fd5b81356001600160e01b031981168114610fb457600080fd5b9392505050565b600060208284031215610fcd57600080fd5b5035919050565b60005b83811015610fef578181015183820152602001610fd7565b50506000910152565b60008151808452611010816020860160208601610fd4565b601f01601f19169290920160200192915050565b60208152815160208201526000602083015160a0604084015261104a60c0840182610ff8565b9050604084015160608401526060840151601f198483030160808501526110718282610ff8565b9150506080840151601f198483030160a085015261108f8282610ff8565b95945050505050565b6001600160a01b0381168114610d7257600080fd5b600080604083850312156110c057600080fd5b8235915060208301356110d281611098565b809150509250929050565b634e487b7160e01b600052604160045260246000fd5b600082601f83011261110457600080fd5b81356001600160401b0381111561111d5761111d6110dd565b604051601f8201601f19908116603f011681016001600160401b038111828210171561114b5761114b6110dd565b60405281815283820160200185101561116357600080fd5b816020850160208301376000918101602001919091529392505050565b60006020828403121561119257600080fd5b81356001600160401b038111156111a857600080fd5b6111b4848285016110f3565b949350505050565b600080600080608085870312156111d257600080fd5b84356001600160401b038111156111e857600080fd5b6111f4878288016110f3565b94505060208501356001600160401b0381111561121057600080fd5b61121c878288016110f3565b93505060408501356001600160401b0381111561123857600080fd5b611244878288016110f3565b92505060608501356001600160401b0381111561126057600080fd5b61126c878288016110f3565b91505092959194509250565b60208152815160208201526020820151604082015260408201516060820152600060608301516080808401526111b460a0840182610ff8565b6000806000606084860312156112c657600080fd5b83356001600160401b038111156112dc57600080fd5b6112e8868287016110f3565b93505060208401356001600160401b0381111561130457600080fd5b611310868287016110f3565b92505060408401356001600160401b0381111561132c57600080fd5b611338868287016110f3565b9150509250925092565b60006020828403121561135457600080fd5b8135610fb481611098565b6000806040838503121561137257600080fd5b823561137d81611098565b915060208301356110d281611098565b600181811c908216806113a157607f821691505b6020821081036113c157634e487b7160e01b600052602260045260246000fd5b50919050565b600082516113d9818460208701610fd4565b9190910192915050565b6000602082840312156113f557600080fd5b8151610fb481611098565b602081526000610fb46020830184610ff8565b60008351611425818460208801610fd4565b601760f91b9083019081528351611443816001840160208801610fd4565b01600101949350505050565b601f82111561063657806000526020600020601f840160051c810160208510156114765750805b601f840160051c820191505b818110156114965760008155600101611482565b5050505050565b81516001600160401b038111156114b6576114b66110dd565b6114ca816114c4845461138d565b8461144f565b6020601f8211600181146114fe57600083156114e65750848201515b600019600385901b1c1916600184901b178455611496565b600084815260208120601f198516915b8281101561152e578785015182556020948501946001909201910161150e565b508482101561154c5786840151600019600387901b60f8161c191681555b50505050600190811b01905550565b60608152600061156e6060830186610ff8565b82810360208401526115808186610ff8565b905082810360408401526115948185610ff8565b9695505050505050565b6060815260006115b16060830186610ff8565b82810360208401526115c38186610ff8565b91505082604083015294935050505056fedca996585aa32c6b108950b2d3b4a504149e5fccfa82747e15f168f12b975141317ad3d122488b64c2d86bf285bd2d0e9a7289d8b50201f32d6abb04fde8a30002dd7bc7dec4dceedda775e58dd541e08a116c6c53815c0bd028192f7b626800a2646970667358221220e5b472b63a873f639ee99e0eea4aba5427975e11037d82c5d6b4e1c7be311d9964736f6c634300081c0033",
  "linkReferences": {},
  "deployedLinkReferences": {}
}