{
  "_format": "hh-sol-artifact-1",
  "contractName": "NodeManagerUpgradeable",
  "sourceName": "contracts/node/node-manager.sol",
  "abi": [
    {
      "inputs": [],
      "stateMutability": "nonpayable",
      "type": "constructor"
    },
    {
      "inputs": [],
      "name": "AccessControlBadConfirmation",
      "type": "error"
    },
    {
      "inputs": [
        {
          "internalType": "address",
          "name": "account",
          "type": "address"
        },
        {
          "internalType": "bytes32",
          "name": "neededRole",
          "type": "bytes32"
        }
      ],
      "name": "AccessControlUnauthorizedAccount",
      "type": "error"
    },
    {
      "inputs": [
        {
          "internalType": "address",
          "name": "target",
          "type": "address"
        }
      ],
      "name": "AddressEmptyCode",
      "type": "error"
    },
    {
      "inputs": [],
      "name": "ECDSAInvalidSignature",
      "type": "error"
    },
    {
      "inputs": [
        {
          "internalType": "uint256",
          "name": "length",
          "type": "uint256"
        }
      ],
      "name": "ECDSAInvalidSignatureLength",
      "type": "error"
    },
    {
      "inputs": [
        {
          "internalType": "bytes32",
          "name": "s",
          "type": "bytes32"
        }
      ],
      "name": "ECDSAInvalidSignatureS",
      "type": "error"
    },
    {
      "inputs": [
        {
          "internalType": "address",
          "name": "implementation",
          "type": "address"
        }
      ],
      "name": "ERC1967InvalidImplementation",
      "type": "error"
    },
    {
      "inputs": [],
      "name": "ERC1967NonPayable",
      "type": "error"
    },
    {
      "inputs": [],
      "name": "FailedCall",
      "type": "error"
    },
    {
      "inputs": [],
      "name": "InvalidInitialization",
      "type": "error"
    },
    {
      "inputs": [],
      "name": "NotInitializing",
      "type": "error"
    },
    {
      "inputs": [],
      "name": "ReentrancyGuardReentrantCall",
      "type": "error"
    },
    {
      "inputs": [],
      "name": "UUPSUnauthorizedCallContext",
      "type": "error"
    },
    {
      "inputs": [
        {
          "internalType": "bytes32",
          "name": "slot",
          "type": "bytes32"
        }
      ],
      "name": "UUPSUnsupportedProxiableUUID",
      "type": "error"
    },
    {
      "anonymous": false,
      "inputs": [
        {
          "indexed": false,
          "internalType": "uint64",
          "name": "version",
          "type": "uint64"
        }
      ],
      "name": "Initialized",
      "type": "event"
    },
    {
      "anonymous": false,
      "inputs": [
        {
          "indexed": true,
          "internalType": "bytes32",
          "name": "nodeId",
          "type": "bytes32"
        },
        {
          "indexed": false,
          "internalType": "bytes32[]",
          "name": "modelIds",
          "type": "bytes32[]"
        }
      ],
      "name": "NodeModelsUpdated",
      "type": "event"
    },
    {
      "anonymous": false,
      "inputs": [
        {
          "indexed": true,
          "internalType": "bytes32",
          "name": "nodeId",
          "type": "bytes32"
        },
        {
          "indexed": false,
          "internalType": "string[]",
          "name": "namespaces",
          "type": "string[]"
        }
      ],
      "name": "NodeNamespacesUpdated",
      "type": "event"
    },
    {
      "anonymous": false,
      "inputs": [
        {
          "indexed": true,
          "internalType": "bytes32",
          "name": "nodeId",
          "type": "bytes32"
        },
        {
          "indexed": true,
          "internalType": "address",
          "name": "staker",
          "type": "address"
        },
        {
          "indexed": false,
          "internalType": "address",
          "name": "worker",
          "type": "address"
        }
      ],
      "name": "NodeRegistered",
      "type": "event"
    },
    {
      "anonymous": false,
      "inputs": [
        {
          "indexed": true,
          "internalType": "bytes32",
          "name": "nodeId",
          "type": "bytes32"
        },
        {
          "indexed": false,
          "internalType": "uint256",
          "name": "responseRate",
          "type": "uint256"
        },
        {
          "indexed": false,
          "internalType": "uint256",
          "name": "validAnswerRate",
          "type": "uint256"
        },
        {
          "indexed": false,
          "internalType": "uint256",
          "name": "complainRate",
          "type": "uint256"
        }
      ],
      "name": "NodeScoresUpdated",
      "type": "event"
    },
    {
      "anonymous": false,
      "inputs": [
        {
          "indexed": true,
          "internalType": "bytes32",
          "name": "nodeId",
          "type": "bytes32"
        },
        {
          "indexed": false,
          "internalType": "bool",
          "name": "isActive",
          "type": "bool"
        }
      ],
      "name": "NodeStatusUpdated",
      "type": "event"
    },
    {
      "anonymous": false,
      "inputs": [
        {
          "indexed": true,
          "internalType": "bytes32",
          "name": "role",
          "type": "bytes32"
        },
        {
          "indexed": true,
          "internalType": "bytes32",
          "name": "previousAdminRole",
          "type": "bytes32"
        },
        {
          "indexed": true,
          "internalType": "bytes32",
          "name": "newAdminRole",
          "type": "bytes32"
        }
      ],
      "name": "RoleAdminChanged",
      "type": "event"
    },
    {
      "anonymous": false,
      "inputs": [
        {
          "indexed": true,
          "internalType": "bytes32",
          "name": "role",
          "type": "bytes32"
        },
        {
          "indexed": true,
          "internalType": "address",
          "name": "account",
          "type": "address"
        },
        {
          "indexed": true,
          "internalType": "address",
          "name": "sender",
          "type": "address"
        }
      ],
      "name": "RoleGranted",
      "type": "event"
    },
    {
      "anonymous": false,
      "inputs": [
        {
          "indexed": true,
          "internalType": "bytes32",
          "name": "role",
          "type": "bytes32"
        },
        {
          "indexed": true,
          "internalType": "address",
          "name": "account",
          "type": "address"
        },
        {
          "indexed": true,
          "internalType": "address",
          "name": "sender",
          "type": "address"
        }
      ],
      "name": "RoleRevoked",
      "type": "event"
    },
    {
      "anonymous": false,
      "inputs": [
        {
          "indexed": true,
          "internalType": "address",
          "name": "implementation",
          "type": "address"
        }
      ],
      "name": "Upgraded",
      "type": "event"
    },
    {
      "anonymous": false,
      "inputs": [
        {
          "indexed": true,
          "internalType": "bytes32",
          "name": "userId",
          "type": "bytes32"
        },
        {
          "indexed": true,
          "internalType": "address",
          "name": "owner",
          "type": "address"
        },
        {
          "indexed": false,
          "internalType": "address",
          "name": "staker",
          "type": "address"
        }
      ],
      "name": "UserRegistered",
      "type": "event"
    },
    {
      "inputs": [],
      "name": "DEFAULT_ADMIN_ROLE",
      "outputs": [
        {
          "internalType": "bytes32",
          "name": "",
          "type": "bytes32"
        }
      ],
      "stateMutability": "view",
      "type": "function"
    },
    {
      "inputs": [],
      "name": "UPGRADE_INTERFACE_VERSION",
      "outputs": [
        {
          "internalType": "string",
          "name": "",
          "type": "string"
        }
      ],
      "stateMutability": "view",
      "type": "function"
    },
    {
      "inputs": [
        {
          "internalType": "bytes32",
          "name": "nodeId",
          "type": "bytes32"
        }
      ],
      "name": "getNode",
      "outputs": [
        {
          "components": [
            {
              "internalType": "address",
              "name": "owner",
              "type": "address"
            },
            {
              "internalType": "address",
              "name": "staker",
              "type": "address"
            },
            {
              "internalType": "address",
              "name": "worker",
              "type": "address"
            },
            {
              "internalType": "bytes32[]",
              "name": "trustNamespaces",
              "type": "bytes32[]"
            },
            {
              "internalType": "uint256[]",
              "name": "trustNamespaceExpirations",
              "type": "uint256[]"
            },
            {
              "internalType": "bytes32",
              "name": "nodeNamespaceId",
              "type": "bytes32"
            },
            {
              "internalType": "bool",
              "name": "isActive",
              "type": "bool"
            },
            {
              "internalType": "uint256",
              "name": "stakedAmount",
              "type": "uint256"
            },
            {
              "internalType": "bytes32",
              "name": "id",
              "type": "bytes32"
            }
          ],
          "internalType": "struct INodeManager.NodeData",
          "name": "",
          "type": "tuple"
        }
      ],
      "stateMutability": "view",
      "type": "function"
    },
    {
      "inputs": [
        {
          "internalType": "bytes32",
          "name": "nodeId",
          "type": "bytes32"
        }
      ],
      "name": "getNodeModels",
      "outputs": [
        {
          "internalType": "bytes32[]",
          "name": "",
          "type": "bytes32[]"
        }
      ],
      "stateMutability": "view",
      "type": "function"
    },
    {
      "inputs": [
        {
          "internalType": "bytes32",
          "name": "modelId",
          "type": "bytes32"
        }
      ],
      "name": "getNodesServingModel",
      "outputs": [
        {
          "internalType": "bytes32[]",
          "name": "",
          "type": "bytes32[]"
        }
      ],
      "stateMutability": "view",
      "type": "function"
    },
    {
      "inputs": [
        {
          "internalType": "bytes32",
          "name": "role",
          "type": "bytes32"
        }
      ],
      "name": "getRoleAdmin",
      "outputs": [
        {
          "internalType": "bytes32",
          "name": "",
          "type": "bytes32"
        }
      ],
      "stateMutability": "view",
      "type": "function"
    },
    {
      "inputs": [
        {
          "internalType": "bytes32",
          "name": "role",
          "type": "bytes32"
        },
        {
          "internalType": "address",
          "name": "account",
          "type": "address"
        }
      ],
      "name": "grantRole",
      "outputs": [],
      "stateMutability": "nonpayable",
      "type": "function"
    },
    {
      "inputs": [
        {
          "internalType": "bytes32",
          "name": "role",
          "type": "bytes32"
        },
        {
          "internalType": "address",
          "name": "account",
          "type": "address"
        }
      ],
      "name": "hasRole",
      "outputs": [
        {
          "internalType": "bool",
          "name": "",
          "type": "bool"
        }
      ],
      "stateMutability": "view",
      "type": "function"
    },
    {
      "inputs": [
        {
          "internalType": "address",
          "name": "namespaceManager",
          "type": "address"
        },
        {
          "internalType": "uint256",
          "name": "minStakeAmount_",
          "type": "uint256"
        }
      ],
      "name": "initialize",
      "outputs": [],
      "stateMutability": "nonpayable",
      "type": "function"
    },
    {
      "inputs": [
        {
          "internalType": "bytes32",
          "name": "nodeId",
          "type": "bytes32"
        },
        {
          "internalType": "bytes32",
          "name": "namespaceId",
          "type": "bytes32"
        }
      ],
      "name": "nodeHasTrustNamespace",
      "outputs": [
        {
          "internalType": "bool",
          "name": "",
          "type": "bool"
        }
      ],
      "stateMutability": "view",
      "type": "function"
    },
    {
      "inputs": [
        {
          "internalType": "bytes32",
          "name": "nodeId",
          "type": "bytes32"
        },
        {
          "internalType": "bytes32",
          "name": "modelId",
          "type": "bytes32"
        }
      ],
      "name": "nodeServesModel",
      "outputs": [
        {
          "internalType": "bool",
          "name": "",
          "type": "bool"
        }
      ],
      "stateMutability": "view",
      "type": "function"
    },
    {
      "inputs": [
        {
          "internalType": "bytes32",
          "name": "nodeId",
          "type": "bytes32"
        },
        {
          "internalType": "bytes32",
          "name": "namespaceId",
          "type": "bytes32"
        }
      ],
      "name": "nodeTrustNamespaceExpiration",
      "outputs": [
        {
          "internalType": "uint256",
          "name": "",
          "type": "uint256"
        }
      ],
      "stateMutability": "view",
      "type": "function"
    },
    {
      "inputs": [],
      "name": "proxiableUUID",
      "outputs": [
        {
          "internalType": "bytes32",
          "name": "",
          "type": "bytes32"
        }
      ],
      "stateMutability": "view",
      "type": "function"
    },
    {
      "inputs": [
        {
          "internalType": "string",
          "name": "username",
          "type": "string"
        },
        {
          "internalType": "string",
          "name": "nodeName",
          "type": "string"
        },
        {
          "internalType": "address",
          "name": "worker",
          "type": "address"
        }
      ],
      "name": "registerNode",
      "outputs": [],
      "stateMutability": "payable",
      "type": "function"
    },
    {
      "inputs": [
        {
          "internalType": "string",
          "name": "username",
          "type": "string"
        },
        {
          "internalType": "address",
          "name": "staker",
          "type": "address"
        }
      ],
      "name": "registerUser",
      "outputs": [],
      "stateMutability": "nonpayable",
      "type": "function"
    },
    {
      "inputs": [
        {
          "internalType": "bytes32",
          "name": "nodeId",
          "type": "bytes32"
        },
        {
          "internalType": "bytes32[]",
          "name": "modelIds",
          "type": "bytes32[]"
        }
      ],
      "name": "removeModelsFromNode",
      "outputs": [],
      "stateMutability": "nonpayable",
      "type": "function"
    },
    {
      "inputs": [
        {
          "internalType": "bytes32",
          "name": "role",
          "type": "bytes32"
        },
        {
          "internalType": "address",
          "name": "callerConfirmation",
          "type": "address"
        }
      ],
      "name": "renounceRole",
      "outputs": [],
      "stateMutability": "nonpayable",
      "type": "function"
    },
    {
      "inputs": [
        {
          "internalType": "bytes32",
          "name": "role",
          "type": "bytes32"
        },
        {
          "internalType": "address",
          "name": "account",
          "type": "address"
        }
      ],
      "name": "revokeRole",
      "outputs": [],
      "stateMutability": "nonpayable",
      "type": "function"
    },
    {
      "inputs": [
        {
          "internalType": "bytes32",
          "name": "nodeId",
          "type": "bytes32"
        },
        {
          "internalType": "bytes32[]",
          "name": "modelIds",
          "type": "bytes32[]"
        }
      ],
      "name": "setNodeModels",
      "outputs": [],
      "stateMutability": "nonpayable",
      "type": "function"
    },
    {
      "inputs": [
        {
          "internalType": "bytes32",
          "name": "nodeId",
          "type": "bytes32"
        },
        {
          "internalType": "bool",
          "name": "isActive",
          "type": "bool"
        }
      ],
      "name": "setNodeStatus",
      "outputs": [],
      "stateMutability": "nonpayable",
      "type": "function"
    },
    {
      "inputs": [
        {
          "internalType": "bytes4",
          "name": "interfaceId",
          "type": "bytes4"
        }
      ],
      "name": "supportsInterface",
      "outputs": [
        {
          "internalType": "bool",
          "name": "",
          "type": "bool"
        }
      ],
      "stateMutability": "view",
      "type": "function"
    },
    {
      "inputs": [
        {
          "internalType": "bytes32",
          "name": "nodeId",
          "type": "bytes32"
        },
        {
          "internalType": "string[]",
          "name": "namespaces",
          "type": "string[]"
        },
        {
          "internalType": "uint256[]",
          "name": "namespaceExpirations",
          "type": "uint256[]"
        },
        {
          "internalType": "bytes[]",
          "name": "namespaceSignatures",
          "type": "bytes[]"
        }
      ],
      "name": "updateNodeNamespaces",
      "outputs": [],
      "stateMutability": "nonpayable",
      "type": "function"
    },
    {
      "inputs": [
        {
          "internalType": "address",
          "name": "newImplementation",
          "type": "address"
        },
        {
          "internalType": "bytes",
          "name": "data",
          "type": "bytes"
        }
      ],
      "name": "upgradeToAndCall",
      "outputs": [],
      "stateMutability": "payable",
      "type": "function"
    }
  ],
  "bytecode": "0x60a060405230608052348015601357600080fd5b506080516131da61003d60003960008181611b7801528181611ba10152611d4301526131da6000f3fe6080604052600436106101405760003560e01c806352d1902d116100b6578063ad3cb1cc1161006f578063ad3cb1cc146103ab578063c400c197146103e9578063cd6dc68714610409578063d547741f14610429578063dd55b00c14610449578063ede0e015146104a357600080fd5b806352d1902d146103015780635a641d321461031657806370d271b51461033657806388d448961461035657806391d1485414610376578063a217fddf1461039657600080fd5b80632f2ff15d116101085780632f2ff15d1461023457806336568abe146102545780633cce4b5f14610274578063416b26df146102a15780634f1ef286146102c157806350c946fe146102d457600080fd5b806301ffc9a7146101455780630e54b8721461017a5780631e892ccf1461019c578063248a9ca3146102015780632b764a3114610221575b600080fd5b34801561015157600080fd5b506101656101603660046126d5565b6104fd565b60405190151581526020015b60405180910390f35b34801561018657600080fd5b5061019a6101953660046127c2565b610534565b005b3480156101a857600080fd5b506101f36101b7366004612813565b60009182527ff1d8a1fbd219fcf17256caa0b8a67d409449fa7722eca5860c9b170f56e733076020908152604080842092845291905290205490565b604051908152602001610171565b34801561020d57600080fd5b506101f361021c366004612835565b6107d2565b61019a61022f36600461284e565b6107f4565b34801561024057600080fd5b5061019a61024f3660046128c9565b610b68565b34801561026057600080fd5b5061019a61026f3660046128c9565b610b8a565b34801561028057600080fd5b5061029461028f366004612835565b610bc2565b60405161017191906128ee565b3480156102ad57600080fd5b506102946102bc366004612835565b610c43565b61019a6102cf366004612931565b610cc2565b3480156102e057600080fd5b506102f46102ef366004612835565b610ce1565b60405161017191906129d0565b34801561030d57600080fd5b506101f3610e58565b34801561032257600080fd5b5061019a610331366004612ae1565b610e75565b34801561034257600080fd5b5061019a610351366004612ae1565b61117f565b34801561036257600080fd5b5061019a610371366004612b2c565b611489565b34801561038257600080fd5b506101656103913660046128c9565b61155b565b3480156103a257600080fd5b506101f3600081565b3480156103b757600080fd5b506103dc604051806040016040528060058152602001640352e302e360dc1b81525081565b6040516101719190612ba6565b3480156103f557600080fd5b5061019a610404366004612bb9565b611593565b34801561041557600080fd5b5061019a610424366004612c66565b611858565b34801561043557600080fd5b5061019a6104443660046128c9565b61199b565b34801561045557600080fd5b50610165610464366004612813565b60009182527ff1d8a1fbd219fcf17256caa0b8a67d409449fa7722eca5860c9b170f56e733066020908152604080842092845291905290205460ff1690565b3480156104af57600080fd5b506101656104be366004612813565b60009182527ff1d8a1fbd219fcf17256caa0b8a67d409449fa7722eca5860c9b170f56e733086020908152604080842092845291905290205460ff1690565b60006001600160e01b03198216637965db0b60e01b148061052e57506301ffc9a760e01b6001600160e01b03198316145b92915050565b60405160008051602061312583398151915290600090610558908590602001612c92565b604051602081830303815290604052805190602001209050816001016000828152602001908152602001600020805461059090612cae565b1590506105da5760405162461bcd60e51b81526020600482015260136024820152725573657220616c72656164792065786973747360681b60448201526064015b60405180910390fd5b6000846040516020016105ed9190612ce8565b60405160208183030381529060405290506000856040516020016106119190612d15565b60405160208183030381529060405290506000866040516020016106359190612d48565b60408051601f19818403018152908290528654634b4fc53560e11b83529092506001600160a01b03169063969f8a6a906106759086903390600401612d79565b600060405180830381600087803b15801561068f57600080fd5b505af11580156106a3573d6000803e3d6000fd5b50508654604051634b4fc53560e11b81526001600160a01b03909116925063969f8a6a91506106d89085903390600401612d79565b600060405180830381600087803b1580156106f257600080fd5b505af1158015610706573d6000803e3d6000fd5b50508654604051634b4fc53560e11b81526001600160a01b03909116925063969f8a6a915061073b9084903390600401612d79565b600060405180830381600087803b15801561075557600080fd5b505af1158015610769573d6000803e3d6000fd5b5050506000858152600187016020526040902090506107888882612df1565b506040516001600160a01b0387168152339085907f0f0edefceab8e3cdf9b415b2ebc81cd912885ac2a40f021cb5fd2fc2f7ab76ac9060200160405180910390a350505050505050565b6000908152600080516020613165833981519152602052604090206001015490565b60405160008051602061312583398151915290600090610818908690602001612ce8565b60405160208183030381529060405290506000818560405160200161083e929190612eaf565b60405160208183030381529060405290506000826040516020016108629190612c92565b60405160208183030381529060405280519060200120905060008260405160200161088d9190612c92565b6040516020818303038152906040528051906020012090506108ae836119b7565b6108de6040518060400160405280600f81526020016e1b9bd91953985b595cdc1858d95259608a1b8152506119b7565b6108e7816119fd565b60008181526002860160205260409020546001600160a01b0316156109445760405162461bcd60e51b81526020600482015260136024820152724e6f646520616c72656164792065786973747360681b60448201526064016105d1565b8454604051633529e71d60e11b81526004810184905233916001600160a01b031690636a53ce3a90602401602060405180830381865afa15801561098c573d6000803e3d6000fd5b505050506040513d601f19601f820116820180604052508101906109b09190612eeb565b6001600160a01b0316146109fc5760405162461bcd60e51b81526020600482015260136024820152722737ba103730b6b2b9b830b1b29037bbb732b960691b60448201526064016105d1565b60408051610120810182523380825260208083019182526001600160a01b038a81168486019081528551600080825281850188526060870191825287518181528086018952608088015260a08701899052600160c088018190523460e089015261010088018a905289825260028e8101875298909120875181549086166001600160a01b0319918216178255965191810180549286169288169290921790915591519682018054979093169690941695909517905590518051929392610ac8926003850192019061265b565b5060808201518051610ae491600484019160209091019061265b565b5060a0820151600582015560c082015160068201805460ff191691151591909117905560e08201516007820155610100909101516008909101556040516001600160a01b0387168152339082907fcd94d968f34587266f0b6cc2cae4eea2be9e79a2d13cd3da7f8a24a8d6efef889060200160405180910390a35050505050505050565b610b71826107d2565b610b7a81611a42565b610b848383611a4c565b50505050565b6001600160a01b0381163314610bb35760405163334bd91960e11b815260040160405180910390fd5b610bbd8282611af1565b505050565b60008181527ff1d8a1fbd219fcf17256caa0b8a67d409449fa7722eca5860c9b170f56e733036020908152604091829020805483518184028101840190945280845260609392830182828015610c3757602002820191906000526020600020905b815481526020019060010190808311610c23575b50505050509050919050565b60008181527ff1d8a1fbd219fcf17256caa0b8a67d409449fa7722eca5860c9b170f56e733056020908152604091829020805483518184028101840190945280845260609392830182828015610c375760200282019190600052602060002090815481526020019060010190808311610c235750505050509050919050565b610cca611b6d565b610cd382611c14565b610cdd8282611c7b565b5050565b6040805161012080820183526000808352602080840182905283850182905260608085018190526080850181905260a0850183905260c0850183905260e0850183905261010085018390528683526000805160206131858339815191528252918590208551938401865280546001600160a01b03908116855260018201548116858401526002820154168487015260038101805487518185028101850190985280885295969195938501939192909190830182828015610dc057602002820191906000526020600020905b815481526020019060010190808311610dac575b5050505050815260200182600401805480602002602001604051908101604052809291908181526020018280548015610e1857602002820191906000526020600020905b815481526020019060010190808311610e04575b505050918352505060058301546020820152600683015460ff16151560408201526007830154606082015260089092015460809092019190915292915050565b6000610e62611d38565b5060008051602061314583398151915290565b60008381526000805160206131858339815191526020526040902054600080516020613125833981519152906001600160a01b03163314610ee95760405162461bcd60e51b815260206004820152600e60248201526d2737ba103737b2329037bbb732b960911b60448201526064016105d1565b60008481526003820160205260408120905b8381101561113f576000858583818110610f1757610f17612f08565b60008a81526008880160209081526040808320938202959095013580835292905292909220549192505060ff16610f905760405162461bcd60e51b815260206004820152601a60248201527f4d6f64656c206e6f742061737369676e656420746f206e6f646500000000000060448201526064016105d1565b600087815260088501602090815260408083208484528252808320805460ff199081169091556004880183528184208b8552835281842080549091169055838352600587019091528120905b81548110156110865788828281548110610ff857610ff8612f08565b90600052602060002001540361107e578154829061101890600190612f34565b8154811061102857611028612f08565b906000526020600020015482828154811061104557611045612f08565b90600052602060002001819055508180548061106357611063612f47565b60019003818190600052602060002001600090559055611086565b600101610fdc565b5060005b845481101561113457828582815481106110a6576110a6612f08565b90600052602060002001540361112c57845485906110c690600190612f34565b815481106110d6576110d6612f08565b90600052602060002001548582815481106110f3576110f3612f08565b90600052602060002001819055508480548061111157611111612f47565b60019003818190600052602060002001600090559055611134565b60010161108a565b505050600101610efb565b50847f0eae3b28f5733d08492d71ca3c0c9636a95ad4e99a67358eccf608921aacbb8b826040516111709190612f5d565b60405180910390a25050505050565b60008381526000805160206131858339815191526020526040902054600080516020613125833981519152906001600160a01b031633146111f35760405162461bcd60e51b815260206004820152600e60248201526d2737ba103737b2329037bbb732b960911b60448201526064016105d1565b600084815260028201602052604090206006015460ff1661124b5760405162461bcd60e51b81526020600482015260126024820152714e6f6465206973206e6f742061637469766560701b60448201526064016105d1565b60008481526003820160205260408120905b815481101561138857600082828154811061127a5761127a612f08565b600091825260208083209091015489835260088701825260408084208285528352808420805460ff199081169091556004890184528185208c865284528185208054909116905581845260058801909252908220909250905b815481101561137d57888282815481106112ef576112ef612f08565b906000526020600020015403611375578154829061130f90600190612f34565b8154811061131f5761131f612f08565b906000526020600020015482828154811061133c5761133c612f08565b90600052602060002001819055508180548061135a5761135a612f47565b6001900381819060005260206000200160009055905561137d565b6001016112d3565b50505060010161125d565b50600085815260038301602052604081206113a2916126a6565b60005b838110156114565760008585838181106113c1576113c1612f08565b60008a815260038801602090815260408083208054600181810183559185528385209584029790970135949096018490558c835260088a0182528083208484528252808320805460ff19908116881790915560048b0183528184208e855283528184208054909116871790559282526005890181529181208054808601825590825291902001899055509190910190506113a5565b50847f0eae3b28f5733d08492d71ca3c0c9636a95ad4e99a67358eccf608921aacbb8b8585604051611170929190612f98565b60008281526000805160206131858339815191526020526040902054600080516020613125833981519152906001600160a01b031633146114fe5760405162461bcd60e51b815260206004820152600f60248201526e2737ba103737b2329039ba30b5b2b960891b60448201526064016105d1565b6000838152600282016020908152604091829020600601805460ff1916851515908117909155915191825284917fed2bf659025c6e41a9002b0f00cdfb398811c6fde9a8b71a04b6180ab7023a25910160405180910390a2505050565b6000918252600080516020613165833981519152602090815260408084206001600160a01b0393909316845291905290205460ff1690565b60008781526000805160206131858339815191526020526040902060010154600080516020613125833981519152906001600160a01b0316331461160b5760405162461bcd60e51b815260206004820152600f60248201526e2737ba103737b2329039ba30b5b2b960891b60448201526064016105d1565b85821461165a5760405162461bcd60e51b815260206004820152601960248201527f496e76616c6964207369676e617475726573206c656e6774680000000000000060448201526064016105d1565b61166388611d81565b60005b8681101561181357600061172d8a8a8a8581811061168657611686612f08565b90506020028101906116989190612fd1565b8080601f0160208091040260200160405190810160405280939291908181526020018383808284376000920191909152508a92508991508790508181106116e1576116e1612f08565b90506020028101906116f39190612fd1565b8080601f016020809104026020016040519081016040528093929190818152602001838380828437600092019190915250611e5892505050565b905061180a8a8289898681811061174657611746612f08565b905060200201356000838152600080516020613185833981519152602090815260408083206003810180546001808201835591865284862001879055600490910180548083018255908552838520018590558684527ff1d8a1fbd219fcf17256caa0b8a67d409449fa7722eca5860c9b170f56e7330683528184208685528352818420805460ff191690911790559482527ff1d8a1fbd219fcf17256caa0b8a67d409449fa7722eca5860c9b170f56e7330781528482209382529290925291902055565b50600101611666565b50877f5d5eaf3328741f490f94e06c9f41c57e6387252c6bf92913a6bce82a0667bfdf8888604051611846929190613040565b60405180910390a25050505050505050565b600061186261211c565b805490915060ff600160401b82041615906001600160401b03166000811580156118895750825b90506000826001600160401b031660011480156118a55750303b155b9050811580156118b3575080155b156118d15760405163f92ee8a960e01b815260040160405180910390fd5b845467ffffffffffffffff1916600117855583156118fb57845460ff60401b1916600160401b1785555b611903612145565b61190b61214d565b611915878761215d565b611920600033611a4c565b5061194b7fb19546dff01e856fb3f010c267a7b1c60363cf8a4664e21cc89c26224620214e33611a4c565b50831561199257845460ff60401b19168555604051600181527fc7f505b2f371ae2175ee4913f4499e1f2633a7b5936321eed1cdaeb6115181d29060200160405180910390a15b50505050505050565b6119a4826107d2565b6119ad81611a42565b610b848383611af1565b6119fa816040516024016119cb9190612ba6565b60408051601f198184030181529190526020810180516001600160e01b031663104c13eb60e21b1790526121b7565b50565b6119fa81604051602401611a1391815260200190565b60408051601f198184030181529190526020810180516001600160e01b03166327b7cf8560e01b1790526121b7565b6119fa81336121c0565b6000600080516020613165833981519152611a67848461155b565b611ae7576000848152602082815260408083206001600160a01b03871684529091529020805460ff19166001179055611a9d3390565b6001600160a01b0316836001600160a01b0316857f2f8788117e7eff1d82e926ec794901d17c78024a50270940304540a733656f0d60405160405180910390a4600191505061052e565b600091505061052e565b6000600080516020613165833981519152611b0c848461155b565b15611ae7576000848152602082815260408083206001600160a01b0387168085529252808320805460ff1916905551339287917ff6391f5c32d9c69d2a47ea670b442974b53935d1edc7fd64eb21e047a839171b9190a4600191505061052e565b306001600160a01b037f0000000000000000000000000000000000000000000000000000000000000000161480611bf457507f00000000000000000000000000000000000000000000000000000000000000006001600160a01b0316611be8600080516020613145833981519152546001600160a01b031690565b6001600160a01b031614155b15611c125760405163703e46dd60e11b815260040160405180910390fd5b565b611c3e7fb19546dff01e856fb3f010c267a7b1c60363cf8a4664e21cc89c26224620214e3361155b565b6119fa5760405162461bcd60e51b815260206004820152600e60248201526d139bdd08185d5d1a1bdc9a5e995960921b60448201526064016105d1565b816001600160a01b03166352d1902d6040518163ffffffff1660e01b8152600401602060405180830381865afa925050508015611cd5575060408051601f3d908101601f19168201909252611cd2918101906130e2565b60015b611cfd57604051634c9c8ce360e01b81526001600160a01b03831660048201526024016105d1565b6000805160206131458339815191528114611d2e57604051632a87526960e21b8152600481018290526024016105d1565b610bbd83836121f9565b306001600160a01b037f00000000000000000000000000000000000000000000000000000000000000001614611c125760405163703e46dd60e11b815260040160405180910390fd5b600081815260008051602061318583398151915260205260408120600080516020613125833981519152916003909101905b8154811015611e19576000828281548110611dd057611dd0612f08565b600091825260208083209091015487835260068701825260408084208285528352808420805460ff19169055888452600788018352808420918452915281205550600101611db3565b5060008381526002830160205260408120611e39916003909101906126a6565b60008381526002830160205260408120610bbd916004909101906126a6565b60008083604051602001611e6c9190612c92565b6040516020818303038152906040528051906020012090506000611e9b60008051602061312583398151915290565b54604051633529e71d60e11b8152600481018490526001600160a01b0390911690636a53ce3a90602401602060405180830381865afa158015611ee2573d6000803e3d6000fd5b505050506040513d601f19601f82011682018060405250810190611f069190612eeb565b90506001600160a01b038116611f5e5760405162461bcd60e51b815260206004820152601860248201527f4e616d65737061636520646f6573206e6f74206578697374000000000000000060448201526064016105d1565b60007fb59cd2aa2be6c2d9ca017765cc959485d18c4a6da40e0d85880b6c4a9e72b03e878780519060200120426301e13380611f9a91906130fb565b6040805160208101959095528401929092526060830152608082015260a00160408051601f1981840301815282825280516020918201207f8b73c3c69bb8fe3d512ecc4cf759cc79239f7b179b0ffacaa9a75d522b39400f918401919091527faedc9e7c9871efcbcbd95d49d17e4c3cf7cab8e8a62f1f22d4ba0c03840f2d61918301919091527fc89efdaa54c0f20c7adf612882df0950f5a951637e0307cdcb4c672f298b8bc660608301524660808301523060a0830152915060009060c00160408051601f1981840301815290829052805160209182012061190160f01b9183019190915260228201526042810183905260620160408051601f198184030181529190528051602090910120905060006120b6828861224f565b9050836001600160a01b0316816001600160a01b03161461210d5760405162461bcd60e51b8152602060048201526011602482015270496e76616c6964207369676e617475726560781b60448201526064016105d1565b509293505050505b9392505050565b6000807ff0c57e16840df040f15088dc2f81fe391c3923bec73e23a9662efc9c229c6a0061052e565b611c12612279565b612155612279565b611c1261229e565b612165612279565b60008051602061312583398151915280546001600160a01b0319166001600160a01b0393909316929092179091557ff1d8a1fbd219fcf17256caa0b8a67d409449fa7722eca5860c9b170f56e7330955565b6119fa816122cc565b6121ca828261155b565b610cdd5760405163e2517d3f60e01b81526001600160a01b0382166004820152602481018390526044016105d1565b612202826122ed565b6040516001600160a01b038316907fbc7cd75a20ee27fd9adebab32041f755214dbc6bffa90cc0225b39da2e5c2d3b90600090a280511561224757610bbd8282612352565b610cdd6123c8565b60008060008061225f86866123e7565b92509250925061226f8282612434565b5090949350505050565b6122816124ed565b611c1257604051631afcd79f60e31b815260040160405180910390fd5b6122a6612279565b60017f9b779b17422d0df92223018b32b4d1fa46e071723d6817e2486d003becc55f0055565b60006a636f6e736f6c652e6c6f679050600080835160208501845afa505050565b806001600160a01b03163b60000361232357604051634c9c8ce360e01b81526001600160a01b03821660048201526024016105d1565b60008051602061314583398151915280546001600160a01b0319166001600160a01b0392909216919091179055565b6060600080846001600160a01b03168460405161236f9190612c92565b600060405180830381855af49150503d80600081146123aa576040519150601f19603f3d011682016040523d82523d6000602084013e6123af565b606091505b50915091506123bf858383612507565b95945050505050565b3415611c125760405163b398979f60e01b815260040160405180910390fd5b600080600083516041036124215760208401516040850151606086015160001a61241388828585612563565b95509550955050505061242d565b50508151600091506002905b9250925092565b60008260038111156124485761244861310e565b03612451575050565b60018260038111156124655761246561310e565b036124835760405163f645eedf60e01b815260040160405180910390fd5b60028260038111156124975761249761310e565b036124b85760405163fce698f760e01b8152600481018290526024016105d1565b60038260038111156124cc576124cc61310e565b03610cdd576040516335e2f38360e21b8152600481018290526024016105d1565b60006124f761211c565b54600160401b900460ff16919050565b60608261251c5761251782612632565b612115565b815115801561253357506001600160a01b0384163b155b1561255c57604051639996b31560e01b81526001600160a01b03851660048201526024016105d1565b5080612115565b600080807f7fffffffffffffffffffffffffffffff5d576e7357a4501ddfe92f46681b20a084111561259e5750600091506003905082612628565b604080516000808252602082018084528a905260ff891692820192909252606081018790526080810186905260019060a0016020604051602081039080840390855afa1580156125f2573d6000803e3d6000fd5b5050604051601f1901519150506001600160a01b03811661261e57506000925060019150829050612628565b9250600091508190505b9450945094915050565b8051156126425780518082602001fd5b60405163d6bda27560e01b815260040160405180910390fd5b828054828255906000526020600020908101928215612696579160200282015b8281111561269657825182559160200191906001019061267b565b506126a29291506126c0565b5090565b50805460008255906000526020600020908101906119fa91905b5b808211156126a257600081556001016126c1565b6000602082840312156126e757600080fd5b81356001600160e01b03198116811461211557600080fd5b634e487b7160e01b600052604160045260246000fd5b6000806001600160401b0384111561272f5761272f6126ff565b50604051601f19601f85018116603f011681018181106001600160401b038211171561275d5761275d6126ff565b60405283815290508082840185101561277557600080fd5b83836020830137600060208583010152509392505050565b600082601f83011261279e57600080fd5b61211583833560208501612715565b6001600160a01b03811681146119fa57600080fd5b600080604083850312156127d557600080fd5b82356001600160401b038111156127eb57600080fd5b6127f78582860161278d565b9250506020830135612808816127ad565b809150509250929050565b6000806040838503121561282657600080fd5b50508035926020909101359150565b60006020828403121561284757600080fd5b5035919050565b60008060006060848603121561286357600080fd5b83356001600160401b0381111561287957600080fd5b6128858682870161278d565b93505060208401356001600160401b038111156128a157600080fd5b6128ad8682870161278d565b92505060408401356128be816127ad565b809150509250925092565b600080604083850312156128dc57600080fd5b823591506020830135612808816127ad565b602080825282518282018190526000918401906040840190835b81811015612926578351835260209384019390920191600101612908565b509095945050505050565b6000806040838503121561294457600080fd5b823561294f816127ad565b915060208301356001600160401b0381111561296a57600080fd5b8301601f8101851361297b57600080fd5b61298a85823560208401612715565b9150509250929050565b600081518084526020840193506020830160005b828110156129c65781518652602095860195909101906001016129a8565b5093949350505050565b602081526129ea6020820183516001600160a01b03169052565b60006020830151612a0660408401826001600160a01b03169052565b5060408301516001600160a01b03811660608401525060608301516101206080840152612a37610140840182612994565b90506080840151601f198483030160a0850152612a548282612994565b91505060a084015160c084015260c0840151612a7460e085018215159052565b5060e08401516101008401526101008401516101208401528091505092915050565b60008083601f840112612aa857600080fd5b5081356001600160401b03811115612abf57600080fd5b6020830191508360208260051b8501011115612ada57600080fd5b9250929050565b600080600060408486031215612af657600080fd5b8335925060208401356001600160401b03811115612b1357600080fd5b612b1f86828701612a96565b9497909650939450505050565b60008060408385031215612b3f57600080fd5b823591506020830135801515811461280857600080fd5b60005b83811015612b71578181015183820152602001612b59565b50506000910152565b60008151808452612b92816020860160208601612b56565b601f01601f19169290920160200192915050565b6020815260006121156020830184612b7a565b60008060008060008060006080888a031215612bd457600080fd5b8735965060208801356001600160401b03811115612bf157600080fd5b612bfd8a828b01612a96565b90975095505060408801356001600160401b03811115612c1c57600080fd5b612c288a828b01612a96565b90955093505060608801356001600160401b03811115612c4757600080fd5b612c538a828b01612a96565b989b979a50959850939692959293505050565b60008060408385031215612c7957600080fd5b8235612c84816127ad565b946020939093013593505050565b60008251612ca4818460208701612b56565b9190910192915050565b600181811c90821680612cc257607f821691505b602082108103612ce257634e487b7160e01b600052602260045260246000fd5b50919050565b643737b2329760d91b815260008251612d08816005850160208701612b56565b9190910160050192915050565b6a36b7b232b6173737b2329760a91b815260008251612d3b81600b850160208701612b56565b91909101600b0192915050565b6830b834973737b2329760b91b815260008251612d6c816009850160208701612b56565b9190910160090192915050565b604081526000612d8c6040830185612b7a565b905060018060a01b03831660208301529392505050565b601f821115610bbd57806000526020600020601f840160051c81016020851015612dca5750805b601f840160051c820191505b81811015612dea5760008155600101612dd6565b5050505050565b81516001600160401b03811115612e0a57612e0a6126ff565b612e1e81612e188454612cae565b84612da3565b6020601f821160018114612e525760008315612e3a5750848201515b600019600385901b1c1916600184901b178455612dea565b600084815260208120601f198516915b82811015612e825787850151825560209485019460019092019101612e62565b5084821015612ea05786840151600019600387901b60f8161c191681555b50505050600190811b01905550565b60008351612ec1818460208801612b56565b601760f91b9083019081528351612edf816001840160208801612b56565b01600101949350505050565b600060208284031215612efd57600080fd5b8151612115816127ad565b634e487b7160e01b600052603260045260246000fd5b634e487b7160e01b600052601160045260246000fd5b8181038181111561052e5761052e612f1e565b634e487b7160e01b600052603160045260246000fd5b602080825282548282018190526000848152918220906040840190835b81811015612926578354835260019384019360209093019201612f7a565b6020808252810182905260006001600160fb1b03831115612fb857600080fd5b8260051b80856040850137919091016040019392505050565b6000808335601e19843603018112612fe857600080fd5b8301803591506001600160401b0382111561300257600080fd5b602001915036819003821315612ada57600080fd5b81835281816020850137506000828201602090810191909152601f909101601f19169091010190565b6020808252810182905260006040600584901b830181019083018583601e1936839003015b878210156130d557868503603f19018452823581811261308457600080fd5b89016020810190356001600160401b038111156130a057600080fd5b8036038213156130af57600080fd5b6130ba878284613017565b96505050602083019250602084019350600182019150613065565b5092979650505050505050565b6000602082840312156130f457600080fd5b5051919050565b8082018082111561052e5761052e612f1e565b634e487b7160e01b600052602160045260246000fdfef1d8a1fbd219fcf17256caa0b8a67d409449fa7722eca5860c9b170f56e73300360894a13ba1a3210667c828492db98dca3e2076cc3735a920a3ca505d382bbc02dd7bc7dec4dceedda775e58dd541e08a116c6c53815c0bd028192f7b626800f1d8a1fbd219fcf17256caa0b8a67d409449fa7722eca5860c9b170f56e73302a26469706673582212201986c62538fbd29e17b527c0a0cbd573aeb8a16b22c2c67a270804daab682eba64736f6c634300081c0033",
  "linkReferences": {},
  "deployedLinkReferences": {}
}