{
  "_format": "hh-sol-artifact-1",
  "contractName": "NamespaceManager",
  "sourceName": "contracts/core/namespace-manager.sol",
  "abi": [
    {
      "inputs": [],
      "stateMutability": "nonpayable",
      "type": "constructor"
    },
    {
      "inputs": [
        {
          "internalType": "address",
          "name": "target",
          "type": "address"
        }
      ],
      "name": "AddressEmptyCode",
      "type": "error"
    },
    {
      "inputs": [
        {
          "internalType": "address",
          "name": "implementation",
          "type": "address"
        }
      ],
      "name": "ERC1967InvalidImplementation",
      "type": "error"
    },
    {
      "inputs": [],
      "name": "ERC1967NonPayable",
      "type": "error"
    },
    {
      "inputs": [],
      "name": "FailedCall",
      "type": "error"
    },
    {
      "inputs": [],
      "name": "InvalidInitialization",
      "type": "error"
    },
    {
      "inputs": [
        {
          "internalType": "address",
          "name": "_dtnContract",
          "type": "address"
        }
      ],
      "name": "NotDtnContract",
      "type": "error"
    },
    {
      "inputs": [],
      "name": "NotInitializing",
      "type": "error"
    },
    {
      "inputs": [
        {
          "internalType": "address",
          "name": "owner",
          "type": "address"
        }
      ],
      "name": "OwnableInvalidOwner",
      "type": "error"
    },
    {
      "inputs": [
        {
          "internalType": "address",
          "name": "account",
          "type": "address"
        }
      ],
      "name": "OwnableUnauthorizedAccount",
      "type": "error"
    },
    {
      "inputs": [],
      "name": "UUPSUnauthorizedCallContext",
      "type": "error"
    },
    {
      "inputs": [
        {
          "internalType": "bytes32",
          "name": "slot",
          "type": "bytes32"
        }
      ],
      "name": "UUPSUnsupportedProxiableUUID",
      "type": "error"
    },
    {
      "anonymous": false,
      "inputs": [
        {
          "indexed": false,
          "internalType": "uint64",
          "name": "version",
          "type": "uint64"
        }
      ],
      "name": "Initialized",
      "type": "event"
    },
    {
      "anonymous": false,
      "inputs": [
        {
          "indexed": true,
          "internalType": "string",
          "name": "namespace",
          "type": "string"
        },
        {
          "indexed": true,
          "internalType": "bytes32",
          "name": "namespaceId",
          "type": "bytes32"
        },
        {
          "indexed": true,
          "internalType": "address",
          "name": "owner",
          "type": "address"
        }
      ],
      "name": "NamespaceRegistered",
      "type": "event"
    },
    {
      "anonymous": false,
      "inputs": [
        {
          "indexed": true,
          "internalType": "address",
          "name": "previousOwner",
          "type": "address"
        },
        {
          "indexed": true,
          "internalType": "address",
          "name": "newOwner",
          "type": "address"
        }
      ],
      "name": "OwnershipTransferred",
      "type": "event"
    },
    {
      "anonymous": false,
      "inputs": [
        {
          "indexed": true,
          "internalType": "address",
          "name": "implementation",
          "type": "address"
        }
      ],
      "name": "Upgraded",
      "type": "event"
    },
    {
      "inputs": [],
      "name": "UPGRADE_INTERFACE_VERSION",
      "outputs": [
        {
          "internalType": "string",
          "name": "",
          "type": "string"
        }
      ],
      "stateMutability": "view",
      "type": "function"
    },
    {
      "inputs": [
        {
          "internalType": "address[]",
          "name": "_dtnContracts",
          "type": "address[]"
        }
      ],
      "name": "addDtnContracts",
      "outputs": [],
      "stateMutability": "nonpayable",
      "type": "function"
    },
    {
      "inputs": [
        {
          "internalType": "bytes32",
          "name": "namespaceId",
          "type": "bytes32"
        }
      ],
      "name": "getNamespaceOwner",
      "outputs": [
        {
          "internalType": "address",
          "name": "",
          "type": "address"
        }
      ],
      "stateMutability": "view",
      "type": "function"
    },
    {
      "inputs": [
        {
          "internalType": "address",
          "name": "_owner",
          "type": "address"
        }
      ],
      "name": "initialize",
      "outputs": [],
      "stateMutability": "nonpayable",
      "type": "function"
    },
    {
      "inputs": [],
      "name": "owner",
      "outputs": [
        {
          "internalType": "address",
          "name": "",
          "type": "address"
        }
      ],
      "stateMutability": "view",
      "type": "function"
    },
    {
      "inputs": [],
      "name": "proxiableUUID",
      "outputs": [
        {
          "internalType": "bytes32",
          "name": "",
          "type": "bytes32"
        }
      ],
      "stateMutability": "view",
      "type": "function"
    },
    {
      "inputs": [
        {
          "internalType": "string",
          "name": "namespace",
          "type": "string"
        },
        {
          "internalType": "address",
          "name": "owner",
          "type": "address"
        }
      ],
      "name": "registerNamespace",
      "outputs": [],
      "stateMutability": "nonpayable",
      "type": "function"
    },
    {
      "inputs": [
        {
          "internalType": "address",
          "name": "_dtnContract",
          "type": "address"
        }
      ],
      "name": "removeDtnContracts",
      "outputs": [],
      "stateMutability": "nonpayable",
      "type": "function"
    },
    {
      "inputs": [],
      "name": "renounceOwnership",
      "outputs": [],
      "stateMutability": "nonpayable",
      "type": "function"
    },
    {
      "inputs": [
        {
          "internalType": "address",
          "name": "newOwner",
          "type": "address"
        }
      ],
      "name": "transferOwnership",
      "outputs": [],
      "stateMutability": "nonpayable",
      "type": "function"
    },
    {
      "inputs": [
        {
          "internalType": "address",
          "name": "newImplementation",
          "type": "address"
        },
        {
          "internalType": "bytes",
          "name": "data",
          "type": "bytes"
        }
      ],
      "name": "upgradeToAndCall",
      "outputs": [],
      "stateMutability": "payable",
      "type": "function"
    }
  ],
  "bytecode": "0x60a060405230608052348015601357600080fd5b506080516112a261003d600039600081816107480152818161077101526108b201526112a26000f3fe60806040526004361061009b5760003560e01c80638da5cb5b116100645780638da5cb5b1461017f5780638f05ddc2146101bc578063969f8a6a146101dc578063ad3cb1cc146101fc578063c4d66de81461023a578063f2fde38b1461025a57600080fd5b8062410355146100a05780634f1ef286146100c257806352d1902d146100d55780636a53ce3a146100fd578063715018a61461016a575b600080fd5b3480156100ac57600080fd5b506100c06100bb366004610e11565b61027a565b005b6100c06100d0366004610f21565b610308565b3480156100e157600080fd5b506100ea610327565b6040519081526020015b60405180910390f35b34801561010957600080fd5b50610152610118366004610f83565b60009081527fa1a8a1e2cb6009f225580651017bd88c470975b96e9e7869a2efeb9cc01cfd0060205260409020546001600160a01b031690565b6040516001600160a01b0390911681526020016100f4565b34801561017657600080fd5b506100c0610344565b34801561018b57600080fd5b507f9016d09d72d40fdae2fd8ceac6b6234c7706214fd39c1cd1e609a0528c199300546001600160a01b0316610152565b3480156101c857600080fd5b506100c06101d7366004610f9c565b610358565b3480156101e857600080fd5b506100c06101f7366004610fb7565b6103a0565b34801561020857600080fd5b5061022d604051806040016040528060058152602001640352e302e360dc1b81525081565b6040516100f4919061103d565b34801561024657600080fd5b506100c0610255366004610f9c565b610594565b34801561026657600080fd5b506100c0610275366004610f9c565b6106a4565b6102826106e2565b7f9042a41a974b9fb065efd30b036d9f6283b7b2827a70d0d1b892f50c78b11e0060005b82518110156103035760018260000160008584815181106102c9576102c9611070565b6020908102919091018101516001600160a01b03168252810191909152604001600020805460ff19169115159190911790556001016102a6565b505050565b61031061073d565b610319826107e2565b61032382826107ea565b5050565b60006103316108a7565b5060008051602061124d83398151915290565b61034c6106e2565b61035660006108f0565b565b6103606106e2565b6001600160a01b031660009081527f9042a41a974b9fb065efd30b036d9f6283b7b2827a70d0d1b892f50c78b11e0060205260409020805460ff19169055565b3360009081527f9042a41a974b9fb065efd30b036d9f6283b7b2827a70d0d1b892f50c78b11e00602081905260409091205460ff166103f9576040516312a0e76360e01b81523360048201526024015b60405180910390fd5b6001600160a01b03821661045b5760405162461bcd60e51b8152602060048201526024808201527f4e616d6573706163654d616e616765723a207a65726f2061646472657373206f6044820152633bb732b960e11b60648201526084016103f0565b6040517fa1a8a1e2cb6009f225580651017bd88c470975b96e9e7869a2efeb9cc01cfd0090600090610491908690602001611086565b60408051601f1981840301815291815281516020928301206000818152928590529120549091506001600160a01b0316156104de5760405162461bcd60e51b81526004016103f0906110a2565b604080516060810182526001600160a01b03868116825260208083018581528385018a815260008781529288905294909120835181546001600160a01b0319169316929092178255516001820155915190919060028201906105409082611174565b50905050836001600160a01b0316818660405161055d9190611086565b604051908190038120907f8bc4c66b3575583469e2cc9480eb6e126d8b4bcc9bc7b44f4de0d6e8581ab3e190600090a45050505050565b7ff0c57e16840df040f15088dc2f81fe391c3923bec73e23a9662efc9c229c6a008054600160401b810460ff16159067ffffffffffffffff166000811580156105da5750825b905060008267ffffffffffffffff1660011480156105f75750303b155b905081158015610605575080155b156106235760405163f92ee8a960e01b815260040160405180910390fd5b845467ffffffffffffffff19166001178555831561064d57845460ff60401b1916600160401b1785555b61065686610961565b831561069c57845460ff60401b19168555604051600181527fc7f505b2f371ae2175ee4913f4499e1f2633a7b5936321eed1cdaeb6115181d29060200160405180910390a15b505050505050565b6106ac6106e2565b6001600160a01b0381166106d657604051631e4fbdf760e01b8152600060048201526024016103f0565b6106df816108f0565b50565b336107147f9016d09d72d40fdae2fd8ceac6b6234c7706214fd39c1cd1e609a0528c199300546001600160a01b031690565b6001600160a01b0316146103565760405163118cdaa760e01b81523360048201526024016103f0565b306001600160a01b037f00000000000000000000000000000000000000000000000000000000000000001614806107c457507f00000000000000000000000000000000000000000000000000000000000000006001600160a01b03166107b860008051602061124d833981519152546001600160a01b031690565b6001600160a01b031614155b156103565760405163703e46dd60e11b815260040160405180910390fd5b6106df6106e2565b816001600160a01b03166352d1902d6040518163ffffffff1660e01b8152600401602060405180830381865afa925050508015610844575060408051601f3d908101601f1916820190925261084191810190611233565b60015b61086c57604051634c9c8ce360e01b81526001600160a01b03831660048201526024016103f0565b60008051602061124d833981519152811461089d57604051632a87526960e21b8152600481018290526024016103f0565b6103038383610a2b565b306001600160a01b037f000000000000000000000000000000000000000000000000000000000000000016146103565760405163703e46dd60e11b815260040160405180910390fd5b7f9016d09d72d40fdae2fd8ceac6b6234c7706214fd39c1cd1e609a0528c19930080546001600160a01b031981166001600160a01b03848116918217845560405192169182907f8be0079c531659141344cd1fd0a4f28419497f9722a3daafe3b4186f6b6457e090600090a3505050565b610969610a81565b61097281610aca565b6109a16040518060400160405280600c81526020016b6d6f64656c2e73797374656d60a01b8152506000610adb565b6109cf6040518060400160405280600b81526020016a6e6f64652e73797374656d60a81b8152506000610adb565b6109fe6040518060400160405280600c81526020016b74727573742e73797374656d60a01b8152506000610adb565b6106df6040518060400160405280600a8152602001696170692e73797374656d60b01b8152506000610adb565b610a3482610c13565b6040516001600160a01b038316907fbc7cd75a20ee27fd9adebab32041f755214dbc6bffa90cc0225b39da2e5c2d3b90600090a2805115610a79576103038282610c78565b610323610cee565b7ff0c57e16840df040f15088dc2f81fe391c3923bec73e23a9662efc9c229c6a0054600160401b900460ff1661035657604051631afcd79f60e31b815260040160405180910390fd5b610ad2610a81565b6106df81610d0d565b6040517fa1a8a1e2cb6009f225580651017bd88c470975b96e9e7869a2efeb9cc01cfd0090600090610b11908590602001611086565b60408051601f1981840301815291815281516020928301206000818152928590529120549091506001600160a01b031615610b5e5760405162461bcd60e51b81526004016103f0906110a2565b604080516060810182526001600160a01b038581168252602080830185815283850189815260008781529288905294909120835181546001600160a01b031916931692909217825551600182015591519091906002820190610bc09082611174565b50905050826001600160a01b03168185604051610bdd9190611086565b604051908190038120907f8bc4c66b3575583469e2cc9480eb6e126d8b4bcc9bc7b44f4de0d6e8581ab3e190600090a450505050565b806001600160a01b03163b600003610c4957604051634c9c8ce360e01b81526001600160a01b03821660048201526024016103f0565b60008051602061124d83398151915280546001600160a01b0319166001600160a01b0392909216919091179055565b6060600080846001600160a01b031684604051610c959190611086565b600060405180830381855af49150503d8060008114610cd0576040519150601f19603f3d011682016040523d82523d6000602084013e610cd5565b606091505b5091509150610ce5858383610d1e565b95945050505050565b34156103565760405163b398979f60e01b815260040160405180910390fd5b610d15610a81565b6106df81610d7d565b606082610d3357610d2e82610d85565b610d76565b8151158015610d4a57506001600160a01b0384163b155b15610d7357604051639996b31560e01b81526001600160a01b03851660048201526024016103f0565b50805b9392505050565b6106ac610a81565b805115610d955780518082602001fd5b60405163d6bda27560e01b815260040160405180910390fd5b634e487b7160e01b600052604160045260246000fd5b604051601f8201601f1916810167ffffffffffffffff81118282101715610ded57610ded610dae565b604052919050565b80356001600160a01b0381168114610e0c57600080fd5b919050565b600060208284031215610e2357600080fd5b813567ffffffffffffffff811115610e3a57600080fd5b8201601f81018413610e4b57600080fd5b803567ffffffffffffffff811115610e6557610e65610dae565b8060051b610e7560208201610dc4565b91825260208184018101929081019087841115610e9157600080fd5b6020850194505b83851015610eba57610ea985610df5565b825260209485019490910190610e98565b979650505050505050565b60008067ffffffffffffffff841115610ee057610ee0610dae565b50601f8301601f1916602001610ef581610dc4565b915050828152838383011115610f0a57600080fd5b828260208301376000602084830101529392505050565b60008060408385031215610f3457600080fd5b610f3d83610df5565b9150602083013567ffffffffffffffff811115610f5957600080fd5b8301601f81018513610f6a57600080fd5b610f7985823560208401610ec5565b9150509250929050565b600060208284031215610f9557600080fd5b5035919050565b600060208284031215610fae57600080fd5b610d7682610df5565b60008060408385031215610fca57600080fd5b823567ffffffffffffffff811115610fe157600080fd5b8301601f81018513610ff257600080fd5b61100185823560208401610ec5565b92505061101060208401610df5565b90509250929050565b60005b8381101561103457818101518382015260200161101c565b50506000910152565b602081526000825180602084015261105c816040850160208701611019565b601f01601f19169190910160400192915050565b634e487b7160e01b600052603260045260246000fd5b60008251611098818460208701611019565b9190910192915050565b6020808252602a908201527f4e616d6573706163654d616e616765723a206e616d65737061636520616c72656040820152696164792065786973747360b01b606082015260800190565b600181811c9082168061110057607f821691505b60208210810361112057634e487b7160e01b600052602260045260246000fd5b50919050565b601f82111561030357806000526020600020601f840160051c8101602085101561114d5750805b601f840160051c820191505b8181101561116d5760008155600101611159565b5050505050565b815167ffffffffffffffff81111561118e5761118e610dae565b6111a28161119c84546110ec565b84611126565b6020601f8211600181146111d657600083156111be5750848201515b600019600385901b1c1916600184901b17845561116d565b600084815260208120601f198516915b8281101561120657878501518255602094850194600190920191016111e6565b50848210156112245786840151600019600387901b60f8161c191681555b50505050600190811b01905550565b60006020828403121561124557600080fd5b505191905056fe360894a13ba1a3210667c828492db98dca3e2076cc3735a920a3ca505d382bbca2646970667358221220c1d20af7edc2562ad9284a0d5f371f0e9dd5876e7b5748b41cee12959e69473e64736f6c634300081c0033",
  "linkReferences": {},
  "deployedLinkReferences": {}
}