{
  "_format": "hh-sol-artifact-1",
  "contractName": "CallAiExample",
  "sourceName": "contracts/example/direct/call-ai-example.sol",
  "abi": [
    {
      "inputs": [
        {
          "internalType": "address",
          "name": "ai",
          "type": "address"
        }
      ],
      "stateMutability": "nonpayable",
      "type": "constructor"
    },
    {
      "inputs": [
        {
          "internalType": "address",
          "name": "token",
          "type": "address"
        }
      ],
      "name": "SafeERC20FailedOperation",
      "type": "error"
    },
    {
      "anonymous": false,
      "inputs": [
        {
          "indexed": false,
          "internalType": "bytes32",
          "name": "requestId",
          "type": "bytes32"
        }
      ],
      "name": "Error",
      "type": "event"
    },
    {
      "anonymous": false,
      "inputs": [
        {
          "indexed": false,
          "internalType": "bytes32",
          "name": "requestId",
          "type": "bytes32"
        },
        {
          "indexed": false,
          "internalType": "string",
          "name": "prompt",
          "type": "string"
        }
      ],
      "name": "Request",
      "type": "event"
    },
    {
      "anonymous": false,
      "inputs": [
        {
          "indexed": false,
          "internalType": "bytes32",
          "name": "requestId",
          "type": "bytes32"
        },
        {
          "indexed": false,
          "internalType": "enum IDtnAi.ResponseStatus",
          "name": "status",
          "type": "uint8"
        },
        {
          "indexed": false,
          "internalType": "string",
          "name": "message",
          "type": "string"
        },
        {
          "indexed": false,
          "internalType": "string",
          "name": "result",
          "type": "string"
        }
      ],
      "name": "Result",
      "type": "event"
    },
    {
      "inputs": [],
      "name": "ai",
      "outputs": [
        {
          "internalType": "contract IDtnAi",
          "name": "",
          "type": "address"
        }
      ],
      "stateMutability": "view",
      "type": "function"
    },
    {
      "inputs": [
        {
          "internalType": "bytes32",
          "name": "_requestId",
          "type": "bytes32"
        }
      ],
      "name": "aiError",
      "outputs": [],
      "stateMutability": "nonpayable",
      "type": "function"
    },
    {
      "inputs": [
        {
          "internalType": "bytes32",
          "name": "_requestId",
          "type": "bytes32"
        }
      ],
      "name": "callback",
      "outputs": [],
      "stateMutability": "nonpayable",
      "type": "function"
    },
    {
      "inputs": [
        {
          "internalType": "string",
          "name": "prompt",
          "type": "string"
        },
        {
          "internalType": "string",
          "name": "node",
          "type": "string"
        },
        {
          "internalType": "string",
          "name": "model",
          "type": "string"
        }
      ],
      "name": "doCallAi",
      "outputs": [],
      "stateMutability": "payable",
      "type": "function"
    },
    {
      "inputs": [],
      "name": "error",
      "outputs": [
        {
          "internalType": "string",
          "name": "",
          "type": "string"
        }
      ],
      "stateMutability": "view",
      "type": "function"
    },
    {
      "inputs": [],
      "name": "requestId",
      "outputs": [
        {
          "internalType": "bytes32",
          "name": "",
          "type": "bytes32"
        }
      ],
      "stateMutability": "view",
      "type": "function"
    },
    {
      "inputs": [],
      "name": "result",
      "outputs": [
        {
          "internalType": "string",
          "name": "",
          "type": "string"
        }
      ],
      "stateMutability": "view",
      "type": "function"
    },
    {
      "inputs": [],
      "name": "sessionId",
      "outputs": [
        {
          "internalType": "uint256",
          "name": "",
          "type": "uint256"
        }
      ],
      "stateMutability": "view",
      "type": "function"
    }
  ],
  "bytecode": "0x6080604052348015600f57600080fd5b506040516111c23803806111c2833981016040819052602c91604c565b600080546001600160a01b0319166001600160a01b03831617905550607a565b600060208284031215605d57600080fd5b81516001600160a01b0381168114607357600080fd5b9392505050565b611139806100896000396000f3fe60806040526004361061007a5760003560e01c80639648c9f41161004e5780639648c9f414610124578063c79f8b621461013a578063df13994e1461014f578063e1ceef121461016f57600080fd5b80626d6cae1461007f5780632bf0a7c9146100a857806365372147146100ca57806368be1b1e146100ec575b600080fd5b34801561008b57600080fd5b5061009560045481565b6040519081526020015b60405180910390f35b3480156100b457600080fd5b506100c86100c3366004610977565b610182565b005b3480156100d657600080fd5b506100df61029c565b60405161009f91906109e0565b3480156100f857600080fd5b5060005461010c906001600160a01b031681565b6040516001600160a01b03909116815260200161009f565b34801561013057600080fd5b5061009560035481565b34801561014657600080fd5b506100df61032a565b34801561015b57600080fd5b506100c861016a366004610977565b610337565b6100c861017d366004610abf565b610473565b6000546001600160a01b031633146101e15760405162461bcd60e51b815260206004820152601f60248201527f4f6e6c792044746e2063616e2063616c6c20746869732066756e6374696f6e0060448201526064015b60405180910390fd5b6000805460405163d1e4be0760e01b8152600481018490526001600160a01b039091169063d1e4be0790602401600060405180830381865afa15801561022b573d6000803e3d6000fd5b505050506040513d6000823e601f3d908101601f191682016040526102539190810190610ba3565b509150600290506102648282610cb6565b506040518281527fc0feee4291bd5b20db53763b87864bd1434da2717d6a9ba76efa4bafa8f6a99c9060200160405180910390a15050565b600180546102a990610c2d565b80601f01602080910402602001604051908101604052809291908181526020018280546102d590610c2d565b80156103225780601f106102f757610100808354040283529160200191610322565b820191906000526020600020905b81548152906001019060200180831161030557829003601f168201915b505050505081565b600280546102a990610c2d565b6000546001600160a01b031633146103915760405162461bcd60e51b815260206004820152601f60248201527f4f6e6c792044746e2063616e2063616c6c20746869732066756e6374696f6e0060448201526064016101d8565b6000805460405163d1e4be0760e01b815260048101849052829182916001600160a01b039091169063d1e4be0790602401600060405180830381865afa1580156103df573d6000803e3d6000fd5b505050506040513d6000823e601f3d908101601f191682016040526104079190810190610ba3565b925092509250808060200190518101906104219190610d75565b60019061042e9082610cb6565b507f08f93959aad2aac56d31361838e94d53bcf69cd431b8851b72466477b7e064ef84848460016040516104659493929190610dc8565b60405180910390a150505050565b6003546000036105fd576000670de0b6b3a764000090506105813360008054906101000a90046001600160a01b03166001600160a01b031663cd3c695a6040518163ffffffff1660e01b8152600401602060405180830381865afa1580156104df573d6000803e3d6000fd5b505050506040513d601f19601f820116820180604052508101906105039190610e88565b6000546040805163647846a560e01b8152905186926001600160a01b03169163647846a59160048083019260209291908290030181865afa15801561054c573d6000803e3d6000fd5b505050506040513d601f19601f820116820180604052508101906105709190610e88565b6001600160a01b0316929190610841565b60008054906101000a90046001600160a01b03166001600160a01b0316636d8de31f6040518163ffffffff1660e01b81526004016020604051808303816000875af11580156105d4573d6000803e3d6000fd5b505050506040513d601f19601f820116820180604052508101906105f89190610eb1565b600355505b60408051600180825281830190925260009160208083019080368337019050509050826040516020016106309190610eca565b604051602081830303815290604052805190602001208160008151811061065957610659610ee6565b60200260200101818152505060008054906101000a90046001600160a01b03166001600160a01b031663e51d6822346003548560405160200161069c9190610eca565b604051602081830303815290604052805190602001206106bb866108a1565b6040805161014081018252601e61010082019081527f74657874207b303a75696e74387d20616e64207b313a616464726573737d000061012083015260c0820190815260e082018d90529151909182916107189190602001610efc565b60408051808303601f190181529181529082528051600c60208083019190915230828401819052835180840385018152606093840185528286015260018585015266038d7ea4c680008386018190526080860152670de0b6b3a764000060a09095019490945282519182018352636f89cca760e11b8252632bf0a7c960e01b9082015280820192909252516001600160e01b031960e089901b1681526107c995949392919033903490600401610ff8565b60206040518083038185885af11580156107e7573d6000803e3d6000fd5b50505050506040513d601f19601f8201168201806040525081019061080c9190610eb1565b60048190556040517f58c4931f429cb18fea0238d66bdcec44991828642becdaed95b821ac2e59191d916104659187906110ea565b604080516001600160a01b0385811660248301528416604482015260648082018490528251808303909101815260849091019091526020810180516001600160e01b03166323b872dd60e01b17905261089b908590610906565b50505050565b6108d06040805160a0810182526060808252602082018190526000928201839052810182905290608082015290565b5060408051600080825260c0820183526020820182815292820193909352600160608201526008608082015260a0019190915290565b600080602060008451602086016000885af180610929576040513d6000823e3d81fd5b50506000513d9150811561094157806001141561094e565b6001600160a01b0384163b155b1561089b57604051635274afe760e01b81526001600160a01b03851660048201526024016101d8565b60006020828403121561098957600080fd5b5035919050565b60005b838110156109ab578181015183820152602001610993565b50506000910152565b600081518084526109cc816020860160208601610990565b601f01601f19169290920160200192915050565b6020815260006109f360208301846109b4565b9392505050565b634e487b7160e01b600052604160045260246000fd5b604051601f8201601f1916810167ffffffffffffffff81118282101715610a3957610a396109fa565b604052919050565b600067ffffffffffffffff821115610a5b57610a5b6109fa565b50601f01601f191660200190565b600082601f830112610a7a57600080fd5b8135610a8d610a8882610a41565b610a10565b818152846020838601011115610aa257600080fd5b816020850160208301376000918101602001919091529392505050565b600080600060608486031215610ad457600080fd5b833567ffffffffffffffff811115610aeb57600080fd5b610af786828701610a69565b935050602084013567ffffffffffffffff811115610b1457600080fd5b610b2086828701610a69565b925050604084013567ffffffffffffffff811115610b3d57600080fd5b610b4986828701610a69565b9150509250925092565b6000610b61610a8884610a41565b9050828152838383011115610b7557600080fd5b6109f3836020830184610990565b600082601f830112610b9457600080fd5b6109f383835160208501610b53565b600080600060608486031215610bb857600080fd5b835160038110610bc757600080fd5b602085015190935067ffffffffffffffff811115610be457600080fd5b610bf086828701610b83565b925050604084015167ffffffffffffffff811115610c0d57600080fd5b8401601f81018613610c1e57600080fd5b610b4986825160208401610b53565b600181811c90821680610c4157607f821691505b602082108103610c6157634e487b7160e01b600052602260045260246000fd5b50919050565b601f821115610cb157806000526020600020601f840160051c81016020851015610c8e5750805b601f840160051c820191505b81811015610cae5760008155600101610c9a565b50505b505050565b815167ffffffffffffffff811115610cd057610cd06109fa565b610ce481610cde8454610c2d565b84610c67565b6020601f821160018114610d185760008315610d005750848201515b600019600385901b1c1916600184901b178455610cae565b600084815260208120601f198516915b82811015610d485787850151825560209485019460019092019101610d28565b5084821015610d665786840151600019600387901b60f8161c191681555b50505050600190811b01905550565b600060208284031215610d8757600080fd5b815167ffffffffffffffff811115610d9e57600080fd5b610daa84828501610b83565b949350505050565b634e487b7160e01b600052602160045260246000fd5b848152600060038510610ddd57610ddd610db2565b84602083015260806040830152610df760808301856109b4565b828103606084015260008454610e0c81610c2d565b808452600182168015610e265760018114610e4257610e79565b60ff1983166020860152602082151560051b8601019350610e79565b87600052602060002060005b83811015610e7057815460208289010152600182019150602081019050610e4e565b86016020019450505b50919998505050505050505050565b600060208284031215610e9a57600080fd5b81516001600160a01b03811681146109f357600080fd5b600060208284031215610ec357600080fd5b5051919050565b60008251610edc818460208701610990565b9190910192915050565b634e487b7160e01b600052603260045260246000fd5b60208082526000906060830190830184835b6002811015610f4057601f19868503018352610f2b8483516109b4565b93506020928301929190910190600101610f0e565b509195945050505050565b600081518084526020840193506020830160005b82811015610f7d578151865260209586019590910190600101610f5f565b5093949350505050565b6000815160c08452610f9c60c08501826109b4565b905060208301518482036020860152610fb582826109b4565b915050604083015160028110610fcd57610fcd610db2565b6040850152606083810151908501526080808401519085015260a09283015192909301919091525090565b87815286602082015261012060408201526000865160a06101208401526110236101c0840182610f4b565b9050602088015161011f19848303016101408501526110428282610f4b565b91505063ffffffff60408901511661016084015260ff60608901511661018084015260808801516005811061107957611079610db2565b6101a084015282810360608401526110918188610f87565b86516001600160e01b0319908116608086015260208801511660a085015260408701516001600160a01b031660c085015291506110cb9050565b6001600160a01b039390931660e0820152610100015295945050505050565b828152604060208201526000610daa60408301846109b456fea26469706673582212207859af815b2c34ee9d4042f7725e010154103fb60e9c8ad851648b2dc4a1cc3e64736f6c634300081c0033",
  "linkReferences": {},
  "deployedLinkReferences": {}
}