{
  "_format": "hh-sol-artifact-1",
  "contractName": "CallAiExample",
  "sourceName": "contracts/example/direct/call-ai-example.sol",
  "abi": [
    {
      "inputs": [
        {
          "internalType": "address",
          "name": "ai",
          "type": "address"
        }
      ],
      "stateMutability": "nonpayable",
      "type": "constructor"
    },
    {
      "inputs": [
        {
          "internalType": "address",
          "name": "token",
          "type": "address"
        }
      ],
      "name": "SafeERC20FailedOperation",
      "type": "error"
    },
    {
      "anonymous": false,
      "inputs": [
        {
          "indexed": false,
          "internalType": "bytes32",
          "name": "requestId",
          "type": "bytes32"
        }
      ],
      "name": "Error",
      "type": "event"
    },
    {
      "anonymous": false,
      "inputs": [
        {
          "indexed": false,
          "internalType": "bytes32",
          "name": "requestId",
          "type": "bytes32"
        },
        {
          "indexed": false,
          "internalType": "string",
          "name": "prompt",
          "type": "string"
        }
      ],
      "name": "Request",
      "type": "event"
    },
    {
      "anonymous": false,
      "inputs": [
        {
          "indexed": false,
          "internalType": "bytes32",
          "name": "requestId",
          "type": "bytes32"
        },
        {
          "indexed": false,
          "internalType": "enum IDtnAi.ResponseStatus",
          "name": "status",
          "type": "uint8"
        },
        {
          "indexed": false,
          "internalType": "string",
          "name": "message",
          "type": "string"
        },
        {
          "indexed": false,
          "internalType": "string",
          "name": "result",
          "type": "string"
        }
      ],
      "name": "Result",
      "type": "event"
    },
    {
      "inputs": [],
      "name": "ai",
      "outputs": [
        {
          "internalType": "contract IDtnAi",
          "name": "",
          "type": "address"
        }
      ],
      "stateMutability": "view",
      "type": "function"
    },
    {
      "inputs": [
        {
          "internalType": "bytes32",
          "name": "_requestId",
          "type": "bytes32"
        }
      ],
      "name": "aiError",
      "outputs": [],
      "stateMutability": "nonpayable",
      "type": "function"
    },
    {
      "inputs": [
        {
          "internalType": "bytes32",
          "name": "_requestId",
          "type": "bytes32"
        }
      ],
      "name": "callback",
      "outputs": [],
      "stateMutability": "nonpayable",
      "type": "function"
    },
    {
      "inputs": [
        {
          "internalType": "string",
          "name": "prompt",
          "type": "string"
        },
        {
          "internalType": "string",
          "name": "node",
          "type": "string"
        },
        {
          "internalType": "string",
          "name": "model",
          "type": "string"
        }
      ],
      "name": "doCallAi",
      "outputs": [],
      "stateMutability": "payable",
      "type": "function"
    },
    {
      "inputs": [],
      "name": "error",
      "outputs": [
        {
          "internalType": "string",
          "name": "",
          "type": "string"
        }
      ],
      "stateMutability": "view",
      "type": "function"
    },
    {
      "inputs": [],
      "name": "requestId",
      "outputs": [
        {
          "internalType": "bytes32",
          "name": "",
          "type": "bytes32"
        }
      ],
      "stateMutability": "view",
      "type": "function"
    },
    {
      "inputs": [],
      "name": "result",
      "outputs": [
        {
          "internalType": "string",
          "name": "",
          "type": "string"
        }
      ],
      "stateMutability": "view",
      "type": "function"
    },
    {
      "inputs": [],
      "name": "sessionId",
      "outputs": [
        {
          "internalType": "uint256",
          "name": "",
          "type": "uint256"
        }
      ],
      "stateMutability": "view",
      "type": "function"
    }
  ],
  "bytecode": "0x6080604052348015600f57600080fd5b5060405161124f38038061124f833981016040819052602c91604c565b600080546001600160a01b0319166001600160a01b03831617905550607a565b600060208284031215605d57600080fd5b81516001600160a01b0381168114607357600080fd5b9392505050565b6111c6806100896000396000f3fe60806040526004361061007a5760003560e01c80639648c9f41161004e5780639648c9f414610124578063c79f8b621461013a578063df13994e1461014f578063e1ceef121461016f57600080fd5b80626d6cae1461007f5780632bf0a7c9146100a857806365372147146100ca57806368be1b1e146100ec575b600080fd5b34801561008b57600080fd5b5061009560045481565b6040519081526020015b60405180910390f35b3480156100b457600080fd5b506100c86100c33660046109ee565b610182565b005b3480156100d657600080fd5b506100df61029c565b60405161009f9190610a57565b3480156100f857600080fd5b5060005461010c906001600160a01b031681565b6040516001600160a01b03909116815260200161009f565b34801561013057600080fd5b5061009560035481565b34801561014657600080fd5b506100df61032a565b34801561015b57600080fd5b506100c861016a3660046109ee565b610337565b6100c861017d366004610b36565b610473565b6000546001600160a01b031633146101e15760405162461bcd60e51b815260206004820152601f60248201527f4f6e6c792044746e2063616e2063616c6c20746869732066756e6374696f6e0060448201526064015b60405180910390fd5b6000805460405163d1e4be0760e01b8152600481018490526001600160a01b039091169063d1e4be0790602401600060405180830381865afa15801561022b573d6000803e3d6000fd5b505050506040513d6000823e601f3d908101601f191682016040526102539190810190610c1a565b509150600290506102648282610d2d565b506040518281527fc0feee4291bd5b20db53763b87864bd1434da2717d6a9ba76efa4bafa8f6a99c9060200160405180910390a15050565b600180546102a990610ca4565b80601f01602080910402602001604051908101604052809291908181526020018280546102d590610ca4565b80156103225780601f106102f757610100808354040283529160200191610322565b820191906000526020600020905b81548152906001019060200180831161030557829003601f168201915b505050505081565b600280546102a990610ca4565b6000546001600160a01b031633146103915760405162461bcd60e51b815260206004820152601f60248201527f4f6e6c792044746e2063616e2063616c6c20746869732066756e6374696f6e0060448201526064016101d8565b6000805460405163d1e4be0760e01b815260048101849052829182916001600160a01b039091169063d1e4be0790602401600060405180830381865afa1580156103df573d6000803e3d6000fd5b505050506040513d6000823e601f3d908101601f191682016040526104079190810190610c1a565b925092509250808060200190518101906104219190610dec565b60019061042e9082610d2d565b507f08f93959aad2aac56d31361838e94d53bcf69cd431b8851b72466477b7e064ef84848460016040516104659493929190610e3f565b60405180910390a150505050565b6003546000036105fd576000670de0b6b3a764000090506105813360008054906101000a90046001600160a01b03166001600160a01b031663cd3c695a6040518163ffffffff1660e01b8152600401602060405180830381865afa1580156104df573d6000803e3d6000fd5b505050506040513d601f19601f820116820180604052508101906105039190610eff565b6000546040805163647846a560e01b8152905186926001600160a01b03169163647846a59160048083019260209291908290030181865afa15801561054c573d6000803e3d6000fd5b505050506040513d601f19601f820116820180604052508101906105709190610eff565b6001600160a01b031692919061086d565b60008054906101000a90046001600160a01b03166001600160a01b0316636d8de31f6040518163ffffffff1660e01b81526004016020604051808303816000875af11580156105d4573d6000803e3d6000fd5b505050506040513d601f19601f820116820180604052508101906105f89190610f28565b600355505b60408051600280825260608201909252600091816020015b60608152602001906001900390816106155790505090506040518060400160405280601e81526020017f74657874207b303a75696e74387d20616e64207b313a616464726573737d00008152508160008151811061067557610675610f41565b6020026020010181905250838160018151811061069457610694610f41565b60209081029190910181019190915260408051600c9281019290925230828201528051808303820181526060830190915260005460035491926001600160a01b039091169163e51d6822913491906106f0908890608001610f57565b6040516020818303038152906040528051906020012061073d6107388a60405160200161071d9190610f57565b604051602081830303815290604052805190602001206108cd565b610918565b6040805160c08101909152806107568a60e08301610f73565b60408051601f19818403018152918152908252602082018a9052016001815266038d7ea4c680006020808301829052604080840192909252670de0b6b3a764000060609384015281519283018252636f89cca760e11b8352632bf0a7c960e01b9083015230828201525160e088901b6001600160e01b03191681526107e695949392919033903490600401611085565b60206040518083038185885af1158015610804573d6000803e3d6000fd5b50505050506040513d601f19601f820116820180604052508101906108299190610f28565b60048190556040517f58c4931f429cb18fea0238d66bdcec44991828642becdaed95b821ac2e59191d9161085e918890611177565b60405180910390a15050505050565b604080516001600160a01b0385811660248301528416604482015260648082018490528251808303909101815260849091019091526020810180516001600160e01b03166323b872dd60e01b1790526108c790859061097d565b50505050565b6040805160018082528183019092526060916000919060208083019080368337019050509050828160008151811061090757610907610f41565b602090810291909101015292915050565b6109476040805160a0810182526060808252602082018190526000928201839052810182905290608082015290565b5060408051600080825260c0820183526020820182815292820193909352600160608201526008608082015260a0019190915290565b600080602060008451602086016000885af1806109a0576040513d6000823e3d81fd5b50506000513d915081156109b85780600114156109c5565b6001600160a01b0384163b155b156108c757604051635274afe760e01b81526001600160a01b03851660048201526024016101d8565b600060208284031215610a0057600080fd5b5035919050565b60005b83811015610a22578181015183820152602001610a0a565b50506000910152565b60008151808452610a43816020860160208601610a07565b601f01601f19169290920160200192915050565b602081526000610a6a6020830184610a2b565b9392505050565b634e487b7160e01b600052604160045260246000fd5b604051601f8201601f1916810167ffffffffffffffff81118282101715610ab057610ab0610a71565b604052919050565b600067ffffffffffffffff821115610ad257610ad2610a71565b50601f01601f191660200190565b600082601f830112610af157600080fd5b8135610b04610aff82610ab8565b610a87565b818152846020838601011115610b1957600080fd5b816020850160208301376000918101602001919091529392505050565b600080600060608486031215610b4b57600080fd5b833567ffffffffffffffff811115610b6257600080fd5b610b6e86828701610ae0565b935050602084013567ffffffffffffffff811115610b8b57600080fd5b610b9786828701610ae0565b925050604084013567ffffffffffffffff811115610bb457600080fd5b610bc086828701610ae0565b9150509250925092565b6000610bd8610aff84610ab8565b9050828152838383011115610bec57600080fd5b610a6a836020830184610a07565b600082601f830112610c0b57600080fd5b610a6a83835160208501610bca565b600080600060608486031215610c2f57600080fd5b835160038110610c3e57600080fd5b602085015190935067ffffffffffffffff811115610c5b57600080fd5b610c6786828701610bfa565b925050604084015167ffffffffffffffff811115610c8457600080fd5b8401601f81018613610c9557600080fd5b610bc086825160208401610bca565b600181811c90821680610cb857607f821691505b602082108103610cd857634e487b7160e01b600052602260045260246000fd5b50919050565b601f821115610d2857806000526020600020601f840160051c81016020851015610d055750805b601f840160051c820191505b81811015610d255760008155600101610d11565b50505b505050565b815167ffffffffffffffff811115610d4757610d47610a71565b610d5b81610d558454610ca4565b84610cde565b6020601f821160018114610d8f5760008315610d775750848201515b600019600385901b1c1916600184901b178455610d25565b600084815260208120601f198516915b82811015610dbf5787850151825560209485019460019092019101610d9f565b5084821015610ddd5786840151600019600387901b60f8161c191681555b50505050600190811b01905550565b600060208284031215610dfe57600080fd5b815167ffffffffffffffff811115610e1557600080fd5b610e2184828501610bfa565b949350505050565b634e487b7160e01b600052602160045260246000fd5b848152600060038510610e5457610e54610e29565b84602083015260806040830152610e6e6080830185610a2b565b828103606084015260008454610e8381610ca4565b808452600182168015610e9d5760018114610eb957610ef0565b60ff1983166020860152602082151560051b8601019350610ef0565b87600052602060002060005b83811015610ee757815460208289010152600182019150602081019050610ec5565b86016020019450505b50919998505050505050505050565b600060208284031215610f1157600080fd5b81516001600160a01b0381168114610a6a57600080fd5b600060208284031215610f3a57600080fd5b5051919050565b634e487b7160e01b600052603260045260246000fd5b60008251610f69818460208701610a07565b9190910192915050565b6000602082016020835280845180835260408501915060408160051b86010192506020860160005b82811015610fcc57603f19878603018452610fb7858351610a2b565b94506020938401939190910190600101610f9b565b50929695505050505050565b600081518084526020840193506020830160005b8281101561100a578151865260209586019590910190600101610fec565b5093949350505050565b6000815160c0845261102960c0850182610a2b565b9050602083015184820360208601526110428282610a2b565b91505060408301516002811061105a5761105a610e29565b6040850152606083810151908501526080808401519085015260a09283015192909301919091525090565b87815286602082015261012060408201526000865160a06101208401526110b06101c0840182610fd8565b9050602088015161011f19848303016101408501526110cf8282610fd8565b91505063ffffffff60408901511661016084015260ff60608901511661018084015260808801516005811061110657611106610e29565b6101a0840152828103606084015261111e8188611014565b86516001600160e01b0319908116608086015260208801511660a085015260408701516001600160a01b031660c085015291506111589050565b6001600160a01b039390931660e0820152610100015295945050505050565b828152604060208201526000610e216040830184610a2b56fea26469706673582212201ac054b03494401aa8a82c238a828f6f7ceabd0b222e6500184341e05e711b7b64736f6c634300081c0033",
  "linkReferences": {},
  "deployedLinkReferences": {}
}