{
  "_format": "hh-sol-artifact-1",
  "contractName": "CallAiExample",
  "sourceName": "contracts/example/direct/call-ai-example.sol",
  "abi": [
    {
      "inputs": [
        {
          "internalType": "address",
          "name": "ai",
          "type": "address"
        }
      ],
      "stateMutability": "nonpayable",
      "type": "constructor"
    },
    {
      "inputs": [
        {
          "internalType": "address",
          "name": "token",
          "type": "address"
        }
      ],
      "name": "SafeERC20FailedOperation",
      "type": "error"
    },
    {
      "anonymous": false,
      "inputs": [
        {
          "indexed": false,
          "internalType": "bytes32",
          "name": "requestId",
          "type": "bytes32"
        }
      ],
      "name": "Error",
      "type": "event"
    },
    {
      "anonymous": false,
      "inputs": [
        {
          "indexed": false,
          "internalType": "bytes32",
          "name": "requestId",
          "type": "bytes32"
        },
        {
          "indexed": false,
          "internalType": "string[]",
          "name": "prompt_lines",
          "type": "string[]"
        },
        {
          "indexed": false,
          "internalType": "bytes",
          "name": "extraParams",
          "type": "bytes"
        }
      ],
      "name": "Request",
      "type": "event"
    },
    {
      "anonymous": false,
      "inputs": [
        {
          "indexed": false,
          "internalType": "bytes32",
          "name": "requestId",
          "type": "bytes32"
        },
        {
          "indexed": false,
          "internalType": "enum IDtnAi.ResponseStatus",
          "name": "status",
          "type": "uint8"
        },
        {
          "indexed": false,
          "internalType": "string",
          "name": "message",
          "type": "string"
        },
        {
          "indexed": false,
          "internalType": "string",
          "name": "result",
          "type": "string"
        }
      ],
      "name": "Result",
      "type": "event"
    },
    {
      "inputs": [],
      "name": "ai",
      "outputs": [
        {
          "internalType": "contract IDtnAi",
          "name": "",
          "type": "address"
        }
      ],
      "stateMutability": "view",
      "type": "function"
    },
    {
      "inputs": [
        {
          "internalType": "bytes32",
          "name": "_requestId",
          "type": "bytes32"
        }
      ],
      "name": "aiError",
      "outputs": [],
      "stateMutability": "nonpayable",
      "type": "function"
    },
    {
      "inputs": [
        {
          "internalType": "bytes32",
          "name": "_requestId",
          "type": "bytes32"
        }
      ],
      "name": "callback",
      "outputs": [],
      "stateMutability": "nonpayable",
      "type": "function"
    },
    {
      "inputs": [
        {
          "internalType": "bytes32",
          "name": "_requestId",
          "type": "bytes32"
        }
      ],
      "name": "callbackIpfs",
      "outputs": [],
      "stateMutability": "nonpayable",
      "type": "function"
    },
    {
      "inputs": [
        {
          "internalType": "string",
          "name": "prompt",
          "type": "string"
        },
        {
          "internalType": "string",
          "name": "node",
          "type": "string"
        },
        {
          "internalType": "string",
          "name": "model",
          "type": "string"
        }
      ],
      "name": "doCallAi",
      "outputs": [],
      "stateMutability": "payable",
      "type": "function"
    },
    {
      "inputs": [
        {
          "internalType": "string[]",
          "name": "prompt_lines",
          "type": "string[]"
        },
        {
          "internalType": "bytes",
          "name": "extraParamsEncoded",
          "type": "bytes"
        },
        {
          "internalType": "string",
          "name": "node",
          "type": "string"
        },
        {
          "internalType": "string",
          "name": "model",
          "type": "string"
        }
      ],
      "name": "doCallAiDetailed",
      "outputs": [],
      "stateMutability": "payable",
      "type": "function"
    },
    {
      "inputs": [
        {
          "internalType": "string[]",
          "name": "prompt_lines",
          "type": "string[]"
        },
        {
          "internalType": "bytes",
          "name": "extraParamsEncoded",
          "type": "bytes"
        },
        {
          "internalType": "string",
          "name": "node",
          "type": "string"
        },
        {
          "internalType": "string",
          "name": "model",
          "type": "string"
        },
        {
          "internalType": "uint64",
          "name": "width",
          "type": "uint64"
        },
        {
          "internalType": "uint64",
          "name": "height",
          "type": "uint64"
        }
      ],
      "name": "doCallAiImage",
      "outputs": [],
      "stateMutability": "payable",
      "type": "function"
    },
    {
      "inputs": [],
      "name": "error",
      "outputs": [
        {
          "internalType": "string",
          "name": "",
          "type": "string"
        }
      ],
      "stateMutability": "view",
      "type": "function"
    },
    {
      "inputs": [],
      "name": "ipfsCid",
      "outputs": [
        {
          "internalType": "string",
          "name": "",
          "type": "string"
        }
      ],
      "stateMutability": "view",
      "type": "function"
    },
    {
      "inputs": [],
      "name": "requestId",
      "outputs": [
        {
          "internalType": "bytes32",
          "name": "",
          "type": "bytes32"
        }
      ],
      "stateMutability": "view",
      "type": "function"
    },
    {
      "inputs": [],
      "name": "restartSession",
      "outputs": [],
      "stateMutability": "nonpayable",
      "type": "function"
    },
    {
      "inputs": [],
      "name": "result",
      "outputs": [
        {
          "internalType": "string",
          "name": "",
          "type": "string"
        }
      ],
      "stateMutability": "view",
      "type": "function"
    },
    {
      "inputs": [],
      "name": "sessionId",
      "outputs": [
        {
          "internalType": "uint256",
          "name": "",
          "type": "uint256"
        }
      ],
      "stateMutability": "view",
      "type": "function"
    }
  ],
  "bytecode": "0x6080604052348015600f57600080fd5b50604051611a0e380380611a0e833981016040819052602c91604c565b600080546001600160a01b0319166001600160a01b03831617905550607a565b600060208284031215605d57600080fd5b81516001600160a01b0381168114607357600080fd5b9392505050565b611985806100896000396000f3fe6080604052600436106100c15760003560e01c8063795769e51161007f5780639648c9f4116100595780639648c9f4146101db578063c79f8b62146101f1578063df13994e14610206578063e1ceef121461022657600080fd5b8063795769e51461019e5780637b914674146101b35780638c18a443146101c857600080fd5b80626d6cae146100c65780632bf0a7c9146100ef5780632c670d9c14610111578063413a4d8614610131578063653721471461014457806368be1b1e14610166575b600080fd5b3480156100d257600080fd5b506100dc60045481565b6040519081526020015b60405180910390f35b3480156100fb57600080fd5b5061010f61010a366004610e7a565b610239565b005b34801561011d57600080fd5b5061010f61012c366004610e7a565b610327565b61010f61013f366004610fff565b610433565b34801561015057600080fd5b506101596105e0565b6040516100e6919061110b565b34801561017257600080fd5b50600054610186906001600160a01b031681565b6040516001600160a01b0390911681526020016100e6565b3480156101aa57600080fd5b5061010f61066e565b3480156101bf57600080fd5b50610159610987565b61010f6101d6366004611141565b610994565b3480156101e757600080fd5b506100dc60035481565b3480156101fd57600080fd5b50610159610b33565b34801561021257600080fd5b5061010f610221366004610e7a565b610b40565b61010f61023436600461121d565b610c3e565b6000546001600160a01b0316331461026c5760405162461bcd60e51b8152600401610263906112ae565b60405180910390fd5b6000805460405163d1e4be0760e01b8152600481018490526001600160a01b039091169063d1e4be0790602401600060405180830381865afa1580156102b6573d6000803e3d6000fd5b505050506040513d6000823e601f3d908101601f191682016040526102de9190810190611335565b509150600290506102ef828261143e565b506040518281527fc0feee4291bd5b20db53763b87864bd1434da2717d6a9ba76efa4bafa8f6a99c9060200160405180910390a15050565b6000546001600160a01b031633146103515760405162461bcd60e51b8152600401610263906112ae565b6000805460405163d1e4be0760e01b815260048101849052829182916001600160a01b039091169063d1e4be0790602401600060405180830381865afa15801561039f573d6000803e3d6000fd5b505050506040513d6000823e601f3d908101601f191682016040526103c79190810190611335565b925092509250808060200190518101906103e191906114fc565b6005906103ee908261143e565b507f08f93959aad2aac56d31361838e94d53bcf69cd431b8851b72466477b7e064ef8484846005604051610425949392919061154e565b60405180910390a150505050565b6003546000036104455761044561066e565b6000546003546040516001600160a01b039092169163e51d682291349161047090869060200161160e565b604051602081830303815290604052805190602001206104bd6104b88860405160200161049d919061160e565b60405160208183030381529060405280519060200120610cfc565b610d47565b6040805160c08101909152806104d68c60e08301611686565b60408051601f19818403018152918152908252602082018c9052016001815266038d7ea4c680006020808301829052604080840192909252670de0b6b3a764000060609384015281519283018252636f89cca760e11b8352632bf0a7c960e01b9083015230828201525160e088901b6001600160e01b031916815261056695949392919033903490600401611746565b60206040518083038185885af1158015610584573d6000803e3d6000fd5b50505050506040513d601f19601f820116820180604052508101906105a99190611838565b60048190556040517f3d915b32add8e7980db8e35f910a48ca106b574650d46772e12dd217cbd8cf07916104259187908790611851565b600180546105ed906113bd565b80601f0160208091040260200160405190810160405280929190818152602001828054610619906113bd565b80156106665780601f1061063b57610100808354040283529160200191610666565b820191906000526020600020905b81548152906001019060200180831161064957829003601f168201915b505050505081565b600354156106de5760005460035460405163e2d6f51b60e01b81526001600160a01b039092169163e2d6f51b916106ab9160040190815260200190565b600060405180830381600087803b1580156106c557600080fd5b505af11580156106d9573d6000803e3d6000fd5b505050505b60008060009054906101000a90046001600160a01b03166001600160a01b031663647846a56040518163ffffffff1660e01b8152600401602060405180830381865afa158015610732573d6000803e3d6000fd5b505050506040513d601f19601f82011682018060405250810190610756919061187c565b6040516370a0823160e01b81523060048201526001600160a01b0391909116906370a0823190602401602060405180830381865afa15801561079c573d6000803e3d6000fd5b505050506040513d601f19601f820116820180604052508101906107c09190611838565b90506000811161081e5760405162461bcd60e51b8152602060048201526024808201527f4e6f7420656e6f75676820746f6b656e7320746f20737461727420612073657360448201526339b4b7b760e11b6064820152608401610263565b6000546040805163669e34ad60e11b8152905161090a926001600160a01b03169163cd3c695a9160048083019260209291908290030181865afa158015610869573d6000803e3d6000fd5b505050506040513d601f19601f8201168201806040525081019061088d919061187c565b6000546040805163647846a560e01b8152905185926001600160a01b03169163647846a59160048083019260209291908290030181865afa1580156108d6573d6000803e3d6000fd5b505050506040513d601f19601f820116820180604052508101906108fa919061187c565b6001600160a01b03169190610dac565b60008054906101000a90046001600160a01b03166001600160a01b0316636d8de31f6040518163ffffffff1660e01b81526004016020604051808303816000875af115801561095d573d6000803e3d6000fd5b505050506040513d601f19601f820116820180604052508101906109819190611838565b60035550565b600580546105ed906113bd565b6003546000036109a6576109a661066e565b6000546003546040516001600160a01b039092169163e51d68229134916109d190889060200161160e565b604051602081830303815290604052805190602001206109fe6104b88a60405160200161049d919061160e565b6040805160c0810190915280610a198e8b8b60e085016118a5565b60408051601f19818403018152918152908252602082018e9052016000815266038d7ea4c680006020808301829052604080840192909252670de0b6b3a764000060609384015281519283018252630b19c36760e21b8352632bf0a7c960e01b9083015230828201525160e088901b6001600160e01b0319168152610aa995949392919033903490600401611746565b60206040518083038185885af1158015610ac7573d6000803e3d6000fd5b50505050506040513d601f19601f82011682018060405250810190610aec9190611838565b60048190556040517f3d915b32add8e7980db8e35f910a48ca106b574650d46772e12dd217cbd8cf0791610b239189908990611851565b60405180910390a1505050505050565b600280546105ed906113bd565b6000546001600160a01b03163314610b6a5760405162461bcd60e51b8152600401610263906112ae565b6000805460405163d1e4be0760e01b815260048101849052829182916001600160a01b039091169063d1e4be0790602401600060405180830381865afa158015610bb8573d6000803e3d6000fd5b505050506040513d6000823e601f3d908101601f19168201604052610be09190810190611335565b92509250925080806020019051810190610bfa91906114fc565b600190610c07908261143e565b507f08f93959aad2aac56d31361838e94d53bcf69cd431b8851b72466477b7e064ef8484846001604051610425949392919061154e565b60408051600280825260608201909252600091816020015b6060815260200190600190039081610c565790505090506040518060a00160405280606181526020016118ef6061913981600081518110610c9957610c996118d8565b60200260200101819052508381600181518110610cb857610cb86118d8565b60209081029190910181019190915260408051601a92810192909252308282015280518083038201815260609092019052610cf582828686610433565b5050505050565b60408051600180825281830190925260609160009190602080830190803683370190505090508281600081518110610d3657610d366118d8565b602090810291909101015292915050565b610d766040805160a0810182526060808252602082018190526000928201839052810182905290608082015290565b5060408051600080825260c0820183526020820182815292820193909352600160608201526008608082015260a0019190915290565b604080516001600160a01b038416602482015260448082018490528251808303909101815260649091019091526020810180516001600160e01b031663a9059cbb60e01b179052610dfe908490610e03565b505050565b600080602060008451602086016000885af180610e26576040513d6000823e3d81fd5b50506000513d91508115610e3e578060011415610e4b565b6001600160a01b0384163b155b15610e7457604051635274afe760e01b81526001600160a01b0385166004820152602401610263565b50505050565b600060208284031215610e8c57600080fd5b5035919050565b634e487b7160e01b600052604160045260246000fd5b604051601f8201601f191681016001600160401b0381118282101715610ed157610ed1610e93565b604052919050565b60006001600160401b03821115610ef257610ef2610e93565b50601f01601f191660200190565b600082601f830112610f1157600080fd5b8135602083016000610f2a610f2584610ed9565b610ea9565b9050828152858383011115610f3e57600080fd5b82826020830137600092810160200192909252509392505050565b600082601f830112610f6a57600080fd5b81356001600160401b03811115610f8357610f83610e93565b8060051b610f9360208201610ea9565b91825260208185018101929081019086841115610faf57600080fd5b6020860192505b83831015610ff55782356001600160401b03811115610fd457600080fd5b610fe3886020838a0101610f00565b83525060209283019290910190610fb6565b9695505050505050565b6000806000806080858703121561101557600080fd5b84356001600160401b0381111561102b57600080fd5b61103787828801610f59565b94505060208501356001600160401b0381111561105357600080fd5b61105f87828801610f00565b93505060408501356001600160401b0381111561107b57600080fd5b61108787828801610f00565b92505060608501356001600160401b038111156110a357600080fd5b6110af87828801610f00565b91505092959194509250565b60005b838110156110d65781810151838201526020016110be565b50506000910152565b600081518084526110f78160208601602086016110bb565b601f01601f19169290920160200192915050565b60208152600061111e60208301846110df565b9392505050565b80356001600160401b038116811461113c57600080fd5b919050565b60008060008060008060c0878903121561115a57600080fd5b86356001600160401b0381111561117057600080fd5b61117c89828a01610f59565b96505060208701356001600160401b0381111561119857600080fd5b6111a489828a01610f00565b95505060408701356001600160401b038111156111c057600080fd5b6111cc89828a01610f00565b94505060608701356001600160401b038111156111e857600080fd5b6111f489828a01610f00565b93505061120360808801611125565b915061121160a08801611125565b90509295509295509295565b60008060006060848603121561123257600080fd5b83356001600160401b0381111561124857600080fd5b61125486828701610f00565b93505060208401356001600160401b0381111561127057600080fd5b61127c86828701610f00565b92505060408401356001600160401b0381111561129857600080fd5b6112a486828701610f00565b9150509250925092565b6020808252601f908201527f4f6e6c792044746e2063616e2063616c6c20746869732066756e6374696f6e00604082015260600190565b60006112f3610f2584610ed9565b905082815283838301111561130757600080fd5b61111e8360208301846110bb565b600082601f83011261132657600080fd5b61111e838351602085016112e5565b60008060006060848603121561134a57600080fd5b83516003811061135957600080fd5b60208501519093506001600160401b0381111561137557600080fd5b61138186828701611315565b92505060408401516001600160401b0381111561139d57600080fd5b8401601f810186136113ae57600080fd5b6112a4868251602084016112e5565b600181811c908216806113d157607f821691505b6020821081036113f157634e487b7160e01b600052602260045260246000fd5b50919050565b601f821115610dfe57806000526020600020601f840160051c8101602085101561141e5750805b601f840160051c820191505b81811015610cf5576000815560010161142a565b81516001600160401b0381111561145757611457610e93565b61146b8161146584546113bd565b846113f7565b6020601f82116001811461149f57600083156114875750848201515b600019600385901b1c1916600184901b178455610cf5565b600084815260208120601f198516915b828110156114cf57878501518255602094850194600190920191016114af565b50848210156114ed5786840151600019600387901b60f8161c191681555b50505050600190811b01905550565b60006020828403121561150e57600080fd5b81516001600160401b0381111561152457600080fd5b61153084828501611315565b949350505050565b634e487b7160e01b600052602160045260246000fd5b84815260006003851061156357611563611538565b8460208301526080604083015261157d60808301856110df565b828103606084015260008454611592816113bd565b8084526001821680156115ac57600181146115c8576115ff565b60ff1983166020860152602082151560051b86010193506115ff565b87600052602060002060005b838110156115f6578154602082890101526001820191506020810190506115d4565b86016020019450505b50919998505050505050505050565b600082516116208184602087016110bb565b9190910192915050565b600082825180855260208501945060208160051b8301016020850160005b8381101561167a57601f198584030188526116648383516110df565b6020988901989093509190910190600101611648565b50909695505050505050565b60208152600061111e602083018461162a565b600081518084526020840193506020830160005b828110156116cb5781518652602095860195909101906001016116ad565b5093949350505050565b6000815160c084526116ea60c08501826110df565b90506020830151848203602086015261170382826110df565b91505060408301516002811061171b5761171b611538565b6040850152606083810151908501526080808401519085015260a09283015192909301919091525090565b87815286602082015261012060408201526000865160a06101208401526117716101c0840182611699565b9050602088015161011f19848303016101408501526117908282611699565b91505063ffffffff60408901511661016084015260ff6060890151166101808401526080880151600581106117c7576117c7611538565b6101a084015282810360608401526117df81886116d5565b86516001600160e01b0319908116608086015260208801511660a085015260408701516001600160a01b031660c085015291506118199050565b6001600160a01b039390931660e0820152610100015295945050505050565b60006020828403121561184a57600080fd5b5051919050565b83815260606020820152600061186a606083018561162a565b8281036040840152610ff581856110df565b60006020828403121561188e57600080fd5b81516001600160a01b038116811461111e57600080fd5b6060815260006118b8606083018661162a565b6001600160401b0394851660208401529290931660409091015292915050565b634e487b7160e01b600052603260045260246000fdfe54686973206973206d65746164617461202d207b303a75696e74387d20616e64207b313a616464726573737d202d2e2049676e6f726520746865206d6574616461746120616e6420616e7377657220746865206e657874207175657374696f6e3aa2646970667358221220dfd2abb2d6da591e76a3089eb56b7d7b06557ff75099ac13ec8d6c6836fdcd2064736f6c634300081c0033",
  "linkReferences": {},
  "deployedLinkReferences": {}
}