{
  "_format": "hh-sol-artifact-1",
  "contractName": "CallAiExample",
  "sourceName": "contracts/example/direct/call-ai-example.sol",
  "abi": [
    {
      "inputs": [
        {
          "internalType": "address",
          "name": "ai",
          "type": "address"
        }
      ],
      "stateMutability": "nonpayable",
      "type": "constructor"
    },
    {
      "inputs": [
        {
          "internalType": "address",
          "name": "token",
          "type": "address"
        }
      ],
      "name": "SafeERC20FailedOperation",
      "type": "error"
    },
    {
      "anonymous": false,
      "inputs": [
        {
          "indexed": false,
          "internalType": "bytes32",
          "name": "requestId",
          "type": "bytes32"
        }
      ],
      "name": "Error",
      "type": "event"
    },
    {
      "anonymous": false,
      "inputs": [
        {
          "indexed": false,
          "internalType": "bytes32",
          "name": "requestId",
          "type": "bytes32"
        },
        {
          "indexed": false,
          "internalType": "string[]",
          "name": "prompt_lines",
          "type": "string[]"
        },
        {
          "indexed": false,
          "internalType": "bytes",
          "name": "extraParams",
          "type": "bytes"
        }
      ],
      "name": "Request",
      "type": "event"
    },
    {
      "anonymous": false,
      "inputs": [
        {
          "indexed": false,
          "internalType": "bytes32",
          "name": "requestId",
          "type": "bytes32"
        },
        {
          "indexed": false,
          "internalType": "enum IDtnAi.ResponseStatus",
          "name": "status",
          "type": "uint8"
        },
        {
          "indexed": false,
          "internalType": "string",
          "name": "message",
          "type": "string"
        },
        {
          "indexed": false,
          "internalType": "string",
          "name": "result",
          "type": "string"
        }
      ],
      "name": "Result",
      "type": "event"
    },
    {
      "inputs": [],
      "name": "ai",
      "outputs": [
        {
          "internalType": "contract IDtnAi",
          "name": "",
          "type": "address"
        }
      ],
      "stateMutability": "view",
      "type": "function"
    },
    {
      "inputs": [
        {
          "internalType": "bytes32",
          "name": "_requestId",
          "type": "bytes32"
        }
      ],
      "name": "aiError",
      "outputs": [],
      "stateMutability": "nonpayable",
      "type": "function"
    },
    {
      "inputs": [
        {
          "internalType": "bytes32",
          "name": "_requestId",
          "type": "bytes32"
        }
      ],
      "name": "callback",
      "outputs": [],
      "stateMutability": "nonpayable",
      "type": "function"
    },
    {
      "inputs": [
        {
          "internalType": "bytes32",
          "name": "_requestId",
          "type": "bytes32"
        }
      ],
      "name": "callbackIpfs",
      "outputs": [],
      "stateMutability": "nonpayable",
      "type": "function"
    },
    {
      "inputs": [
        {
          "internalType": "string",
          "name": "prompt",
          "type": "string"
        },
        {
          "internalType": "string",
          "name": "node",
          "type": "string"
        },
        {
          "internalType": "string",
          "name": "model",
          "type": "string"
        }
      ],
      "name": "doCallAi",
      "outputs": [],
      "stateMutability": "payable",
      "type": "function"
    },
    {
      "inputs": [
        {
          "internalType": "string[]",
          "name": "prompt_lines",
          "type": "string[]"
        },
        {
          "internalType": "bytes",
          "name": "extraParamsEncoded",
          "type": "bytes"
        },
        {
          "internalType": "string",
          "name": "node",
          "type": "string"
        },
        {
          "internalType": "string",
          "name": "model",
          "type": "string"
        }
      ],
      "name": "doCallAiDetailed",
      "outputs": [],
      "stateMutability": "payable",
      "type": "function"
    },
    {
      "inputs": [
        {
          "internalType": "string[]",
          "name": "prompt_lines",
          "type": "string[]"
        },
        {
          "internalType": "bytes",
          "name": "extraParamsEncoded",
          "type": "bytes"
        },
        {
          "internalType": "string",
          "name": "node",
          "type": "string"
        },
        {
          "internalType": "string",
          "name": "model",
          "type": "string"
        },
        {
          "internalType": "uint64",
          "name": "width",
          "type": "uint64"
        },
        {
          "internalType": "uint64",
          "name": "height",
          "type": "uint64"
        }
      ],
      "name": "doCallAiImage",
      "outputs": [],
      "stateMutability": "payable",
      "type": "function"
    },
    {
      "inputs": [],
      "name": "error",
      "outputs": [
        {
          "internalType": "string",
          "name": "",
          "type": "string"
        }
      ],
      "stateMutability": "view",
      "type": "function"
    },
    {
      "inputs": [],
      "name": "ipfsCid",
      "outputs": [
        {
          "internalType": "string",
          "name": "",
          "type": "string"
        }
      ],
      "stateMutability": "view",
      "type": "function"
    },
    {
      "inputs": [],
      "name": "requestId",
      "outputs": [
        {
          "internalType": "bytes32",
          "name": "",
          "type": "bytes32"
        }
      ],
      "stateMutability": "view",
      "type": "function"
    },
    {
      "inputs": [],
      "name": "restartSession",
      "outputs": [],
      "stateMutability": "nonpayable",
      "type": "function"
    },
    {
      "inputs": [],
      "name": "result",
      "outputs": [
        {
          "internalType": "string",
          "name": "",
          "type": "string"
        }
      ],
      "stateMutability": "view",
      "type": "function"
    },
    {
      "inputs": [],
      "name": "sessionId",
      "outputs": [
        {
          "internalType": "uint256",
          "name": "",
          "type": "uint256"
        }
      ],
      "stateMutability": "view",
      "type": "function"
    }
  ],
  "bytecode": "0x6080604052348015600f57600080fd5b506040516119f83803806119f8833981016040819052602c91604c565b600080546001600160a01b0319166001600160a01b03831617905550607a565b600060208284031215605d57600080fd5b81516001600160a01b0381168114607357600080fd5b9392505050565b61196f806100896000396000f3fe6080604052600436106100c15760003560e01c8063795769e51161007f5780639648c9f4116100595780639648c9f4146101db578063c79f8b62146101f1578063df13994e14610206578063e1ceef121461022657600080fd5b8063795769e51461019e5780637b914674146101b35780638c18a443146101c857600080fd5b80626d6cae146100c65780632bf0a7c9146100ef5780632c670d9c14610111578063413a4d8614610131578063653721471461014457806368be1b1e14610166575b600080fd5b3480156100d257600080fd5b506100dc60045481565b6040519081526020015b60405180910390f35b3480156100fb57600080fd5b5061010f61010a366004610e64565b610239565b005b34801561011d57600080fd5b5061010f61012c366004610e64565b610327565b61010f61013f366004610fe9565b610433565b34801561015057600080fd5b506101596105d5565b6040516100e691906110f5565b34801561017257600080fd5b50600054610186906001600160a01b031681565b6040516001600160a01b0390911681526020016100e6565b3480156101aa57600080fd5b5061010f610663565b3480156101bf57600080fd5b5061015961097c565b61010f6101d636600461112b565b610989565b3480156101e757600080fd5b506100dc60035481565b3480156101fd57600080fd5b50610159610b1d565b34801561021257600080fd5b5061010f610221366004610e64565b610b2a565b61010f610234366004611207565b610c28565b6000546001600160a01b0316331461026c5760405162461bcd60e51b815260040161026390611298565b60405180910390fd5b6000805460405163d1e4be0760e01b8152600481018490526001600160a01b039091169063d1e4be0790602401600060405180830381865afa1580156102b6573d6000803e3d6000fd5b505050506040513d6000823e601f3d908101601f191682016040526102de919081019061131f565b509150600290506102ef8282611428565b506040518281527fc0feee4291bd5b20db53763b87864bd1434da2717d6a9ba76efa4bafa8f6a99c9060200160405180910390a15050565b6000546001600160a01b031633146103515760405162461bcd60e51b815260040161026390611298565b6000805460405163d1e4be0760e01b815260048101849052829182916001600160a01b039091169063d1e4be0790602401600060405180830381865afa15801561039f573d6000803e3d6000fd5b505050506040513d6000823e601f3d908101601f191682016040526103c7919081019061131f565b925092509250808060200190518101906103e191906114e6565b6005906103ee9082611428565b507f08f93959aad2aac56d31361838e94d53bcf69cd431b8851b72466477b7e064ef84848460056040516104259493929190611538565b60405180910390a150505050565b60035460000361044557610445610663565b6000546003546040516001600160a01b039092169163e51d68229134916104709086906020016115f8565b604051602081830303815290604052805190602001206104bd6104b88860405160200161049d91906115f8565b60405160208183030381529060405280519060200120610ce6565b610d31565b6040805160c08101909152806104d68c60e08301611670565b60408051601f19818403018152918152908252602082018c9052016001815260056020808301829052604080840192909252620f424060609384015281519283018252636f89cca760e11b8352632bf0a7c960e01b9083015230828201525160e088901b6001600160e01b031916815261055b95949392919033903490600401611730565b60206040518083038185885af1158015610579573d6000803e3d6000fd5b50505050506040513d601f19601f8201168201806040525081019061059e9190611822565b60048190556040517f3d915b32add8e7980db8e35f910a48ca106b574650d46772e12dd217cbd8cf0791610425918790879061183b565b600180546105e2906113a7565b80601f016020809104026020016040519081016040528092919081815260200182805461060e906113a7565b801561065b5780601f106106305761010080835404028352916020019161065b565b820191906000526020600020905b81548152906001019060200180831161063e57829003601f168201915b505050505081565b600354156106d35760005460035460405163e2d6f51b60e01b81526001600160a01b039092169163e2d6f51b916106a09160040190815260200190565b600060405180830381600087803b1580156106ba57600080fd5b505af11580156106ce573d6000803e3d6000fd5b505050505b60008060009054906101000a90046001600160a01b03166001600160a01b031663647846a56040518163ffffffff1660e01b8152600401602060405180830381865afa158015610727573d6000803e3d6000fd5b505050506040513d601f19601f8201168201806040525081019061074b9190611866565b6040516370a0823160e01b81523060048201526001600160a01b0391909116906370a0823190602401602060405180830381865afa158015610791573d6000803e3d6000fd5b505050506040513d601f19601f820116820180604052508101906107b59190611822565b9050600081116108135760405162461bcd60e51b8152602060048201526024808201527f4e6f7420656e6f75676820746f6b656e7320746f20737461727420612073657360448201526339b4b7b760e11b6064820152608401610263565b6000546040805163669e34ad60e11b815290516108ff926001600160a01b03169163cd3c695a9160048083019260209291908290030181865afa15801561085e573d6000803e3d6000fd5b505050506040513d601f19601f820116820180604052508101906108829190611866565b6000546040805163647846a560e01b8152905185926001600160a01b03169163647846a59160048083019260209291908290030181865afa1580156108cb573d6000803e3d6000fd5b505050506040513d601f19601f820116820180604052508101906108ef9190611866565b6001600160a01b03169190610d96565b60008054906101000a90046001600160a01b03166001600160a01b0316636d8de31f6040518163ffffffff1660e01b81526004016020604051808303816000875af1158015610952573d6000803e3d6000fd5b505050506040513d601f19601f820116820180604052508101906109769190611822565b60035550565b600580546105e2906113a7565b60035460000361099b5761099b610663565b6000546003546040516001600160a01b039092169163e51d68229134916109c69088906020016115f8565b604051602081830303815290604052805190602001206109f36104b88a60405160200161049d91906115f8565b6040805160c0810190915280610a0e8e8b8b60e0850161188f565b60408051601f19818403018152918152908252602082018e9052016000815260016020808301829052604080840192909252620f424060609384015281519283018252630b19c36760e21b8352632bf0a7c960e01b9083015230828201525160e088901b6001600160e01b0319168152610a9395949392919033903490600401611730565b60206040518083038185885af1158015610ab1573d6000803e3d6000fd5b50505050506040513d601f19601f82011682018060405250810190610ad69190611822565b60048190556040517f3d915b32add8e7980db8e35f910a48ca106b574650d46772e12dd217cbd8cf0791610b0d918990899061183b565b60405180910390a1505050505050565b600280546105e2906113a7565b6000546001600160a01b03163314610b545760405162461bcd60e51b815260040161026390611298565b6000805460405163d1e4be0760e01b815260048101849052829182916001600160a01b039091169063d1e4be0790602401600060405180830381865afa158015610ba2573d6000803e3d6000fd5b505050506040513d6000823e601f3d908101601f19168201604052610bca919081019061131f565b92509250925080806020019051810190610be491906114e6565b600190610bf19082611428565b507f08f93959aad2aac56d31361838e94d53bcf69cd431b8851b72466477b7e064ef84848460016040516104259493929190611538565b60408051600280825260608201909252600091816020015b6060815260200190600190039081610c405790505090506040518060a00160405280606181526020016118d96061913981600081518110610c8357610c836118c2565b60200260200101819052508381600181518110610ca257610ca26118c2565b60209081029190910181019190915260408051601a92810192909252308282015280518083038201815260609092019052610cdf82828686610433565b5050505050565b60408051600180825281830190925260609160009190602080830190803683370190505090508281600081518110610d2057610d206118c2565b602090810291909101015292915050565b610d606040805160a0810182526060808252602082018190526000928201839052810182905290608082015290565b5060408051600080825260c0820183526020820182815292820193909352600160608201526008608082015260a0019190915290565b604080516001600160a01b038416602482015260448082018490528251808303909101815260649091019091526020810180516001600160e01b031663a9059cbb60e01b179052610de8908490610ded565b505050565b600080602060008451602086016000885af180610e10576040513d6000823e3d81fd5b50506000513d91508115610e28578060011415610e35565b6001600160a01b0384163b155b15610e5e57604051635274afe760e01b81526001600160a01b0385166004820152602401610263565b50505050565b600060208284031215610e7657600080fd5b5035919050565b634e487b7160e01b600052604160045260246000fd5b604051601f8201601f191681016001600160401b0381118282101715610ebb57610ebb610e7d565b604052919050565b60006001600160401b03821115610edc57610edc610e7d565b50601f01601f191660200190565b600082601f830112610efb57600080fd5b8135602083016000610f14610f0f84610ec3565b610e93565b9050828152858383011115610f2857600080fd5b82826020830137600092810160200192909252509392505050565b600082601f830112610f5457600080fd5b81356001600160401b03811115610f6d57610f6d610e7d565b8060051b610f7d60208201610e93565b91825260208185018101929081019086841115610f9957600080fd5b6020860192505b83831015610fdf5782356001600160401b03811115610fbe57600080fd5b610fcd886020838a0101610eea565b83525060209283019290910190610fa0565b9695505050505050565b60008060008060808587031215610fff57600080fd5b84356001600160401b0381111561101557600080fd5b61102187828801610f43565b94505060208501356001600160401b0381111561103d57600080fd5b61104987828801610eea565b93505060408501356001600160401b0381111561106557600080fd5b61107187828801610eea565b92505060608501356001600160401b0381111561108d57600080fd5b61109987828801610eea565b91505092959194509250565b60005b838110156110c05781810151838201526020016110a8565b50506000910152565b600081518084526110e18160208601602086016110a5565b601f01601f19169290920160200192915050565b60208152600061110860208301846110c9565b9392505050565b80356001600160401b038116811461112657600080fd5b919050565b60008060008060008060c0878903121561114457600080fd5b86356001600160401b0381111561115a57600080fd5b61116689828a01610f43565b96505060208701356001600160401b0381111561118257600080fd5b61118e89828a01610eea565b95505060408701356001600160401b038111156111aa57600080fd5b6111b689828a01610eea565b94505060608701356001600160401b038111156111d257600080fd5b6111de89828a01610eea565b9350506111ed6080880161110f565b91506111fb60a0880161110f565b90509295509295509295565b60008060006060848603121561121c57600080fd5b83356001600160401b0381111561123257600080fd5b61123e86828701610eea565b93505060208401356001600160401b0381111561125a57600080fd5b61126686828701610eea565b92505060408401356001600160401b0381111561128257600080fd5b61128e86828701610eea565b9150509250925092565b6020808252601f908201527f4f6e6c792044746e2063616e2063616c6c20746869732066756e6374696f6e00604082015260600190565b60006112dd610f0f84610ec3565b90508281528383830111156112f157600080fd5b6111088360208301846110a5565b600082601f83011261131057600080fd5b611108838351602085016112cf565b60008060006060848603121561133457600080fd5b83516003811061134357600080fd5b60208501519093506001600160401b0381111561135f57600080fd5b61136b868287016112ff565b92505060408401516001600160401b0381111561138757600080fd5b8401601f8101861361139857600080fd5b61128e868251602084016112cf565b600181811c908216806113bb57607f821691505b6020821081036113db57634e487b7160e01b600052602260045260246000fd5b50919050565b601f821115610de857806000526020600020601f840160051c810160208510156114085750805b601f840160051c820191505b81811015610cdf5760008155600101611414565b81516001600160401b0381111561144157611441610e7d565b6114558161144f84546113a7565b846113e1565b6020601f82116001811461148957600083156114715750848201515b600019600385901b1c1916600184901b178455610cdf565b600084815260208120601f198516915b828110156114b95787850151825560209485019460019092019101611499565b50848210156114d75786840151600019600387901b60f8161c191681555b50505050600190811b01905550565b6000602082840312156114f857600080fd5b81516001600160401b0381111561150e57600080fd5b61151a848285016112ff565b949350505050565b634e487b7160e01b600052602160045260246000fd5b84815260006003851061154d5761154d611522565b8460208301526080604083015261156760808301856110c9565b82810360608401526000845461157c816113a7565b80845260018216801561159657600181146115b2576115e9565b60ff1983166020860152602082151560051b86010193506115e9565b87600052602060002060005b838110156115e0578154602082890101526001820191506020810190506115be565b86016020019450505b50919998505050505050505050565b6000825161160a8184602087016110a5565b9190910192915050565b600082825180855260208501945060208160051b8301016020850160005b8381101561166457601f1985840301885261164e8383516110c9565b6020988901989093509190910190600101611632565b50909695505050505050565b6020815260006111086020830184611614565b600081518084526020840193506020830160005b828110156116b5578151865260209586019590910190600101611697565b5093949350505050565b6000815160c084526116d460c08501826110c9565b9050602083015184820360208601526116ed82826110c9565b91505060408301516002811061170557611705611522565b6040850152606083810151908501526080808401519085015260a09283015192909301919091525090565b87815286602082015261012060408201526000865160a061012084015261175b6101c0840182611683565b9050602088015161011f198483030161014085015261177a8282611683565b91505063ffffffff60408901511661016084015260ff6060890151166101808401526080880151600581106117b1576117b1611522565b6101a084015282810360608401526117c981886116bf565b86516001600160e01b0319908116608086015260208801511660a085015260408701516001600160a01b031660c085015291506118039050565b6001600160a01b039390931660e0820152610100015295945050505050565b60006020828403121561183457600080fd5b5051919050565b8381526060602082015260006118546060830185611614565b8281036040840152610fdf81856110c9565b60006020828403121561187857600080fd5b81516001600160a01b038116811461110857600080fd5b6060815260006118a26060830186611614565b6001600160401b0394851660208401529290931660409091015292915050565b634e487b7160e01b600052603260045260246000fdfe54686973206973206d65746164617461202d207b303a75696e74387d20616e64207b313a616464726573737d202d2e2049676e6f726520746865206d6574616461746120616e6420616e7377657220746865206e657874207175657374696f6e3aa2646970667358221220aaab2a4605202f010dd6a4992b356f39220510f3c4964f3eeaed4d0eb38c41e464736f6c634300081c0033",
  "linkReferences": {},
  "deployedLinkReferences": {}
}