{
  "_format": "hh-sol-artifact-1",
  "contractName": "NodeManagerUpgradeable",
  "sourceName": "contracts/node/node-manager.sol",
  "abi": [
    {
      "inputs": [],
      "stateMutability": "nonpayable",
      "type": "constructor"
    },
    {
      "inputs": [],
      "name": "AccessControlBadConfirmation",
      "type": "error"
    },
    {
      "inputs": [
        {
          "internalType": "address",
          "name": "account",
          "type": "address"
        },
        {
          "internalType": "bytes32",
          "name": "neededRole",
          "type": "bytes32"
        }
      ],
      "name": "AccessControlUnauthorizedAccount",
      "type": "error"
    },
    {
      "inputs": [
        {
          "internalType": "address",
          "name": "target",
          "type": "address"
        }
      ],
      "name": "AddressEmptyCode",
      "type": "error"
    },
    {
      "inputs": [],
      "name": "ECDSAInvalidSignature",
      "type": "error"
    },
    {
      "inputs": [
        {
          "internalType": "uint256",
          "name": "length",
          "type": "uint256"
        }
      ],
      "name": "ECDSAInvalidSignatureLength",
      "type": "error"
    },
    {
      "inputs": [
        {
          "internalType": "bytes32",
          "name": "s",
          "type": "bytes32"
        }
      ],
      "name": "ECDSAInvalidSignatureS",
      "type": "error"
    },
    {
      "inputs": [
        {
          "internalType": "address",
          "name": "implementation",
          "type": "address"
        }
      ],
      "name": "ERC1967InvalidImplementation",
      "type": "error"
    },
    {
      "inputs": [],
      "name": "ERC1967NonPayable",
      "type": "error"
    },
    {
      "inputs": [],
      "name": "FailedCall",
      "type": "error"
    },
    {
      "inputs": [],
      "name": "InvalidInitialization",
      "type": "error"
    },
    {
      "inputs": [],
      "name": "NotInitializing",
      "type": "error"
    },
    {
      "inputs": [],
      "name": "ReentrancyGuardReentrantCall",
      "type": "error"
    },
    {
      "inputs": [],
      "name": "UUPSUnauthorizedCallContext",
      "type": "error"
    },
    {
      "inputs": [
        {
          "internalType": "bytes32",
          "name": "slot",
          "type": "bytes32"
        }
      ],
      "name": "UUPSUnsupportedProxiableUUID",
      "type": "error"
    },
    {
      "anonymous": false,
      "inputs": [
        {
          "indexed": false,
          "internalType": "uint64",
          "name": "version",
          "type": "uint64"
        }
      ],
      "name": "Initialized",
      "type": "event"
    },
    {
      "anonymous": false,
      "inputs": [
        {
          "indexed": true,
          "internalType": "bytes32",
          "name": "nodeId",
          "type": "bytes32"
        },
        {
          "indexed": false,
          "internalType": "bytes32[]",
          "name": "modelIds",
          "type": "bytes32[]"
        }
      ],
      "name": "NodeModelsUpdated",
      "type": "event"
    },
    {
      "anonymous": false,
      "inputs": [
        {
          "indexed": true,
          "internalType": "bytes32",
          "name": "nodeId",
          "type": "bytes32"
        },
        {
          "indexed": false,
          "internalType": "string[]",
          "name": "namespaces",
          "type": "string[]"
        }
      ],
      "name": "NodeNamespacesUpdated",
      "type": "event"
    },
    {
      "anonymous": false,
      "inputs": [
        {
          "indexed": true,
          "internalType": "bytes32",
          "name": "nodeId",
          "type": "bytes32"
        },
        {
          "indexed": true,
          "internalType": "address",
          "name": "staker",
          "type": "address"
        },
        {
          "indexed": false,
          "internalType": "address",
          "name": "worker",
          "type": "address"
        }
      ],
      "name": "NodeRegistered",
      "type": "event"
    },
    {
      "anonymous": false,
      "inputs": [
        {
          "indexed": true,
          "internalType": "bytes32",
          "name": "nodeId",
          "type": "bytes32"
        },
        {
          "indexed": false,
          "internalType": "uint256",
          "name": "responseRate",
          "type": "uint256"
        },
        {
          "indexed": false,
          "internalType": "uint256",
          "name": "validAnswerRate",
          "type": "uint256"
        },
        {
          "indexed": false,
          "internalType": "uint256",
          "name": "complainRate",
          "type": "uint256"
        }
      ],
      "name": "NodeScoresUpdated",
      "type": "event"
    },
    {
      "anonymous": false,
      "inputs": [
        {
          "indexed": true,
          "internalType": "bytes32",
          "name": "nodeId",
          "type": "bytes32"
        },
        {
          "indexed": false,
          "internalType": "bool",
          "name": "isActive",
          "type": "bool"
        }
      ],
      "name": "NodeStatusUpdated",
      "type": "event"
    },
    {
      "anonymous": false,
      "inputs": [
        {
          "indexed": true,
          "internalType": "bytes32",
          "name": "role",
          "type": "bytes32"
        },
        {
          "indexed": true,
          "internalType": "bytes32",
          "name": "previousAdminRole",
          "type": "bytes32"
        },
        {
          "indexed": true,
          "internalType": "bytes32",
          "name": "newAdminRole",
          "type": "bytes32"
        }
      ],
      "name": "RoleAdminChanged",
      "type": "event"
    },
    {
      "anonymous": false,
      "inputs": [
        {
          "indexed": true,
          "internalType": "bytes32",
          "name": "role",
          "type": "bytes32"
        },
        {
          "indexed": true,
          "internalType": "address",
          "name": "account",
          "type": "address"
        },
        {
          "indexed": true,
          "internalType": "address",
          "name": "sender",
          "type": "address"
        }
      ],
      "name": "RoleGranted",
      "type": "event"
    },
    {
      "anonymous": false,
      "inputs": [
        {
          "indexed": true,
          "internalType": "bytes32",
          "name": "role",
          "type": "bytes32"
        },
        {
          "indexed": true,
          "internalType": "address",
          "name": "account",
          "type": "address"
        },
        {
          "indexed": true,
          "internalType": "address",
          "name": "sender",
          "type": "address"
        }
      ],
      "name": "RoleRevoked",
      "type": "event"
    },
    {
      "anonymous": false,
      "inputs": [
        {
          "indexed": true,
          "internalType": "address",
          "name": "implementation",
          "type": "address"
        }
      ],
      "name": "Upgraded",
      "type": "event"
    },
    {
      "anonymous": false,
      "inputs": [
        {
          "indexed": true,
          "internalType": "bytes32",
          "name": "userId",
          "type": "bytes32"
        },
        {
          "indexed": true,
          "internalType": "address",
          "name": "owner",
          "type": "address"
        },
        {
          "indexed": false,
          "internalType": "address",
          "name": "staker",
          "type": "address"
        }
      ],
      "name": "UserRegistered",
      "type": "event"
    },
    {
      "inputs": [],
      "name": "DEFAULT_ADMIN_ROLE",
      "outputs": [
        {
          "internalType": "bytes32",
          "name": "",
          "type": "bytes32"
        }
      ],
      "stateMutability": "view",
      "type": "function"
    },
    {
      "inputs": [],
      "name": "UPGRADE_INTERFACE_VERSION",
      "outputs": [
        {
          "internalType": "string",
          "name": "",
          "type": "string"
        }
      ],
      "stateMutability": "view",
      "type": "function"
    },
    {
      "inputs": [
        {
          "internalType": "bytes32",
          "name": "nodeId",
          "type": "bytes32"
        }
      ],
      "name": "getNode",
      "outputs": [
        {
          "components": [
            {
              "internalType": "address",
              "name": "owner",
              "type": "address"
            },
            {
              "internalType": "address",
              "name": "staker",
              "type": "address"
            },
            {
              "internalType": "address",
              "name": "worker",
              "type": "address"
            },
            {
              "internalType": "bytes32[]",
              "name": "trustNamespaces",
              "type": "bytes32[]"
            },
            {
              "internalType": "uint256[]",
              "name": "trustNamespaceExpirations",
              "type": "uint256[]"
            },
            {
              "internalType": "bytes32",
              "name": "nodeNamespaceId",
              "type": "bytes32"
            },
            {
              "internalType": "bool",
              "name": "isActive",
              "type": "bool"
            },
            {
              "internalType": "uint256",
              "name": "stakedAmount",
              "type": "uint256"
            },
            {
              "internalType": "bytes32",
              "name": "id",
              "type": "bytes32"
            }
          ],
          "internalType": "struct INodeManager.NodeData",
          "name": "",
          "type": "tuple"
        }
      ],
      "stateMutability": "view",
      "type": "function"
    },
    {
      "inputs": [
        {
          "internalType": "bytes32",
          "name": "nodeId",
          "type": "bytes32"
        }
      ],
      "name": "getNodeModels",
      "outputs": [
        {
          "internalType": "bytes32[]",
          "name": "",
          "type": "bytes32[]"
        }
      ],
      "stateMutability": "view",
      "type": "function"
    },
    {
      "inputs": [
        {
          "internalType": "bytes32",
          "name": "modelId",
          "type": "bytes32"
        }
      ],
      "name": "getNodesServingModel",
      "outputs": [
        {
          "internalType": "bytes32[]",
          "name": "",
          "type": "bytes32[]"
        }
      ],
      "stateMutability": "view",
      "type": "function"
    },
    {
      "inputs": [
        {
          "internalType": "bytes32",
          "name": "role",
          "type": "bytes32"
        }
      ],
      "name": "getRoleAdmin",
      "outputs": [
        {
          "internalType": "bytes32",
          "name": "",
          "type": "bytes32"
        }
      ],
      "stateMutability": "view",
      "type": "function"
    },
    {
      "inputs": [
        {
          "internalType": "string",
          "name": "username",
          "type": "string"
        }
      ],
      "name": "getUserId",
      "outputs": [
        {
          "internalType": "bytes32",
          "name": "",
          "type": "bytes32"
        }
      ],
      "stateMutability": "view",
      "type": "function"
    },
    {
      "inputs": [
        {
          "internalType": "bytes32",
          "name": "userId",
          "type": "bytes32"
        }
      ],
      "name": "getUserName",
      "outputs": [
        {
          "internalType": "string",
          "name": "",
          "type": "string"
        }
      ],
      "stateMutability": "view",
      "type": "function"
    },
    {
      "inputs": [
        {
          "internalType": "bytes32",
          "name": "role",
          "type": "bytes32"
        },
        {
          "internalType": "address",
          "name": "account",
          "type": "address"
        }
      ],
      "name": "grantRole",
      "outputs": [],
      "stateMutability": "nonpayable",
      "type": "function"
    },
    {
      "inputs": [
        {
          "internalType": "bytes32",
          "name": "role",
          "type": "bytes32"
        },
        {
          "internalType": "address",
          "name": "account",
          "type": "address"
        }
      ],
      "name": "hasRole",
      "outputs": [
        {
          "internalType": "bool",
          "name": "",
          "type": "bool"
        }
      ],
      "stateMutability": "view",
      "type": "function"
    },
    {
      "inputs": [
        {
          "internalType": "address",
          "name": "namespaceManager",
          "type": "address"
        },
        {
          "internalType": "uint256",
          "name": "minStakeAmount_",
          "type": "uint256"
        }
      ],
      "name": "initialize",
      "outputs": [],
      "stateMutability": "nonpayable",
      "type": "function"
    },
    {
      "inputs": [
        {
          "internalType": "bytes32",
          "name": "nodeId",
          "type": "bytes32"
        },
        {
          "internalType": "bytes32",
          "name": "namespaceId",
          "type": "bytes32"
        }
      ],
      "name": "nodeHasTrustNamespace",
      "outputs": [
        {
          "internalType": "bool",
          "name": "",
          "type": "bool"
        }
      ],
      "stateMutability": "view",
      "type": "function"
    },
    {
      "inputs": [
        {
          "internalType": "bytes32",
          "name": "nodeId",
          "type": "bytes32"
        },
        {
          "internalType": "bytes32",
          "name": "modelId",
          "type": "bytes32"
        }
      ],
      "name": "nodeServesModel",
      "outputs": [
        {
          "internalType": "bool",
          "name": "",
          "type": "bool"
        }
      ],
      "stateMutability": "view",
      "type": "function"
    },
    {
      "inputs": [
        {
          "internalType": "bytes32",
          "name": "nodeId",
          "type": "bytes32"
        },
        {
          "internalType": "bytes32",
          "name": "namespaceId",
          "type": "bytes32"
        }
      ],
      "name": "nodeTrustNamespaceExpiration",
      "outputs": [
        {
          "internalType": "uint256",
          "name": "",
          "type": "uint256"
        }
      ],
      "stateMutability": "view",
      "type": "function"
    },
    {
      "inputs": [],
      "name": "proxiableUUID",
      "outputs": [
        {
          "internalType": "bytes32",
          "name": "",
          "type": "bytes32"
        }
      ],
      "stateMutability": "view",
      "type": "function"
    },
    {
      "inputs": [
        {
          "internalType": "string",
          "name": "username",
          "type": "string"
        },
        {
          "internalType": "string",
          "name": "nodeName",
          "type": "string"
        },
        {
          "internalType": "address",
          "name": "worker",
          "type": "address"
        }
      ],
      "name": "registerNode",
      "outputs": [],
      "stateMutability": "payable",
      "type": "function"
    },
    {
      "inputs": [
        {
          "internalType": "string",
          "name": "username",
          "type": "string"
        },
        {
          "internalType": "address",
          "name": "staker",
          "type": "address"
        }
      ],
      "name": "registerUser",
      "outputs": [],
      "stateMutability": "nonpayable",
      "type": "function"
    },
    {
      "inputs": [
        {
          "internalType": "bytes32",
          "name": "nodeId",
          "type": "bytes32"
        },
        {
          "internalType": "bytes32[]",
          "name": "modelIds",
          "type": "bytes32[]"
        }
      ],
      "name": "removeModelsFromNode",
      "outputs": [],
      "stateMutability": "nonpayable",
      "type": "function"
    },
    {
      "inputs": [
        {
          "internalType": "bytes32",
          "name": "role",
          "type": "bytes32"
        },
        {
          "internalType": "address",
          "name": "callerConfirmation",
          "type": "address"
        }
      ],
      "name": "renounceRole",
      "outputs": [],
      "stateMutability": "nonpayable",
      "type": "function"
    },
    {
      "inputs": [
        {
          "internalType": "bytes32",
          "name": "role",
          "type": "bytes32"
        },
        {
          "internalType": "address",
          "name": "account",
          "type": "address"
        }
      ],
      "name": "revokeRole",
      "outputs": [],
      "stateMutability": "nonpayable",
      "type": "function"
    },
    {
      "inputs": [
        {
          "internalType": "bytes32",
          "name": "nodeId",
          "type": "bytes32"
        },
        {
          "internalType": "bytes32[]",
          "name": "modelIds",
          "type": "bytes32[]"
        }
      ],
      "name": "setNodeModels",
      "outputs": [],
      "stateMutability": "nonpayable",
      "type": "function"
    },
    {
      "inputs": [
        {
          "internalType": "bytes32",
          "name": "nodeId",
          "type": "bytes32"
        },
        {
          "internalType": "bool",
          "name": "isActive",
          "type": "bool"
        }
      ],
      "name": "setNodeStatus",
      "outputs": [],
      "stateMutability": "nonpayable",
      "type": "function"
    },
    {
      "inputs": [
        {
          "internalType": "bytes4",
          "name": "interfaceId",
          "type": "bytes4"
        }
      ],
      "name": "supportsInterface",
      "outputs": [
        {
          "internalType": "bool",
          "name": "",
          "type": "bool"
        }
      ],
      "stateMutability": "view",
      "type": "function"
    },
    {
      "inputs": [
        {
          "internalType": "bytes32",
          "name": "nodeId",
          "type": "bytes32"
        },
        {
          "internalType": "string[]",
          "name": "namespaces",
          "type": "string[]"
        },
        {
          "internalType": "uint256[]",
          "name": "namespaceExpirations",
          "type": "uint256[]"
        },
        {
          "internalType": "bytes[]",
          "name": "namespaceSignatures",
          "type": "bytes[]"
        }
      ],
      "name": "updateNodeNamespaces",
      "outputs": [],
      "stateMutability": "nonpayable",
      "type": "function"
    },
    {
      "inputs": [
        {
          "internalType": "address",
          "name": "newImplementation",
          "type": "address"
        },
        {
          "internalType": "bytes",
          "name": "data",
          "type": "bytes"
        }
      ],
      "name": "upgradeToAndCall",
      "outputs": [],
      "stateMutability": "payable",
      "type": "function"
    }
  ],
  "bytecode": "0x60a060405230608052348015601357600080fd5b506080516132a561003d60003960008181611be801528181611c110152611db301526132a56000f3fe6080604052600436106101665760003560e01c806352d1902d116100d1578063ad3cb1cc1161008a578063d547741f11610064578063d547741f14610438578063db1ef71f14610458578063dd55b00c14610478578063ede0e0151461049857600080fd5b8063ad3cb1cc146103c7578063c400c197146103f8578063cd6dc6871461041857600080fd5b806352d1902d1461031d5780635a641d321461033257806370d271b51461035257806388d448961461037257806391d1485414610392578063a217fddf146103b257600080fd5b80632f2ff15d116101235780632f2ff15d1461025057806336568abe146102705780633cce4b5f14610290578063416b26df146102bd5780634f1ef286146102dd57806350c946fe146102f057600080fd5b806301ffc9a71461016b5780630e54b872146101a05780631e892ccf146101c257806321a11805146101f0578063248a9ca31461021d5780632b764a311461023d575b600080fd5b34801561017757600080fd5b5061018b610186366004612783565b6104b8565b60405190151581526020015b60405180910390f35b3480156101ac57600080fd5b506101c06101bb366004612870565b6104ef565b005b3480156101ce57600080fd5b506101e26101dd3660046128c1565b610788565b604051908152602001610197565b3480156101fc57600080fd5b5061021061020b3660046128e3565b6107b1565b604051610197919061294c565b34801561022957600080fd5b506101e26102383660046128e3565b61085d565b6101c061024b36600461295f565b61087f565b34801561025c57600080fd5b506101c061026b3660046129da565b610bee565b34801561027c57600080fd5b506101c061028b3660046129da565b610c10565b34801561029c57600080fd5b506102b06102ab3660046128e3565b610c48565b6040516101979190612a3b565b3480156102c957600080fd5b506102b06102d83660046128e3565b610cbb565b6101c06102eb366004612a4e565b610d2d565b3480156102fc57600080fd5b5061031061030b3660046128e3565b610d4c565b6040516101979190612ab1565b34801561032957600080fd5b506101e2610ec7565b34801561033e57600080fd5b506101c061034d366004612bc2565b610ee4565b34801561035e57600080fd5b506101c061036d366004612bc2565b6111e0565b34801561037e57600080fd5b506101c061038d366004612c0d565b6114dc565b34801561039e57600080fd5b5061018b6103ad3660046129da565b6115a0565b3480156103be57600080fd5b506101e2600081565b3480156103d357600080fd5b50610210604051806040016040528060058152602001640352e302e360dc1b81525081565b34801561040457600080fd5b506101c0610413366004612c37565b6115d8565b34801561042457600080fd5b506101c0610433366004612ce4565b6117d7565b34801561044457600080fd5b506101c06104533660046129da565b61191a565b34801561046457600080fd5b506101e2610473366004612d10565b611936565b34801561048457600080fd5b5061018b6104933660046128c1565b6119ab565b3480156104a457600080fd5b5061018b6104b33660046128c1565b6119d7565b60006001600160e01b03198216637965db0b60e01b14806104e957506301ffc9a760e01b6001600160e01b03198316145b92915050565b60006104f9611a03565b905060008360405160200161050e9190612d82565b604051602081830303815290604052805190602001209050816001016000828152602001908152602001600020805461054690612d9e565b1590506105905760405162461bcd60e51b81526020600482015260136024820152725573657220616c72656164792065786973747360681b60448201526064015b60405180910390fd5b6000846040516020016105a39190612dd8565b60405160208183030381529060405290506000856040516020016105c79190612e05565b60405160208183030381529060405290506000866040516020016105eb9190612e38565b60408051601f19818403018152908290528654634b4fc53560e11b83529092506001600160a01b03169063969f8a6a9061062b9086903390600401612e69565b600060405180830381600087803b15801561064557600080fd5b505af1158015610659573d6000803e3d6000fd5b50508654604051634b4fc53560e11b81526001600160a01b03909116925063969f8a6a915061068e9085903390600401612e69565b600060405180830381600087803b1580156106a857600080fd5b505af11580156106bc573d6000803e3d6000fd5b50508654604051634b4fc53560e11b81526001600160a01b03909116925063969f8a6a91506106f19084903390600401612e69565b600060405180830381600087803b15801561070b57600080fd5b505af115801561071f573d6000803e3d6000fd5b50505060008581526001870160205260409020905061073e8882612ee1565b506040516001600160a01b0387168152339085907f0f0edefceab8e3cdf9b415b2ebc81cd912885ac2a40f021cb5fd2fc2f7ab76ac9060200160405180910390a350505050505050565b6000610792611a03565b6000938452600701602090815260408085209385529290525090205490565b60606107bb611a03565b60008381526001919091016020526040902080546107d890612d9e565b80601f016020809104026020016040519081016040528092919081815260200182805461080490612d9e565b80156108515780601f1061082657610100808354040283529160200191610851565b820191906000526020600020905b81548152906001019060200180831161083457829003601f168201915b50505050509050919050565b6000908152600080516020613250833981519152602052604090206001015490565b6000610889611a03565b905060008460405160200161089e9190612dd8565b6040516020818303038152906040529050600081856040516020016108c4929190612f9f565b60405160208183030381529060405290506000826040516020016108e89190612d82565b6040516020818303038152906040528051906020012090506000826040516020016109139190612d82565b60405160208183030381529060405280519060200120905061093483611a27565b6109646040518060400160405280600f81526020016e1b9bd91953985b595cdc1858d95259608a1b815250611a27565b61096d81611a6d565b60008181526002860160205260409020546001600160a01b0316156109ca5760405162461bcd60e51b81526020600482015260136024820152724e6f646520616c72656164792065786973747360681b6044820152606401610587565b8454604051633529e71d60e11b81526004810184905233916001600160a01b031690636a53ce3a90602401602060405180830381865afa158015610a12573d6000803e3d6000fd5b505050506040513d601f19601f82011682018060405250810190610a369190612fdb565b6001600160a01b031614610a825760405162461bcd60e51b81526020600482015260136024820152722737ba103730b6b2b9b830b1b29037bbb732b960691b6044820152606401610587565b60408051610120810182523380825260208083019182526001600160a01b038a81168486019081528551600080825281850188526060870191825287518181528086018952608088015260a08701899052600160c088018190523460e089015261010088018a905289825260028e8101875298909120875181549086166001600160a01b0319918216178255965191810180549286169288169290921790915591519682018054979093169690941695909517905590518051929392610b4e9260038501920190612709565b5060808201518051610b6a916004840191602090910190612709565b5060a0820151600582015560c082015160068201805460ff191691151591909117905560e08201516007820155610100909101516008909101556040516001600160a01b0387168152339082907fcd94d968f34587266f0b6cc2cae4eea2be9e79a2d13cd3da7f8a24a8d6efef889060200160405180910390a35050505050505050565b610bf78261085d565b610c0081611ab2565b610c0a8383611abc565b50505050565b6001600160a01b0381163314610c395760405163334bd91960e11b815260040160405180910390fd5b610c438282611b61565b505050565b6060610c52611a03565b600301600083815260200190815260200160002080548060200260200160405190810160405280929190818152602001828054801561085157602002820191906000526020600020905b815481526020019060010190808311610c9c5750505050509050919050565b6060610cc5611a03565b60050160008381526020019081526020016000208054806020026020016040519081016040528092919081815260200182805480156108515760200282019190600052602060002090815481526020019060010190808311610c9c5750505050509050919050565b610d35611bdd565b610d3e82611c84565b610d488282611ceb565b5050565b60408051610120810182526000808252602082018190529181018290526060808201819052608082015260a0810182905260c0810182905260e08101829052610100810182905290610d9c611a03565b60008481526002918201602090815260409182902082516101208101845281546001600160a01b03908116825260018301548116828501529482015490941684840152600381018054845181850281018501909552808552919550606085019392909190830182828015610e2f57602002820191906000526020600020905b815481526020019060010190808311610e1b575b5050505050815260200182600401805480602002602001604051908101604052809291908181526020018280548015610e8757602002820191906000526020600020905b815481526020019060010190808311610e73575b505050918352505060058301546020820152600683015460ff16151560408201526007830154606082015260089092015460809092019190915292915050565b6000610ed1611da8565b5060008051602061323083398151915290565b6000610eee611a03565b60008581526002820160205260409020549091506001600160a01b03163314610f4a5760405162461bcd60e51b815260206004820152600e60248201526d2737ba103737b2329037bbb732b960911b6044820152606401610587565b60008481526003820160205260408120905b838110156111a0576000858583818110610f7857610f78612ff8565b60008a81526008880160209081526040808320938202959095013580835292905292909220549192505060ff16610ff15760405162461bcd60e51b815260206004820152601a60248201527f4d6f64656c206e6f742061737369676e656420746f206e6f64650000000000006044820152606401610587565b600087815260088501602090815260408083208484528252808320805460ff199081169091556004880183528184208b8552835281842080549091169055838352600587019091528120905b81548110156110e7578882828154811061105957611059612ff8565b9060005260206000200154036110df578154829061107990600190613024565b8154811061108957611089612ff8565b90600052602060002001548282815481106110a6576110a6612ff8565b9060005260206000200181905550818054806110c4576110c4613037565b600190038181906000526020600020016000905590556110e7565b60010161103d565b5060005b8454811015611195578285828154811061110757611107612ff8565b90600052602060002001540361118d578454859061112790600190613024565b8154811061113757611137612ff8565b906000526020600020015485828154811061115457611154612ff8565b90600052602060002001819055508480548061117257611172613037565b60019003818190600052602060002001600090559055611195565b6001016110eb565b505050600101610f5c565b50847f0eae3b28f5733d08492d71ca3c0c9636a95ad4e99a67358eccf608921aacbb8b826040516111d1919061304d565b60405180910390a25050505050565b60006111ea611a03565b60008581526002820160205260409020549091506001600160a01b031633146112465760405162461bcd60e51b815260206004820152600e60248201526d2737ba103737b2329037bbb732b960911b6044820152606401610587565b600084815260028201602052604090206006015460ff1661129e5760405162461bcd60e51b81526020600482015260126024820152714e6f6465206973206e6f742061637469766560701b6044820152606401610587565b60008481526003820160205260408120905b81548110156113db5760008282815481106112cd576112cd612ff8565b600091825260208083209091015489835260088701825260408084208285528352808420805460ff199081169091556004890184528185208c865284528185208054909116905581845260058801909252908220909250905b81548110156113d0578882828154811061134257611342612ff8565b9060005260206000200154036113c8578154829061136290600190613024565b8154811061137257611372612ff8565b906000526020600020015482828154811061138f5761138f612ff8565b9060005260206000200181905550818054806113ad576113ad613037565b600190038181906000526020600020016000905590556113d0565b600101611326565b5050506001016112b0565b50600085815260038301602052604081206113f591612754565b60005b838110156114a957600085858381811061141457611414612ff8565b60008a815260038801602090815260408083208054600181810183559185528385209584029790970135949096018490558c835260088a0182528083208484528252808320805460ff19908116881790915560048b0183528184208e855283528184208054909116871790559282526005890181529181208054808601825590825291902001899055509190910190506113f8565b50847f0eae3b28f5733d08492d71ca3c0c9636a95ad4e99a67358eccf608921aacbb8b85856040516111d1929190613093565b60006114e6611a03565b60008481526002820160205260409020549091506001600160a01b031633146115435760405162461bcd60e51b815260206004820152600f60248201526e2737ba103737b2329039ba30b5b2b960891b6044820152606401610587565b6000838152600282016020908152604091829020600601805460ff1916851515908117909155915191825284917fed2bf659025c6e41a9002b0f00cdfb398811c6fde9a8b71a04b6180ab7023a25910160405180910390a2505050565b6000918252600080516020613250833981519152602090815260408084206001600160a01b0393909316845291905290205460ff1690565b60006115e2611a03565b60008981526002820160205260409020600101549091506001600160a01b031633146116425760405162461bcd60e51b815260206004820152600f60248201526e2737ba103737b2329039ba30b5b2b960891b6044820152606401610587565b8582146116915760405162461bcd60e51b815260206004820152601960248201527f496e76616c6964207369676e617475726573206c656e677468000000000000006044820152606401610587565b61169a88611df1565b60005b868110156117925760006117648a8a8a858181106116bd576116bd612ff8565b90506020028101906116cf91906130cc565b8080601f0160208091040260200160405190810160405280939291908181526020018383808284376000920191909152508a925089915087905081811061171857611718612ff8565b905060200281019061172a91906130cc565b8080601f016020809104026020016040519081016040528093929190818152602001838380828437600092019190915250611eba92505050565b90506117898a8289898681811061177d5761177d612ff8565b90506020020135612171565b5060010161169d565b50877f5d5eaf3328741f490f94e06c9f41c57e6387252c6bf92913a6bce82a0667bfdf88886040516117c592919061313b565b60405180910390a25050505050505050565b60006117e16121f4565b805490915060ff600160401b82041615906001600160401b03166000811580156118085750825b90506000826001600160401b031660011480156118245750303b155b905081158015611832575080155b156118505760405163f92ee8a960e01b815260040160405180910390fd5b845467ffffffffffffffff19166001178555831561187a57845460ff60401b1916600160401b1785555b61188261221d565b61188a612225565b6118948787612235565b61189f600033611abc565b506118ca7fb19546dff01e856fb3f010c267a7b1c60363cf8a4664e21cc89c26224620214e33611abc565b50831561191157845460ff60401b19168555604051600181527fc7f505b2f371ae2175ee4913f4499e1f2633a7b5936321eed1cdaeb6115181d29060200160405180910390a15b50505050505050565b6119238261085d565b61192c81611ab2565b610c0a8383611b61565b600080611941611a03565b9050600084846040516020016119589291906131dd565b604051602081830303815290604052805190602001209050816001016000828152602001908152602001600020805461199090612d9e565b90506000036119a05760006119a2565b805b95945050505050565b60006119b5611a03565b6000938452600601602090815260408085209385529290525090205460ff1690565b60006119e1611a03565b6000938452600801602090815260408085209385529290525090205460ff1690565b7ff1d8a1fbd219fcf17256caa0b8a67d409449fa7722eca5860c9b170f56e7330090565b611a6a81604051602401611a3b919061294c565b60408051601f198184030181529190526020810180516001600160e01b031663104c13eb60e21b17905261226e565b50565b611a6a81604051602401611a8391815260200190565b60408051601f198184030181529190526020810180516001600160e01b03166327b7cf8560e01b17905261226e565b611a6a8133612277565b6000600080516020613250833981519152611ad784846115a0565b611b57576000848152602082815260408083206001600160a01b03871684529091529020805460ff19166001179055611b0d3390565b6001600160a01b0316836001600160a01b0316857f2f8788117e7eff1d82e926ec794901d17c78024a50270940304540a733656f0d60405160405180910390a460019150506104e9565b60009150506104e9565b6000600080516020613250833981519152611b7c84846115a0565b15611b57576000848152602082815260408083206001600160a01b0387168085529252808320805460ff1916905551339287917ff6391f5c32d9c69d2a47ea670b442974b53935d1edc7fd64eb21e047a839171b9190a460019150506104e9565b306001600160a01b037f0000000000000000000000000000000000000000000000000000000000000000161480611c6457507f00000000000000000000000000000000000000000000000000000000000000006001600160a01b0316611c58600080516020613230833981519152546001600160a01b031690565b6001600160a01b031614155b15611c825760405163703e46dd60e11b815260040160405180910390fd5b565b611cae7fb19546dff01e856fb3f010c267a7b1c60363cf8a4664e21cc89c26224620214e336115a0565b611a6a5760405162461bcd60e51b815260206004820152600e60248201526d139bdd08185d5d1a1bdc9a5e995960921b6044820152606401610587565b816001600160a01b03166352d1902d6040518163ffffffff1660e01b8152600401602060405180830381865afa925050508015611d45575060408051601f3d908101601f19168201909252611d42918101906131ed565b60015b611d6d57604051634c9c8ce360e01b81526001600160a01b0383166004820152602401610587565b6000805160206132308339815191528114611d9e57604051632a87526960e21b815260048101829052602401610587565b610c4383836122b0565b306001600160a01b037f00000000000000000000000000000000000000000000000000000000000000001614611c825760405163703e46dd60e11b815260040160405180910390fd5b6000611dfb611a03565b600083815260028201602052604081209192506003909101905b8154811015611e7b576000828281548110611e3257611e32612ff8565b600091825260208083209091015487835260068701825260408084208285528352808420805460ff19169055888452600788018352808420918452915281205550600101611e15565b5060008381526002830160205260408120611e9b91600390910190612754565b60008381526002830160205260408120610c4391600490910190612754565b60008083604051602001611ece9190612d82565b6040516020818303038152906040528051906020012090506000611ef0611a03565b54604051633529e71d60e11b8152600481018490526001600160a01b0390911690636a53ce3a90602401602060405180830381865afa158015611f37573d6000803e3d6000fd5b505050506040513d601f19601f82011682018060405250810190611f5b9190612fdb565b90506001600160a01b038116611fb35760405162461bcd60e51b815260206004820152601860248201527f4e616d65737061636520646f6573206e6f7420657869737400000000000000006044820152606401610587565b60007fb59cd2aa2be6c2d9ca017765cc959485d18c4a6da40e0d85880b6c4a9e72b03e878780519060200120426301e13380611fef9190613206565b6040805160208101959095528401929092526060830152608082015260a00160408051601f1981840301815282825280516020918201207f8b73c3c69bb8fe3d512ecc4cf759cc79239f7b179b0ffacaa9a75d522b39400f918401919091527faedc9e7c9871efcbcbd95d49d17e4c3cf7cab8e8a62f1f22d4ba0c03840f2d61918301919091527fc89efdaa54c0f20c7adf612882df0950f5a951637e0307cdcb4c672f298b8bc660608301524660808301523060a0830152915060009060c00160408051601f1981840301815290829052805160209182012061190160f01b9183019190915260228201526042810183905260620160408051601f1981840301815291905280516020909101209050600061210b8288612306565b9050836001600160a01b0316816001600160a01b0316146121625760405162461bcd60e51b8152602060048201526011602482015270496e76616c6964207369676e617475726560781b6044820152606401610587565b509293505050505b9392505050565b600061217b611a03565b600085815260028201602090815260408083206003810180546001818101835591865284862001899055600490910180548083018255908552838520018790558884526006850183528184208885528352818420805460ff19169091179055968252600790920182528581209481529390525091902055565b6000807ff0c57e16840df040f15088dc2f81fe391c3923bec73e23a9662efc9c229c6a006104e9565b611c82612330565b61222d612330565b611c82612355565b61223d612330565b6000612247611a03565b80546001600160a01b0319166001600160a01b039490941693909317835550600990910155565b611a6a81612383565b61228182826115a0565b610d485760405163e2517d3f60e01b81526001600160a01b038216600482015260248101839052604401610587565b6122b9826123a4565b6040516001600160a01b038316907fbc7cd75a20ee27fd9adebab32041f755214dbc6bffa90cc0225b39da2e5c2d3b90600090a28051156122fe57610c438282612409565b610d48612476565b6000806000806123168686612495565b92509250925061232682826124e2565b5090949350505050565b61233861259b565b611c8257604051631afcd79f60e31b815260040160405180910390fd5b61235d612330565b60017f9b779b17422d0df92223018b32b4d1fa46e071723d6817e2486d003becc55f0055565b60006a636f6e736f6c652e6c6f679050600080835160208501845afa505050565b806001600160a01b03163b6000036123da57604051634c9c8ce360e01b81526001600160a01b0382166004820152602401610587565b60008051602061323083398151915280546001600160a01b0319166001600160a01b0392909216919091179055565b6060600080846001600160a01b0316846040516124269190612d82565b600060405180830381855af49150503d8060008114612461576040519150601f19603f3d011682016040523d82523d6000602084013e612466565b606091505b50915091506119a28583836125b5565b3415611c825760405163b398979f60e01b815260040160405180910390fd5b600080600083516041036124cf5760208401516040850151606086015160001a6124c188828585612611565b9550955095505050506124db565b50508151600091506002905b9250925092565b60008260038111156124f6576124f6613219565b036124ff575050565b600182600381111561251357612513613219565b036125315760405163f645eedf60e01b815260040160405180910390fd5b600282600381111561254557612545613219565b036125665760405163fce698f760e01b815260048101829052602401610587565b600382600381111561257a5761257a613219565b03610d48576040516335e2f38360e21b815260048101829052602401610587565b60006125a56121f4565b54600160401b900460ff16919050565b6060826125ca576125c5826126e0565b61216a565b81511580156125e157506001600160a01b0384163b155b1561260a57604051639996b31560e01b81526001600160a01b0385166004820152602401610587565b508061216a565b600080807f7fffffffffffffffffffffffffffffff5d576e7357a4501ddfe92f46681b20a084111561264c57506000915060039050826126d6565b604080516000808252602082018084528a905260ff891692820192909252606081018790526080810186905260019060a0016020604051602081039080840390855afa1580156126a0573d6000803e3d6000fd5b5050604051601f1901519150506001600160a01b0381166126cc575060009250600191508290506126d6565b9250600091508190505b9450945094915050565b8051156126f05780518082602001fd5b60405163d6bda27560e01b815260040160405180910390fd5b828054828255906000526020600020908101928215612744579160200282015b82811115612744578251825591602001919060010190612729565b5061275092915061276e565b5090565b5080546000825590600052602060002090810190611a6a91905b5b80821115612750576000815560010161276f565b60006020828403121561279557600080fd5b81356001600160e01b03198116811461216a57600080fd5b634e487b7160e01b600052604160045260246000fd5b6000806001600160401b038411156127dd576127dd6127ad565b50604051601f19601f85018116603f011681018181106001600160401b038211171561280b5761280b6127ad565b60405283815290508082840185101561282357600080fd5b83836020830137600060208583010152509392505050565b600082601f83011261284c57600080fd5b61216a838335602085016127c3565b6001600160a01b0381168114611a6a57600080fd5b6000806040838503121561288357600080fd5b82356001600160401b0381111561289957600080fd5b6128a58582860161283b565b92505060208301356128b68161285b565b809150509250929050565b600080604083850312156128d457600080fd5b50508035926020909101359150565b6000602082840312156128f557600080fd5b5035919050565b60005b838110156129175781810151838201526020016128ff565b50506000910152565b600081518084526129388160208601602086016128fc565b601f01601f19169290920160200192915050565b60208152600061216a6020830184612920565b60008060006060848603121561297457600080fd5b83356001600160401b0381111561298a57600080fd5b6129968682870161283b565b93505060208401356001600160401b038111156129b257600080fd5b6129be8682870161283b565b92505060408401356129cf8161285b565b809150509250925092565b600080604083850312156129ed57600080fd5b8235915060208301356128b68161285b565b600081518084526020840193506020830160005b82811015612a31578151865260209586019590910190600101612a13565b5093949350505050565b60208152600061216a60208301846129ff565b60008060408385031215612a6157600080fd5b8235612a6c8161285b565b915060208301356001600160401b03811115612a8757600080fd5b8301601f81018513612a9857600080fd5b612aa7858235602084016127c3565b9150509250929050565b60208152612acb6020820183516001600160a01b03169052565b60006020830151612ae760408401826001600160a01b03169052565b5060408301516001600160a01b03811660608401525060608301516101206080840152612b186101408401826129ff565b90506080840151601f198483030160a0850152612b3582826129ff565b91505060a084015160c084015260c0840151612b5560e085018215159052565b5060e08401516101008401526101008401516101208401528091505092915050565b60008083601f840112612b8957600080fd5b5081356001600160401b03811115612ba057600080fd5b6020830191508360208260051b8501011115612bbb57600080fd5b9250929050565b600080600060408486031215612bd757600080fd5b8335925060208401356001600160401b03811115612bf457600080fd5b612c0086828701612b77565b9497909650939450505050565b60008060408385031215612c2057600080fd5b82359150602083013580151581146128b657600080fd5b60008060008060008060006080888a031215612c5257600080fd5b8735965060208801356001600160401b03811115612c6f57600080fd5b612c7b8a828b01612b77565b90975095505060408801356001600160401b03811115612c9a57600080fd5b612ca68a828b01612b77565b90955093505060608801356001600160401b03811115612cc557600080fd5b612cd18a828b01612b77565b989b979a50959850939692959293505050565b60008060408385031215612cf757600080fd5b8235612d028161285b565b946020939093013593505050565b60008060208385031215612d2357600080fd5b82356001600160401b03811115612d3957600080fd5b8301601f81018513612d4a57600080fd5b80356001600160401b03811115612d6057600080fd5b856020828401011115612d7257600080fd5b6020919091019590945092505050565b60008251612d948184602087016128fc565b9190910192915050565b600181811c90821680612db257607f821691505b602082108103612dd257634e487b7160e01b600052602260045260246000fd5b50919050565b643737b2329760d91b815260008251612df88160058501602087016128fc565b9190910160050192915050565b6a36b7b232b6173737b2329760a91b815260008251612e2b81600b8501602087016128fc565b91909101600b0192915050565b6830b834973737b2329760b91b815260008251612e5c8160098501602087016128fc565b9190910160090192915050565b604081526000612e7c6040830185612920565b905060018060a01b03831660208301529392505050565b601f821115610c4357806000526020600020601f840160051c81016020851015612eba5750805b601f840160051c820191505b81811015612eda5760008155600101612ec6565b5050505050565b81516001600160401b03811115612efa57612efa6127ad565b612f0e81612f088454612d9e565b84612e93565b6020601f821160018114612f425760008315612f2a5750848201515b600019600385901b1c1916600184901b178455612eda565b600084815260208120601f198516915b82811015612f725787850151825560209485019460019092019101612f52565b5084821015612f905786840151600019600387901b60f8161c191681555b50505050600190811b01905550565b60008351612fb18184602088016128fc565b601760f91b9083019081528351612fcf8160018401602088016128fc565b01600101949350505050565b600060208284031215612fed57600080fd5b815161216a8161285b565b634e487b7160e01b600052603260045260246000fd5b634e487b7160e01b600052601160045260246000fd5b818103818111156104e9576104e961300e565b634e487b7160e01b600052603160045260246000fd5b602080825282548282018190526000848152918220906040840190835b8181101561308857835483526001938401936020909301920161306a565b509095945050505050565b6020808252810182905260006001600160fb1b038311156130b357600080fd5b8260051b80856040850137919091016040019392505050565b6000808335601e198436030181126130e357600080fd5b8301803591506001600160401b038211156130fd57600080fd5b602001915036819003821315612bbb57600080fd5b81835281816020850137506000828201602090810191909152601f909101601f19169091010190565b6020808252810182905260006040600584901b830181019083018583601e1936839003015b878210156131d057868503603f19018452823581811261317f57600080fd5b89016020810190356001600160401b0381111561319b57600080fd5b8036038213156131aa57600080fd5b6131b5878284613112565b96505050602083019250602084019350600182019150613160565b5092979650505050505050565b8183823760009101908152919050565b6000602082840312156131ff57600080fd5b5051919050565b808201808211156104e9576104e961300e565b634e487b7160e01b600052602160045260246000fdfe360894a13ba1a3210667c828492db98dca3e2076cc3735a920a3ca505d382bbc02dd7bc7dec4dceedda775e58dd541e08a116c6c53815c0bd028192f7b626800a26469706673582212200fe6b89a95a4343849782ebd5add3e4ab1a9d9c5d6fdcb157a443c25e399d4a864736f6c634300081c0033",
  "linkReferences": {},
  "deployedLinkReferences": {}
}