{
  "_format": "hh-sol-artifact-1",
  "contractName": "ModelManagerUpgradeable",
  "sourceName": "contracts/model/model-manager.sol",
  "abi": [
    {
      "inputs": [],
      "name": "AccessControlBadConfirmation",
      "type": "error"
    },
    {
      "inputs": [
        {
          "internalType": "address",
          "name": "account",
          "type": "address"
        },
        {
          "internalType": "bytes32",
          "name": "neededRole",
          "type": "bytes32"
        }
      ],
      "name": "AccessControlUnauthorizedAccount",
      "type": "error"
    },
    {
      "inputs": [],
      "name": "InvalidInitialization",
      "type": "error"
    },
    {
      "inputs": [
        {
          "internalType": "string",
          "name": "modelApi",
          "type": "string"
        }
      ],
      "name": "InvalidModelApi",
      "type": "error"
    },
    {
      "inputs": [
        {
          "internalType": "string",
          "name": "modelName",
          "type": "string"
        }
      ],
      "name": "InvalidModelName",
      "type": "error"
    },
    {
      "inputs": [
        {
          "internalType": "string",
          "name": "namespace",
          "type": "string"
        }
      ],
      "name": "NamespaceAlreadyExists",
      "type": "error"
    },
    {
      "inputs": [
        {
          "internalType": "string",
          "name": "namespace",
          "type": "string"
        }
      ],
      "name": "NamespaceNotFound",
      "type": "error"
    },
    {
      "inputs": [],
      "name": "NotInitializing",
      "type": "error"
    },
    {
      "inputs": [
        {
          "internalType": "string",
          "name": "namespace",
          "type": "string"
        }
      ],
      "name": "UnauthorizedNamespaceAccess",
      "type": "error"
    },
    {
      "anonymous": false,
      "inputs": [
        {
          "indexed": false,
          "internalType": "uint64",
          "name": "version",
          "type": "uint64"
        }
      ],
      "name": "Initialized",
      "type": "event"
    },
    {
      "anonymous": false,
      "inputs": [
        {
          "indexed": false,
          "internalType": "string",
          "name": "namespace",
          "type": "string"
        },
        {
          "indexed": false,
          "internalType": "string",
          "name": "api",
          "type": "string"
        },
        {
          "indexed": false,
          "internalType": "string",
          "name": "docs",
          "type": "string"
        }
      ],
      "name": "ModelAPIRegistered",
      "type": "event"
    },
    {
      "anonymous": false,
      "inputs": [
        {
          "indexed": false,
          "internalType": "string",
          "name": "namespace",
          "type": "string"
        },
        {
          "indexed": false,
          "internalType": "address",
          "name": "owner",
          "type": "address"
        }
      ],
      "name": "ModelNamespaceRegistered",
      "type": "event"
    },
    {
      "anonymous": false,
      "inputs": [
        {
          "indexed": false,
          "internalType": "string",
          "name": "namespace",
          "type": "string"
        },
        {
          "indexed": false,
          "internalType": "string",
          "name": "modelName",
          "type": "string"
        },
        {
          "indexed": false,
          "internalType": "bytes32",
          "name": "modelId",
          "type": "bytes32"
        }
      ],
      "name": "ModelRegistered",
      "type": "event"
    },
    {
      "anonymous": false,
      "inputs": [
        {
          "indexed": true,
          "internalType": "bytes32",
          "name": "role",
          "type": "bytes32"
        },
        {
          "indexed": true,
          "internalType": "bytes32",
          "name": "previousAdminRole",
          "type": "bytes32"
        },
        {
          "indexed": true,
          "internalType": "bytes32",
          "name": "newAdminRole",
          "type": "bytes32"
        }
      ],
      "name": "RoleAdminChanged",
      "type": "event"
    },
    {
      "anonymous": false,
      "inputs": [
        {
          "indexed": true,
          "internalType": "bytes32",
          "name": "role",
          "type": "bytes32"
        },
        {
          "indexed": true,
          "internalType": "address",
          "name": "account",
          "type": "address"
        },
        {
          "indexed": true,
          "internalType": "address",
          "name": "sender",
          "type": "address"
        }
      ],
      "name": "RoleGranted",
      "type": "event"
    },
    {
      "anonymous": false,
      "inputs": [
        {
          "indexed": true,
          "internalType": "bytes32",
          "name": "role",
          "type": "bytes32"
        },
        {
          "indexed": true,
          "internalType": "address",
          "name": "account",
          "type": "address"
        },
        {
          "indexed": true,
          "internalType": "address",
          "name": "sender",
          "type": "address"
        }
      ],
      "name": "RoleRevoked",
      "type": "event"
    },
    {
      "inputs": [],
      "name": "DEFAULT_ADMIN_ROLE",
      "outputs": [
        {
          "internalType": "bytes32",
          "name": "",
          "type": "bytes32"
        }
      ],
      "stateMutability": "view",
      "type": "function"
    },
    {
      "inputs": [],
      "name": "NAMESPACE_ADMIN_ROLE",
      "outputs": [
        {
          "internalType": "bytes32",
          "name": "",
          "type": "bytes32"
        }
      ],
      "stateMutability": "view",
      "type": "function"
    },
    {
      "inputs": [
        {
          "internalType": "bytes32",
          "name": "_modelId",
          "type": "bytes32"
        }
      ],
      "name": "getModelAPI",
      "outputs": [
        {
          "components": [
            {
              "internalType": "bytes32",
              "name": "apiNamespaceId",
              "type": "bytes32"
            },
            {
              "internalType": "string",
              "name": "apiName",
              "type": "string"
            },
            {
              "internalType": "bytes32",
              "name": "apiId",
              "type": "bytes32"
            },
            {
              "internalType": "string",
              "name": "specs",
              "type": "string"
            },
            {
              "internalType": "string",
              "name": "docs",
              "type": "string"
            }
          ],
          "internalType": "struct IModelManager.ModelApi",
          "name": "",
          "type": "tuple"
        }
      ],
      "stateMutability": "view",
      "type": "function"
    },
    {
      "inputs": [
        {
          "internalType": "bytes32",
          "name": "_modelId",
          "type": "bytes32"
        }
      ],
      "name": "getModelConfig",
      "outputs": [
        {
          "components": [
            {
              "internalType": "bytes32",
              "name": "modelNamespaceId",
              "type": "bytes32"
            },
            {
              "internalType": "bytes32",
              "name": "modelId",
              "type": "bytes32"
            },
            {
              "internalType": "bytes32",
              "name": "modelApiId",
              "type": "bytes32"
            },
            {
              "internalType": "string",
              "name": "modelName",
              "type": "string"
            }
          ],
          "internalType": "struct IModelManager.ModelConfig",
          "name": "",
          "type": "tuple"
        }
      ],
      "stateMutability": "view",
      "type": "function"
    },
    {
      "inputs": [],
      "name": "getNamespaceManager",
      "outputs": [
        {
          "internalType": "address",
          "name": "",
          "type": "address"
        }
      ],
      "stateMutability": "view",
      "type": "function"
    },
    {
      "inputs": [
        {
          "internalType": "bytes32",
          "name": "role",
          "type": "bytes32"
        }
      ],
      "name": "getRoleAdmin",
      "outputs": [
        {
          "internalType": "bytes32",
          "name": "",
          "type": "bytes32"
        }
      ],
      "stateMutability": "view",
      "type": "function"
    },
    {
      "inputs": [],
      "name": "getRouter",
      "outputs": [
        {
          "internalType": "address",
          "name": "",
          "type": "address"
        }
      ],
      "stateMutability": "view",
      "type": "function"
    },
    {
      "inputs": [
        {
          "internalType": "bytes32",
          "name": "role",
          "type": "bytes32"
        },
        {
          "internalType": "address",
          "name": "account",
          "type": "address"
        }
      ],
      "name": "grantRole",
      "outputs": [],
      "stateMutability": "nonpayable",
      "type": "function"
    },
    {
      "inputs": [
        {
          "internalType": "bytes32",
          "name": "role",
          "type": "bytes32"
        },
        {
          "internalType": "address",
          "name": "account",
          "type": "address"
        }
      ],
      "name": "hasRole",
      "outputs": [
        {
          "internalType": "bool",
          "name": "",
          "type": "bool"
        }
      ],
      "stateMutability": "view",
      "type": "function"
    },
    {
      "inputs": [
        {
          "internalType": "address",
          "name": "owner",
          "type": "address"
        }
      ],
      "name": "initialize",
      "outputs": [],
      "stateMutability": "nonpayable",
      "type": "function"
    },
    {
      "inputs": [
        {
          "internalType": "bytes32",
          "name": "_modelId",
          "type": "bytes32"
        }
      ],
      "name": "modelExists",
      "outputs": [
        {
          "internalType": "bool",
          "name": "",
          "type": "bool"
        }
      ],
      "stateMutability": "view",
      "type": "function"
    },
    {
      "inputs": [
        {
          "internalType": "string",
          "name": "modelFullName",
          "type": "string"
        }
      ],
      "name": "modelId",
      "outputs": [
        {
          "internalType": "bytes32",
          "name": "",
          "type": "bytes32"
        }
      ],
      "stateMutability": "pure",
      "type": "function"
    },
    {
      "inputs": [
        {
          "internalType": "string",
          "name": "namespace",
          "type": "string"
        },
        {
          "internalType": "string",
          "name": "modelName",
          "type": "string"
        },
        {
          "internalType": "string",
          "name": "modelApi",
          "type": "string"
        }
      ],
      "name": "registerModel",
      "outputs": [
        {
          "internalType": "bytes32",
          "name": "",
          "type": "bytes32"
        }
      ],
      "stateMutability": "nonpayable",
      "type": "function"
    },
    {
      "inputs": [
        {
          "internalType": "string",
          "name": "namespace",
          "type": "string"
        },
        {
          "internalType": "string",
          "name": "apiName",
          "type": "string"
        },
        {
          "internalType": "string",
          "name": "specs",
          "type": "string"
        },
        {
          "internalType": "string",
          "name": "docs",
          "type": "string"
        }
      ],
      "name": "registerModelAPI",
      "outputs": [],
      "stateMutability": "nonpayable",
      "type": "function"
    },
    {
      "inputs": [
        {
          "internalType": "bytes32",
          "name": "role",
          "type": "bytes32"
        },
        {
          "internalType": "address",
          "name": "callerConfirmation",
          "type": "address"
        }
      ],
      "name": "renounceRole",
      "outputs": [],
      "stateMutability": "nonpayable",
      "type": "function"
    },
    {
      "inputs": [
        {
          "internalType": "bytes32",
          "name": "role",
          "type": "bytes32"
        },
        {
          "internalType": "address",
          "name": "account",
          "type": "address"
        }
      ],
      "name": "revokeRole",
      "outputs": [],
      "stateMutability": "nonpayable",
      "type": "function"
    },
    {
      "inputs": [
        {
          "internalType": "address",
          "name": "_router",
          "type": "address"
        },
        {
          "internalType": "address",
          "name": "_namespaceManager",
          "type": "address"
        }
      ],
      "name": "setDependencies",
      "outputs": [],
      "stateMutability": "nonpayable",
      "type": "function"
    },
    {
      "inputs": [
        {
          "internalType": "bytes4",
          "name": "interfaceId",
          "type": "bytes4"
        }
      ],
      "name": "supportsInterface",
      "outputs": [
        {
          "internalType": "bool",
          "name": "",
          "type": "bool"
        }
      ],
      "stateMutability": "view",
      "type": "function"
    }
  ],
  "bytecode": "0x6080604052348015600f57600080fd5b506116cd8061001f6000396000f3fe608060405234801561001057600080fd5b50600436106101165760003560e01c80636200fdc1116100a2578063b0f479a111610071578063b0f479a114610296578063c4d66de8146102c6578063d547741f146102d9578063e5c31ee0146102ec578063e87c28a71461030157600080fd5b80636200fdc1146102485780637715fcc31461026857806391d148541461027b578063a217fddf1461028e57600080fd5b806328d2f47f116100e957806328d2f47f146101da5780632f2ff15d146101fa57806336568abe1461020f578063437172bc14610222578063552c99271461023557600080fd5b806301ffc9a71461011b578063022964d2146101435780631ef5467c14610187578063248a9ca3146101b9575b600080fd5b61012e610129366004610fed565b610314565b60405190151581526020015b60405180910390f35b61012e61015136600461101e565b60009081527f317ad3d122488b64c2d86bf285bd2d0e9a7289d8b50201f32d6abb04fde8a3036020526040902060010154151590565b600080516020611658833981519152546001600160a01b03165b6040516001600160a01b03909116815260200161013a565b6101cc6101c736600461101e565b61034b565b60405190815260200161013a565b6101ed6101e836600461101e565b61036d565b60405161013a9190611087565b61020d610208366004611110565b6105e1565b005b61020d61021d366004611110565b610603565b6101cc6102303660046111e3565b61063b565b61020d61024336600461121f565b61066b565b61025b61025636600461101e565b610865565b60405161013a91906112db565b6101cc610276366004611314565b610971565b61012e610289366004611110565b610c14565b6101cc600081565b7f317ad3d122488b64c2d86bf285bd2d0e9a7289d8b50201f32d6abb04fde8a301546001600160a01b03166101a1565b61020d6102d43660046113a5565b610c4c565b61020d6102e7366004611110565b610d46565b6101cc60008051602061163883398151915281565b61020d61030f3660046113c2565b610d62565b60006001600160e01b03198216637965db0b60e01b148061034557506301ffc9a760e01b6001600160e01b03198316145b92915050565b6000908152600080516020611678833981519152602052604090206001015490565b6040805160a0808201835260008083526060602080850182905284860183905281850182905260808501919091528582527f317ad3d122488b64c2d86bf285bd2d0e9a7289d8b50201f32d6abb04fde8a3038152848220600201548083527f317ad3d122488b64c2d86bf285bd2d0e9a7289d8b50201f32d6abb04fde8a302825291859020855193840190955284548352600185018054949560008051602061165883398151915295939493909284019190610428906113f0565b80601f0160208091040260200160405190810160405280929190818152602001828054610454906113f0565b80156104a15780601f10610476576101008083540402835291602001916104a1565b820191906000526020600020905b81548152906001019060200180831161048457829003601f168201915b50505050508152602001600282015481526020016003820180546104c4906113f0565b80601f01602080910402602001604051908101604052809291908181526020018280546104f0906113f0565b801561053d5780601f106105125761010080835404028352916020019161053d565b820191906000526020600020905b81548152906001019060200180831161052057829003601f168201915b50505050508152602001600482018054610556906113f0565b80601f0160208091040260200160405190810160405280929190818152602001828054610582906113f0565b80156105cf5780601f106105a4576101008083540402835291602001916105cf565b820191906000526020600020905b8154815290600101906020018083116105b257829003601f168201915b50505050508152505092505050919050565b6105ea8261034b565b6105f381610dcb565b6105fd8383610dd8565b50505050565b6001600160a01b038116331461062c5760405163334bd91960e11b815260040160405180910390fd5b6106368282610e7d565b505050565b60008160405160200161064e919061142a565b604051602081830303815290604052805190602001209050919050565b6040516000805160206116588339815191529060009061068f90879060200161142a565b60408051808303601f190181529082905280516020909101208354633529e71d60e11b8352600483018290529092506000916001600160a01b0390911690636a53ce3a90602401602060405180830381865afa1580156106f3573d6000803e3d6000fd5b505050506040513d601f19601f820116820180604052508101906107179190611446565b90506001600160a01b0381163314801590610747575061074560008051602061163883398151915233610c14565b155b1561077057866040516336d51b5f60e01b81526004016107679190611463565b60405180910390fd5b60008787604051602001610785929190611476565b60408051601f19818403018152828252805160209182012060a0840183528684528382018b8152848401829052606085018b9052608085018a9052600082815260028a019093529290912083518155915190935060018201906107e89082611500565b5060408201516002820155606082015160038201906108079082611500565b506080820151600482019061081c9082611500565b509050507f89575a3f2d7b33810040ff3675bdbde5cd826812ddba463f35ac829cf130fcc0888887604051610853939291906115be565b60405180910390a15050505050505050565b604080516080810182526000808252602082018190529181018290526060808201529060008051602061165883398151915290508060030160008481526020019081526020016000206040518060800160405290816000820154815260200160018201548152602001600282015481526020016003820180546108e7906113f0565b80601f0160208091040260200160405190810160405280929190818152602001828054610913906113f0565b80156109605780601f1061093557610100808354040283529160200191610960565b820191906000526020600020905b81548152906001019060200180831161094357829003601f168201915b505050505081525050915050919050565b6000806000805160206116588339815191529050600085604051602001610998919061142a565b60408051808303601f190181529082905280516020909101208354633529e71d60e11b8352600483018290529092506000916001600160a01b0390911690636a53ce3a90602401602060405180830381865afa1580156109fc573d6000803e3d6000fd5b505050506040513d601f19601f82011682018060405250810190610a209190611446565b90506001600160a01b0381163314801590610a505750610a4e60008051602061163883398151915233610c14565b155b15610a7057866040516336d51b5f60e01b81526004016107679190611463565b60008787604051602001610a85929190611476565b60405160208183030381529060405290508651600003610ab95786604051620489d360ed1b81526004016107679190611463565b600086604051602001610acc919061142a565b60408051601f19818403018152918152815160209283012060008181526002808a019094529190912090910154909150610b1b578660405163374a71e160e11b81526004016107679190611463565b600082604051602001610b2e919061142a565b604051602081830303815290604052805190602001209050604051806080016040528086815260200182815260200189604051602001610b6e919061142a565b60408051601f198184030181529181528151602092830120835291810186905260008481526003808b018352908390208451815591840151600183015591830151600282015560608301519091820190610bc89082611500565b509050507f1cce9f901183dd4596be1b35dc2d01618a2c0780c32dc813293d46336280a9ba8a8a83604051610bff93929190611601565b60405180910390a19998505050505050505050565b6000918252600080516020611678833981519152602090815260408084206001600160a01b0393909316845291905290205460ff1690565b6000610c56610ef9565b805490915060ff600160401b82041615906001600160401b0316600081158015610c7d5750825b90506000826001600160401b03166001148015610c995750303b155b905081158015610ca7575080155b15610cc55760405163f92ee8a960e01b815260040160405180910390fd5b845467ffffffffffffffff191660011785558315610cef57845460ff60401b1916600160401b1785555b610cf886610f22565b8315610d3e57845460ff60401b19168555604051600181527fc7f505b2f371ae2175ee4913f4499e1f2633a7b5936321eed1cdaeb6115181d29060200160405180910390a15b505050505050565b610d4f8261034b565b610d5881610dcb565b6105fd8383610e7d565b6000610d6d81610dcb565b5060008051602061165883398151915280546001600160a01b039283166001600160a01b0319918216179091557f317ad3d122488b64c2d86bf285bd2d0e9a7289d8b50201f32d6abb04fde8a3018054939092169216919091179055565b610dd58133610f3b565b50565b6000600080516020611678833981519152610df38484610c14565b610e73576000848152602082815260408083206001600160a01b03871684529091529020805460ff19166001179055610e293390565b6001600160a01b0316836001600160a01b0316857f2f8788117e7eff1d82e926ec794901d17c78024a50270940304540a733656f0d60405160405180910390a46001915050610345565b6000915050610345565b6000600080516020611678833981519152610e988484610c14565b15610e73576000848152602082815260408083206001600160a01b0387168085529252808320805460ff1916905551339287917ff6391f5c32d9c69d2a47ea670b442974b53935d1edc7fd64eb21e047a839171b9190a46001915050610345565b6000807ff0c57e16840df040f15088dc2f81fe391c3923bec73e23a9662efc9c229c6a00610345565b610f2a610f78565b610f32610f9f565b610dd581610fa7565b610f458282610c14565b610f745760405163e2517d3f60e01b81526001600160a01b038216600482015260248101839052604401610767565b5050565b610f80610fd3565b610f9d57604051631afcd79f60e31b815260040160405180910390fd5b565b610f9d610f78565b610faf610f78565b610fba600082610dd8565b50610f7460008051602061163883398151915282610dd8565b6000610fdd610ef9565b54600160401b900460ff16919050565b600060208284031215610fff57600080fd5b81356001600160e01b03198116811461101757600080fd5b9392505050565b60006020828403121561103057600080fd5b5035919050565b60005b8381101561105257818101518382015260200161103a565b50506000910152565b60008151808452611073816020860160208601611037565b601f01601f19169290920160200192915050565b60208152815160208201526000602083015160a060408401526110ad60c084018261105b565b9050604084015160608401526060840151601f198483030160808501526110d4828261105b565b9150506080840151601f198483030160a08501526110f2828261105b565b95945050505050565b6001600160a01b0381168114610dd557600080fd5b6000806040838503121561112357600080fd5b823591506020830135611135816110fb565b809150509250929050565b634e487b7160e01b600052604160045260246000fd5b600082601f83011261116757600080fd5b81356001600160401b0381111561118057611180611140565b604051601f8201601f19908116603f011681016001600160401b03811182821017156111ae576111ae611140565b6040528181528382016020018510156111c657600080fd5b816020850160208301376000918101602001919091529392505050565b6000602082840312156111f557600080fd5b81356001600160401b0381111561120b57600080fd5b61121784828501611156565b949350505050565b6000806000806080858703121561123557600080fd5b84356001600160401b0381111561124b57600080fd5b61125787828801611156565b94505060208501356001600160401b0381111561127357600080fd5b61127f87828801611156565b93505060408501356001600160401b0381111561129b57600080fd5b6112a787828801611156565b92505060608501356001600160401b038111156112c357600080fd5b6112cf87828801611156565b91505092959194509250565b602081528151602082015260208201516040820152604082015160608201526000606083015160808084015261121760a084018261105b565b60008060006060848603121561132957600080fd5b83356001600160401b0381111561133f57600080fd5b61134b86828701611156565b93505060208401356001600160401b0381111561136757600080fd5b61137386828701611156565b92505060408401356001600160401b0381111561138f57600080fd5b61139b86828701611156565b9150509250925092565b6000602082840312156113b757600080fd5b8135611017816110fb565b600080604083850312156113d557600080fd5b82356113e0816110fb565b91506020830135611135816110fb565b600181811c9082168061140457607f821691505b60208210810361142457634e487b7160e01b600052602260045260246000fd5b50919050565b6000825161143c818460208701611037565b9190910192915050565b60006020828403121561145857600080fd5b8151611017816110fb565b602081526000611017602083018461105b565b60008351611488818460208801611037565b601760f91b90830190815283516114a6816001840160208801611037565b01600101949350505050565b601f82111561063657806000526020600020601f840160051c810160208510156114d95750805b601f840160051c820191505b818110156114f957600081556001016114e5565b5050505050565b81516001600160401b0381111561151957611519611140565b61152d8161152784546113f0565b846114b2565b6020601f82116001811461156157600083156115495750848201515b600019600385901b1c1916600184901b1784556114f9565b600084815260208120601f198516915b828110156115915787850151825560209485019460019092019101611571565b50848210156115af5786840151600019600387901b60f8161c191681555b50505050600190811b01905550565b6060815260006115d1606083018661105b565b82810360208401526115e3818661105b565b905082810360408401526115f7818561105b565b9695505050505050565b606081526000611614606083018661105b565b8281036020840152611626818661105b565b91505082604083015294935050505056fedca996585aa32c6b108950b2d3b4a504149e5fccfa82747e15f168f12b975141317ad3d122488b64c2d86bf285bd2d0e9a7289d8b50201f32d6abb04fde8a30002dd7bc7dec4dceedda775e58dd541e08a116c6c53815c0bd028192f7b626800a264697066735822122069326e3d85fc5b7b6039e4bbb6fa2d401095ecceacb26136a9c0c51b8233102264736f6c634300081c0033",
  "linkReferences": {},
  "deployedLinkReferences": {}
}