{
  "_format": "hh-sol-artifact-1",
  "contractName": "RouterUpgradeable",
  "sourceName": "contracts/dapp/router.sol",
  "abi": [
    {
      "inputs": [],
      "stateMutability": "nonpayable",
      "type": "constructor"
    },
    {
      "inputs": [],
      "name": "AccessControlBadConfirmation",
      "type": "error"
    },
    {
      "inputs": [
        {
          "internalType": "address",
          "name": "account",
          "type": "address"
        },
        {
          "internalType": "bytes32",
          "name": "neededRole",
          "type": "bytes32"
        }
      ],
      "name": "AccessControlUnauthorizedAccount",
      "type": "error"
    },
    {
      "inputs": [
        {
          "internalType": "address",
          "name": "target",
          "type": "address"
        }
      ],
      "name": "AddressEmptyCode",
      "type": "error"
    },
    {
      "inputs": [
        {
          "internalType": "address",
          "name": "implementation",
          "type": "address"
        }
      ],
      "name": "ERC1967InvalidImplementation",
      "type": "error"
    },
    {
      "inputs": [],
      "name": "ERC1967NonPayable",
      "type": "error"
    },
    {
      "inputs": [],
      "name": "FailedCall",
      "type": "error"
    },
    {
      "inputs": [
        {
          "internalType": "uint256",
          "name": "provided",
          "type": "uint256"
        },
        {
          "internalType": "uint256",
          "name": "required",
          "type": "uint256"
        }
      ],
      "name": "InsufficientStake",
      "type": "error"
    },
    {
      "inputs": [],
      "name": "InvalidInitialization",
      "type": "error"
    },
    {
      "inputs": [
        {
          "internalType": "string",
          "name": "namespace",
          "type": "string"
        }
      ],
      "name": "InvalidNamespace",
      "type": "error"
    },
    {
      "inputs": [
        {
          "internalType": "address",
          "name": "_dtnContract",
          "type": "address"
        }
      ],
      "name": "NotDtnContract",
      "type": "error"
    },
    {
      "inputs": [],
      "name": "NotInitializing",
      "type": "error"
    },
    {
      "inputs": [
        {
          "internalType": "address",
          "name": "owner",
          "type": "address"
        }
      ],
      "name": "OwnableInvalidOwner",
      "type": "error"
    },
    {
      "inputs": [
        {
          "internalType": "address",
          "name": "account",
          "type": "address"
        }
      ],
      "name": "OwnableUnauthorizedAccount",
      "type": "error"
    },
    {
      "inputs": [],
      "name": "ReentrancyGuardReentrantCall",
      "type": "error"
    },
    {
      "inputs": [],
      "name": "UUPSUnauthorizedCallContext",
      "type": "error"
    },
    {
      "inputs": [
        {
          "internalType": "bytes32",
          "name": "slot",
          "type": "bytes32"
        }
      ],
      "name": "UUPSUnsupportedProxiableUUID",
      "type": "error"
    },
    {
      "inputs": [],
      "name": "UnauthorizedAccess",
      "type": "error"
    },
    {
      "anonymous": false,
      "inputs": [
        {
          "indexed": true,
          "internalType": "bytes32",
          "name": "requestId",
          "type": "bytes32"
        },
        {
          "indexed": false,
          "internalType": "bytes",
          "name": "data",
          "type": "bytes"
        }
      ],
      "name": "FailureCallbackFailed",
      "type": "event"
    },
    {
      "anonymous": false,
      "inputs": [
        {
          "indexed": false,
          "internalType": "uint64",
          "name": "version",
          "type": "uint64"
        }
      ],
      "name": "Initialized",
      "type": "event"
    },
    {
      "anonymous": false,
      "inputs": [
        {
          "indexed": true,
          "internalType": "address",
          "name": "previousOwner",
          "type": "address"
        },
        {
          "indexed": true,
          "internalType": "address",
          "name": "newOwner",
          "type": "address"
        }
      ],
      "name": "OwnershipTransferred",
      "type": "event"
    },
    {
      "anonymous": false,
      "inputs": [
        {
          "indexed": true,
          "internalType": "bytes32",
          "name": "requestId",
          "type": "bytes32"
        },
        {
          "indexed": false,
          "internalType": "enum IDtnAi.ResponseStatus",
          "name": "status",
          "type": "uint8"
        }
      ],
      "name": "RequestCompleted",
      "type": "event"
    },
    {
      "anonymous": false,
      "inputs": [
        {
          "indexed": true,
          "internalType": "bytes32",
          "name": "requestId",
          "type": "bytes32"
        },
        {
          "indexed": true,
          "internalType": "uint256",
          "name": "sessionId",
          "type": "uint256"
        },
        {
          "indexed": true,
          "internalType": "address",
          "name": "user",
          "type": "address"
        }
      ],
      "name": "RequestCreated",
      "type": "event"
    },
    {
      "anonymous": false,
      "inputs": [
        {
          "indexed": true,
          "internalType": "bytes32",
          "name": "requestId",
          "type": "bytes32"
        },
        {
          "indexed": true,
          "internalType": "bytes32",
          "name": "nodeId",
          "type": "bytes32"
        },
        {
          "indexed": false,
          "internalType": "enum IDtnAi.ResponseStatus",
          "name": "status",
          "type": "uint8"
        }
      ],
      "name": "ResponseReceived",
      "type": "event"
    },
    {
      "anonymous": false,
      "inputs": [
        {
          "indexed": true,
          "internalType": "bytes32",
          "name": "role",
          "type": "bytes32"
        },
        {
          "indexed": true,
          "internalType": "bytes32",
          "name": "previousAdminRole",
          "type": "bytes32"
        },
        {
          "indexed": true,
          "internalType": "bytes32",
          "name": "newAdminRole",
          "type": "bytes32"
        }
      ],
      "name": "RoleAdminChanged",
      "type": "event"
    },
    {
      "anonymous": false,
      "inputs": [
        {
          "indexed": true,
          "internalType": "bytes32",
          "name": "role",
          "type": "bytes32"
        },
        {
          "indexed": true,
          "internalType": "address",
          "name": "account",
          "type": "address"
        },
        {
          "indexed": true,
          "internalType": "address",
          "name": "sender",
          "type": "address"
        }
      ],
      "name": "RoleGranted",
      "type": "event"
    },
    {
      "anonymous": false,
      "inputs": [
        {
          "indexed": true,
          "internalType": "bytes32",
          "name": "role",
          "type": "bytes32"
        },
        {
          "indexed": true,
          "internalType": "address",
          "name": "account",
          "type": "address"
        },
        {
          "indexed": true,
          "internalType": "address",
          "name": "sender",
          "type": "address"
        }
      ],
      "name": "RoleRevoked",
      "type": "event"
    },
    {
      "anonymous": false,
      "inputs": [
        {
          "indexed": true,
          "internalType": "bytes32",
          "name": "requestId",
          "type": "bytes32"
        },
        {
          "indexed": false,
          "internalType": "bytes",
          "name": "data",
          "type": "bytes"
        }
      ],
      "name": "SuccessCallbackFailed",
      "type": "event"
    },
    {
      "anonymous": false,
      "inputs": [
        {
          "indexed": false,
          "internalType": "string",
          "name": "namespace",
          "type": "string"
        }
      ],
      "name": "TrustNamespaceDeleted",
      "type": "event"
    },
    {
      "anonymous": false,
      "inputs": [
        {
          "indexed": false,
          "internalType": "string",
          "name": "namespace",
          "type": "string"
        },
        {
          "indexed": false,
          "internalType": "address",
          "name": "owner",
          "type": "address"
        },
        {
          "indexed": false,
          "internalType": "string",
          "name": "namespaceType",
          "type": "string"
        }
      ],
      "name": "TrustNamespaceRegistered",
      "type": "event"
    },
    {
      "anonymous": false,
      "inputs": [
        {
          "indexed": true,
          "internalType": "address",
          "name": "implementation",
          "type": "address"
        }
      ],
      "name": "Upgraded",
      "type": "event"
    },
    {
      "inputs": [],
      "name": "DEFAULT_ADMIN_ROLE",
      "outputs": [
        {
          "internalType": "bytes32",
          "name": "",
          "type": "bytes32"
        }
      ],
      "stateMutability": "view",
      "type": "function"
    },
    {
      "inputs": [],
      "name": "UPGRADE_INTERFACE_VERSION",
      "outputs": [
        {
          "internalType": "string",
          "name": "",
          "type": "string"
        }
      ],
      "stateMutability": "view",
      "type": "function"
    },
    {
      "inputs": [
        {
          "internalType": "address[]",
          "name": "_dtnContracts",
          "type": "address[]"
        }
      ],
      "name": "addDtnContracts",
      "outputs": [],
      "stateMutability": "nonpayable",
      "type": "function"
    },
    {
      "inputs": [
        {
          "internalType": "uint256",
          "name": "sessionId",
          "type": "uint256"
        }
      ],
      "name": "closeUserSession",
      "outputs": [],
      "stateMutability": "nonpayable",
      "type": "function"
    },
    {
      "inputs": [
        {
          "internalType": "uint256",
          "name": "_failureResponsePerByte",
          "type": "uint256"
        }
      ],
      "name": "config",
      "outputs": [],
      "stateMutability": "nonpayable",
      "type": "function"
    },
    {
      "inputs": [
        {
          "internalType": "string",
          "name": "namespace",
          "type": "string"
        }
      ],
      "name": "deleteTrustNamespace",
      "outputs": [],
      "stateMutability": "nonpayable",
      "type": "function"
    },
    {
      "inputs": [
        {
          "internalType": "bytes32",
          "name": "requestId",
          "type": "bytes32"
        },
        {
          "components": [
            {
              "internalType": "enum IDtnAi.ResponseStatus",
              "name": "status",
              "type": "uint8"
            },
            {
              "internalType": "string",
              "name": "message",
              "type": "string"
            },
            {
              "internalType": "bytes",
              "name": "response",
              "type": "bytes"
            },
            {
              "internalType": "bytes32",
              "name": "nodeId",
              "type": "bytes32"
            },
            {
              "internalType": "uint256",
              "name": "timestamp",
              "type": "uint256"
            }
          ],
          "internalType": "struct IDtnAi.Response[]",
          "name": "responses",
          "type": "tuple[]"
        }
      ],
      "name": "extractSingleResponse",
      "outputs": [
        {
          "components": [
            {
              "internalType": "enum IDtnAi.ResponseStatus",
              "name": "status",
              "type": "uint8"
            },
            {
              "internalType": "string",
              "name": "message",
              "type": "string"
            },
            {
              "internalType": "bytes",
              "name": "response",
              "type": "bytes"
            },
            {
              "internalType": "bytes32",
              "name": "nodeId",
              "type": "bytes32"
            },
            {
              "internalType": "uint256",
              "name": "timestamp",
              "type": "uint256"
            }
          ],
          "internalType": "struct IDtnAi.Response",
          "name": "response",
          "type": "tuple"
        }
      ],
      "stateMutability": "view",
      "type": "function"
    },
    {
      "inputs": [],
      "name": "feeTarget",
      "outputs": [
        {
          "internalType": "address",
          "name": "",
          "type": "address"
        }
      ],
      "stateMutability": "view",
      "type": "function"
    },
    {
      "inputs": [],
      "name": "feeToken",
      "outputs": [
        {
          "internalType": "address",
          "name": "",
          "type": "address"
        }
      ],
      "stateMutability": "view",
      "type": "function"
    },
    {
      "inputs": [
        {
          "internalType": "bytes32",
          "name": "requestId",
          "type": "bytes32"
        }
      ],
      "name": "fetchResponse",
      "outputs": [
        {
          "internalType": "enum IDtnAi.ResponseStatus",
          "name": "status",
          "type": "uint8"
        },
        {
          "internalType": "string",
          "name": "message",
          "type": "string"
        },
        {
          "internalType": "bytes",
          "name": "response",
          "type": "bytes"
        }
      ],
      "stateMutability": "view",
      "type": "function"
    },
    {
      "inputs": [
        {
          "internalType": "uint256",
          "name": "from",
          "type": "uint256"
        },
        {
          "internalType": "uint256",
          "name": "to",
          "type": "uint256"
        }
      ],
      "name": "getCompletedRequests",
      "outputs": [
        {
          "internalType": "bytes32[]",
          "name": "",
          "type": "bytes32[]"
        }
      ],
      "stateMutability": "view",
      "type": "function"
    },
    {
      "inputs": [],
      "name": "getCompletedRequestsLength",
      "outputs": [
        {
          "internalType": "uint256",
          "name": "",
          "type": "uint256"
        }
      ],
      "stateMutability": "view",
      "type": "function"
    },
    {
      "inputs": [
        {
          "internalType": "uint256",
          "name": "from",
          "type": "uint256"
        },
        {
          "internalType": "uint256",
          "name": "to",
          "type": "uint256"
        }
      ],
      "name": "getPendingRequests",
      "outputs": [
        {
          "internalType": "bytes32[]",
          "name": "",
          "type": "bytes32[]"
        }
      ],
      "stateMutability": "view",
      "type": "function"
    },
    {
      "inputs": [],
      "name": "getPendingRequestsLength",
      "outputs": [
        {
          "internalType": "uint256",
          "name": "",
          "type": "uint256"
        }
      ],
      "stateMutability": "view",
      "type": "function"
    },
    {
      "inputs": [
        {
          "internalType": "bytes32",
          "name": "requestId",
          "type": "bytes32"
        }
      ],
      "name": "getRequest",
      "outputs": [
        {
          "components": [
            {
              "internalType": "uint256",
              "name": "sessionId",
              "type": "uint256"
            },
            {
              "internalType": "address",
              "name": "user",
              "type": "address"
            },
            {
              "internalType": "bool",
              "name": "completed",
              "type": "bool"
            },
            {
              "internalType": "bytes32",
              "name": "modelId",
              "type": "bytes32"
            },
            {
              "components": [
                {
                  "internalType": "bytes32[]",
                  "name": "trustNamespaceIds",
                  "type": "bytes32[]"
                },
                {
                  "internalType": "bytes32[]",
                  "name": "trustedNodeIds",
                  "type": "bytes32[]"
                },
                {
                  "internalType": "uint32",
                  "name": "redundancy",
                  "type": "uint32"
                },
                {
                  "internalType": "uint8",
                  "name": "confidenceLevel",
                  "type": "uint8"
                },
                {
                  "internalType": "enum IDtnAi.AggregationType",
                  "name": "aggregationType",
                  "type": "uint8"
                }
              ],
              "internalType": "struct IDtnAi.DtnRouting",
              "name": "routing",
              "type": "tuple"
            },
            {
              "components": [
                {
                  "internalType": "bytes",
                  "name": "call",
                  "type": "bytes"
                },
                {
                  "internalType": "bytes",
                  "name": "extraParams",
                  "type": "bytes"
                },
                {
                  "internalType": "enum IDtnAi.CallType",
                  "name": "calltype",
                  "type": "uint8"
                },
                {
                  "internalType": "uint256",
                  "name": "feePerByteReq",
                  "type": "uint256"
                },
                {
                  "internalType": "uint256",
                  "name": "feePerByteRes",
                  "type": "uint256"
                },
                {
                  "internalType": "uint256",
                  "name": "totalFeePerRes",
                  "type": "uint256"
                }
              ],
              "internalType": "struct IDtnAi.DtnRequest",
              "name": "request",
              "type": "tuple"
            },
            {
              "components": [
                {
                  "internalType": "bytes4",
                  "name": "success",
                  "type": "bytes4"
                },
                {
                  "internalType": "bytes4",
                  "name": "failure",
                  "type": "bytes4"
                },
                {
                  "internalType": "address",
                  "name": "target",
                  "type": "address"
                }
              ],
              "internalType": "struct IDtnAi.CallBack",
              "name": "callback",
              "type": "tuple"
            },
            {
              "internalType": "uint256",
              "name": "callbackGas",
              "type": "uint256"
            },
            {
              "internalType": "uint256",
              "name": "responseCount",
              "type": "uint256"
            },
            {
              "components": [
                {
                  "internalType": "enum IDtnAi.ResponseStatus",
                  "name": "status",
                  "type": "uint8"
                },
                {
                  "internalType": "string",
                  "name": "message",
                  "type": "string"
                },
                {
                  "internalType": "bytes",
                  "name": "response",
                  "type": "bytes"
                },
                {
                  "internalType": "bytes32",
                  "name": "nodeId",
                  "type": "bytes32"
                },
                {
                  "internalType": "uint256",
                  "name": "timestamp",
                  "type": "uint256"
                }
              ],
              "internalType": "struct IDtnAi.Response",
              "name": "finalResponse",
              "type": "tuple"
            }
          ],
          "internalType": "struct RouterUpgradeable.Request",
          "name": "",
          "type": "tuple"
        }
      ],
      "stateMutability": "view",
      "type": "function"
    },
    {
      "inputs": [
        {
          "internalType": "bytes32",
          "name": "role",
          "type": "bytes32"
        }
      ],
      "name": "getRoleAdmin",
      "outputs": [
        {
          "internalType": "bytes32",
          "name": "",
          "type": "bytes32"
        }
      ],
      "stateMutability": "view",
      "type": "function"
    },
    {
      "inputs": [
        {
          "internalType": "bytes32",
          "name": "role",
          "type": "bytes32"
        },
        {
          "internalType": "address",
          "name": "account",
          "type": "address"
        }
      ],
      "name": "grantRole",
      "outputs": [],
      "stateMutability": "nonpayable",
      "type": "function"
    },
    {
      "inputs": [
        {
          "internalType": "bytes32",
          "name": "role",
          "type": "bytes32"
        },
        {
          "internalType": "address",
          "name": "account",
          "type": "address"
        }
      ],
      "name": "hasRole",
      "outputs": [
        {
          "internalType": "bool",
          "name": "",
          "type": "bool"
        }
      ],
      "stateMutability": "view",
      "type": "function"
    },
    {
      "inputs": [
        {
          "internalType": "uint256",
          "name": "minAuthoredStake",
          "type": "uint256"
        },
        {
          "internalType": "address",
          "name": "owner",
          "type": "address"
        }
      ],
      "name": "initialize",
      "outputs": [],
      "stateMutability": "nonpayable",
      "type": "function"
    },
    {
      "inputs": [],
      "name": "listTrustNamespaces",
      "outputs": [
        {
          "internalType": "string[]",
          "name": "",
          "type": "string[]"
        }
      ],
      "stateMutability": "view",
      "type": "function"
    },
    {
      "inputs": [
        {
          "internalType": "string",
          "name": "modelFullName",
          "type": "string"
        }
      ],
      "name": "modelId",
      "outputs": [
        {
          "internalType": "bytes32",
          "name": "",
          "type": "bytes32"
        }
      ],
      "stateMutability": "pure",
      "type": "function"
    },
    {
      "inputs": [],
      "name": "modelManager",
      "outputs": [
        {
          "internalType": "address",
          "name": "",
          "type": "address"
        }
      ],
      "stateMutability": "view",
      "type": "function"
    },
    {
      "inputs": [],
      "name": "nodeManager",
      "outputs": [
        {
          "internalType": "address",
          "name": "",
          "type": "address"
        }
      ],
      "stateMutability": "view",
      "type": "function"
    },
    {
      "inputs": [],
      "name": "owner",
      "outputs": [
        {
          "internalType": "address",
          "name": "",
          "type": "address"
        }
      ],
      "stateMutability": "view",
      "type": "function"
    },
    {
      "inputs": [],
      "name": "proxiableUUID",
      "outputs": [
        {
          "internalType": "bytes32",
          "name": "",
          "type": "bytes32"
        }
      ],
      "stateMutability": "view",
      "type": "function"
    },
    {
      "inputs": [
        {
          "internalType": "string",
          "name": "namespace",
          "type": "string"
        },
        {
          "internalType": "address",
          "name": "nodeSelector",
          "type": "address"
        }
      ],
      "name": "registerAuthoredTrustNamespace",
      "outputs": [],
      "stateMutability": "payable",
      "type": "function"
    },
    {
      "inputs": [
        {
          "internalType": "string",
          "name": "namespace",
          "type": "string"
        },
        {
          "internalType": "address",
          "name": "owner",
          "type": "address"
        },
        {
          "internalType": "address",
          "name": "nodeSelector",
          "type": "address"
        }
      ],
      "name": "registerDtnTrustNamespace",
      "outputs": [],
      "stateMutability": "nonpayable",
      "type": "function"
    },
    {
      "inputs": [
        {
          "internalType": "string",
          "name": "namespace",
          "type": "string"
        },
        {
          "internalType": "address",
          "name": "owner",
          "type": "address"
        },
        {
          "internalType": "address",
          "name": "nodeSelector",
          "type": "address"
        }
      ],
      "name": "registerVerifiedTrustNamespace",
      "outputs": [],
      "stateMutability": "nonpayable",
      "type": "function"
    },
    {
      "inputs": [
        {
          "internalType": "address",
          "name": "_dtnContract",
          "type": "address"
        }
      ],
      "name": "removeDtnContracts",
      "outputs": [],
      "stateMutability": "nonpayable",
      "type": "function"
    },
    {
      "inputs": [],
      "name": "renounceOwnership",
      "outputs": [],
      "stateMutability": "nonpayable",
      "type": "function"
    },
    {
      "inputs": [
        {
          "internalType": "bytes32",
          "name": "role",
          "type": "bytes32"
        },
        {
          "internalType": "address",
          "name": "callerConfirmation",
          "type": "address"
        }
      ],
      "name": "renounceRole",
      "outputs": [],
      "stateMutability": "nonpayable",
      "type": "function"
    },
    {
      "inputs": [
        {
          "internalType": "uint256",
          "name": "sessionId",
          "type": "uint256"
        },
        {
          "internalType": "bytes32",
          "name": "_modelId",
          "type": "bytes32"
        },
        {
          "components": [
            {
              "internalType": "bytes32[]",
              "name": "trustNamespaceIds",
              "type": "bytes32[]"
            },
            {
              "internalType": "bytes32[]",
              "name": "trustedNodeIds",
              "type": "bytes32[]"
            },
            {
              "internalType": "uint32",
              "name": "redundancy",
              "type": "uint32"
            },
            {
              "internalType": "uint8",
              "name": "confidenceLevel",
              "type": "uint8"
            },
            {
              "internalType": "enum IDtnAi.AggregationType",
              "name": "aggregationType",
              "type": "uint8"
            }
          ],
          "internalType": "struct IDtnAi.DtnRouting",
          "name": "routingSystem",
          "type": "tuple"
        },
        {
          "components": [
            {
              "internalType": "bytes",
              "name": "call",
              "type": "bytes"
            },
            {
              "internalType": "bytes",
              "name": "extraParams",
              "type": "bytes"
            },
            {
              "internalType": "enum IDtnAi.CallType",
              "name": "calltype",
              "type": "uint8"
            },
            {
              "internalType": "uint256",
              "name": "feePerByteReq",
              "type": "uint256"
            },
            {
              "internalType": "uint256",
              "name": "feePerByteRes",
              "type": "uint256"
            },
            {
              "internalType": "uint256",
              "name": "totalFeePerRes",
              "type": "uint256"
            }
          ],
          "internalType": "struct IDtnAi.DtnRequest",
          "name": "dtnRequest",
          "type": "tuple"
        },
        {
          "components": [
            {
              "internalType": "bytes4",
              "name": "success",
              "type": "bytes4"
            },
            {
              "internalType": "bytes4",
              "name": "failure",
              "type": "bytes4"
            },
            {
              "internalType": "address",
              "name": "target",
              "type": "address"
            }
          ],
          "internalType": "struct IDtnAi.CallBack",
          "name": "callback",
          "type": "tuple"
        },
        {
          "internalType": "address",
          "name": "user",
          "type": "address"
        },
        {
          "internalType": "uint256",
          "name": "callbackGas",
          "type": "uint256"
        }
      ],
      "name": "request",
      "outputs": [
        {
          "internalType": "bytes32",
          "name": "",
          "type": "bytes32"
        }
      ],
      "stateMutability": "payable",
      "type": "function"
    },
    {
      "inputs": [
        {
          "internalType": "bytes32",
          "name": "requestId",
          "type": "bytes32"
        },
        {
          "internalType": "enum IDtnAi.ResponseStatus",
          "name": "status",
          "type": "uint8"
        },
        {
          "internalType": "string",
          "name": "message",
          "type": "string"
        },
        {
          "internalType": "bytes",
          "name": "response",
          "type": "bytes"
        },
        {
          "internalType": "bytes32",
          "name": "nodeId",
          "type": "bytes32"
        },
        {
          "internalType": "uint256",
          "name": "requestSize",
          "type": "uint256"
        },
        {
          "internalType": "uint256",
          "name": "responseSize",
          "type": "uint256"
        }
      ],
      "name": "respondToRequest",
      "outputs": [],
      "stateMutability": "nonpayable",
      "type": "function"
    },
    {
      "inputs": [
        {
          "internalType": "bytes32",
          "name": "role",
          "type": "bytes32"
        },
        {
          "internalType": "address",
          "name": "account",
          "type": "address"
        }
      ],
      "name": "revokeRole",
      "outputs": [],
      "stateMutability": "nonpayable",
      "type": "function"
    },
    {
      "inputs": [],
      "name": "sessionManager",
      "outputs": [
        {
          "internalType": "address",
          "name": "",
          "type": "address"
        }
      ],
      "stateMutability": "view",
      "type": "function"
    },
    {
      "inputs": [
        {
          "internalType": "address",
          "name": "_nodeManager",
          "type": "address"
        },
        {
          "internalType": "address",
          "name": "_sessionManager",
          "type": "address"
        },
        {
          "internalType": "address",
          "name": "_modelManager",
          "type": "address"
        }
      ],
      "name": "setDependencies",
      "outputs": [],
      "stateMutability": "nonpayable",
      "type": "function"
    },
    {
      "inputs": [],
      "name": "startUserSession",
      "outputs": [
        {
          "internalType": "uint256",
          "name": "sessionId",
          "type": "uint256"
        }
      ],
      "stateMutability": "nonpayable",
      "type": "function"
    },
    {
      "inputs": [
        {
          "internalType": "bytes4",
          "name": "interfaceId",
          "type": "bytes4"
        }
      ],
      "name": "supportsInterface",
      "outputs": [
        {
          "internalType": "bool",
          "name": "",
          "type": "bool"
        }
      ],
      "stateMutability": "view",
      "type": "function"
    },
    {
      "inputs": [
        {
          "internalType": "address",
          "name": "newOwner",
          "type": "address"
        }
      ],
      "name": "transferOwnership",
      "outputs": [],
      "stateMutability": "nonpayable",
      "type": "function"
    },
    {
      "inputs": [
        {
          "internalType": "address",
          "name": "newImplementation",
          "type": "address"
        },
        {
          "internalType": "bytes",
          "name": "data",
          "type": "bytes"
        }
      ],
      "name": "upgradeToAndCall",
      "outputs": [],
      "stateMutability": "payable",
      "type": "function"
    }
  ],
  "bytecode": "0x60a060405230608052348015601357600080fd5b50608051615a8561003d600039600081816134140152818161343d01526135dd0152615a856000f3fe60806040526004361061023a5760003560e01c80638da5cb5b1161012e578063ce0a5187116100ab578063e2d6f51b1161006f578063e2d6f51b1461067a578063e4492c7c1461069a578063e51d6822146106c7578063f2fde38b146106da578063fb1e61ca146106fa57600080fd5b8063ce0a5187146105cb578063d1e4be07146105eb578063d547741f1461061a578063d621da551461063a578063da35a26f1461065a57600080fd5b8063ad3cb1cc116100f2578063ad3cb1cc14610523578063b52d326c14610561578063b7b13f7914610581578063c19b788514610596578063cd3c695a146105b657600080fd5b80638da5cb5b146104a45780638f05ddc2146104b957806391d14854146104d95780639bb5cd3f146104f9578063a217fddf1461050e57600080fd5b80634b5268d9116101bc5780636d8de31f116101805780636d8de31f14610418578063715018a61461042d57806379e041f214610442578063846917671461046f5780638d140cae1461048f57600080fd5b80634b5268d9146103995780634f1ef286146103bb57806352d1902d146103ce57806356b475f3146103e3578063647846a51461040357600080fd5b80632757c2f7116102035780632757c2f7146103045780632f2ff15d1461031957806336568abe1461033957806336f857c114610359578063437172bc1461037957600080fd5b80624103551461023f57806301ffc9a7146102615780631c6fd72a14610296578063212b7119146102c3578063248a9ca3146102d6575b600080fd5b34801561024b57600080fd5b5061025f61025a3660046145ef565b610727565b005b34801561026d57600080fd5b5061028161027c3660046146aa565b6107b5565b60405190151581526020015b60405180910390f35b3480156102a257600080fd5b506102ab6107ec565b6040516001600160a01b03909116815260200161028d565b61025f6102d1366004614740565b61080a565b3480156102e257600080fd5b506102f66102f1366004614791565b610a0b565b60405190815260200161028d565b34801561031057600080fd5b506102f6610a2d565b34801561032557600080fd5b5061025f6103343660046147aa565b610a42565b34801561034557600080fd5b5061025f6103543660046147aa565b610a64565b34801561036557600080fd5b5061025f6103743660046147cf565b610a97565b34801561038557600080fd5b506102f66103943660046147cf565b610d06565b3480156103a557600080fd5b506103ae610d36565b60405161028d919061485b565b61025f6103c93660046148b4565b610e1f565b3480156103da57600080fd5b506102f6610e3e565b3480156103ef57600080fd5b5061025f6103fe366004614903565b610e5b565b34801561040f57600080fd5b506102ab6110bd565b34801561042457600080fd5b506102f6611149565b34801561043957600080fd5b5061025f6111c5565b34801561044e57600080fd5b5061046261045d366004614966565b6111d9565b60405161028d91906149c4565b34801561047b57600080fd5b5061025f61048a366004614791565b611299565b34801561049b57600080fd5b506102f66112b5565b3480156104b057600080fd5b506102ab6112ca565b3480156104c557600080fd5b5061025f6104d43660046149d7565b6112ff565b3480156104e557600080fd5b506102816104f43660046147aa565b611347565b34801561050557600080fd5b506102ab61137f565b34801561051a57600080fd5b506102f6600081565b34801561052f57600080fd5b50610554604051806040016040528060058152602001640352e302e360dc1b81525081565b60405161028d91906149f4565b34801561056d57600080fd5b5061025f61057c366004614a07565b61138a565b34801561058d57600080fd5b506102ab6113dc565b3480156105a257600080fd5b506104626105b1366004614966565b6113fa565b3480156105c257600080fd5b506102ab6114b1565b3480156105d757600080fd5b5061025f6105e6366004614a44565b611513565b3480156105f757600080fd5b5061060b610606366004614791565b611c12565b60405161028d93929190614b0c565b34801561062657600080fd5b5061025f6106353660046147aa565b611f66565b34801561064657600080fd5b5061025f610655366004614903565b611f82565b34801561066657600080fd5b5061025f6106753660046147aa565b6121d0565b34801561068657600080fd5b5061025f610695366004614791565b6123dd565b3480156106a657600080fd5b506106ba6106b5366004614b3e565b612452565b60405161028d9190614cf1565b6102f66106d5366004614eaf565b6127a8565b3480156106e657600080fd5b5061025f6106f53660046149d7565b612d2a565b34801561070657600080fd5b5061071a610715366004614791565b612d68565b60405161028d91906150db565b61072f613255565b7f9042a41a974b9fb065efd30b036d9f6283b7b2827a70d0d1b892f50c78b11e0060005b82518110156107b0576001826000016000858481518110610776576107766151c5565b6020908102919091018101516001600160a01b03168252810191909152604001600020805460ff1916911515919091179055600101610753565b505050565b60006001600160e01b03198216637965db0b60e01b14806107e657506301ffc9a760e01b6001600160e01b03198316145b92915050565b6000806107f7613287565b600201546001600160a01b031692915050565b6000805160206159d0833981519152610822836132ab565b61087d5760405162461bcd60e51b815260206004820152602160248201527f496e76616c696420617574686f726564206e616d6573706163652070726566696044820152600f60fb1b60648201526084015b60405180910390fd5b6040805160a0810182523381523460208083019190915260018284015282518084018452600f81526e3a393ab9ba1730baba3437b932b21760891b8183015260608301526001600160a01b03851660808301529151909183916000916108e5918891016149f4565b60408051808303601f190181529181528151602092830120835282820193909352908201600020835181546001600160a01b0319166001600160a01b039091161781559083015160018201559082015160028201805460ff19169115159190911790556060820151600382019061095c9082615263565b5060809190910151600490910180546001600160a01b0319166001600160a01b0390921691909117905560028101805460018101825560009182526020909120016109a78482615263565b50604080518082018252600f81526e3a393ab9ba1730baba3437b932b21760891b602082015290517f8c9f402b87abe512a9cf74467b907aed4e5c18d63803c65ff538e02c9423b523916109fe9186913391615324565b60405180910390a1505050565b6000908152600080516020615a30833981519152602052604090206001015490565b600080610a38613287565b6004015492915050565b610a4b82610a0b565b610a54816132de565b610a5e83836132e8565b50505050565b6001600160a01b0381163314610a8d5760405163334bd91960e11b815260040160405180910390fd5b6107b0828261338d565b610ac17fd877142ad2f92a7d4cd9e425a144cae1b0d908135b086d0aac4d05603ebdd89933611347565b610b095760405162461bcd60e51b815260206004820152601960248201527821b0b63632b91034b9903737ba103a393ab9ba1030b236b4b760391b6044820152606401610874565b6040516000805160206159d0833981519152908190600090610b2f9085906020016149f4565b60408051601f198184030181529181528151602092830120835290820192909252016000206002015460ff16610bb65760405162461bcd60e51b815260206004820152602660248201527f4e616d657370616365206e6f7420666f756e64206f7220616c72656164792064604482015265195b195d195960d21b6064820152608401610874565b600081600001600084604051602001610bcf91906149f4565b60408051808303601f19018152918152815160209283012083529082019290925201600020600201805460ff1916911515919091179055610c0f826132ab565b15610ccb5780600001600083604051602001610c2b91906149f4565b60408051601f19818403018152918152815160209283012083528282019390935290820160009081205492516001600160a01b03909316926108fc92859291610c76918891016149f4565b604051602081830303815290604052805190602001208152602001908152602001600020600101549081150290604051600060405180830381858888f19350505050158015610cc9573d6000803e3d6000fd5b505b7f585118c2800fddaeef8b0257a6ba88aee4a5e0eb4a1c1bb271bdc747784bb56c82604051610cfa91906149f4565b60405180910390a15050565b600081604051602001610d199190615358565b604051602081830303815290604052805190602001209050919050565b60606000805160206159d0833981519152600201805480602002602001604051908101604052809291908181526020016000905b82821015610e16578382906000526020600020018054610d89906151db565b80601f0160208091040260200160405190810160405280929190818152602001828054610db5906151db565b8015610e025780601f10610dd757610100808354040283529160200191610e02565b820191906000526020600020905b815481529060010190602001808311610de557829003601f168201915b505050505081526020019060010190610d6a565b50505050905090565b610e27613409565b610e30826134ae565b610e3a8282613515565b5050565b6000610e486135d2565b506000805160206159f083398151915290565b610e73600080516020615a1083398151915233611347565b610ebf5760405162461bcd60e51b815260206004820152601a60248201527f43616c6c6572206973206e6f742073797374656d2061646d696e0000000000006044820152606401610874565b610ec88361361b565b610f1e5760405162461bcd60e51b815260206004820152602160248201527f496e76616c6964207665726966696564206e616d6573706163652070726566696044820152600f60fb1b6064820152608401610874565b6040805160a0810182526001600160a01b0380851682526000602080840182905260018486015284518086018652600f81526e3a393ab9ba173b32b934b334b2b21760891b818301526060850152918516608084015292516000805160206159d08339815191529384929091610f96918991016149f4565b60408051808303601f190181529181528151602092830120835282820193909352908201600020835181546001600160a01b0319166001600160a01b039091161781559083015160018201559082015160028201805460ff19169115159190911790556060820151600382019061100d9082615263565b5060809190910151600490910180546001600160a01b0319166001600160a01b0390921691909117905560028101805460018101825560009182526020909120016110588582615263565b50604080518082018252600f81526e3a393ab9ba173b32b934b334b2b21760891b602082015290517f8c9f402b87abe512a9cf74467b907aed4e5c18d63803c65ff538e02c9423b523916110af9187918791615324565b60405180910390a150505050565b6000806110c8613287565b90508060010160009054906101000a90046001600160a01b03166001600160a01b031663ca709a256040518163ffffffff1660e01b8152600401602060405180830381865afa15801561111f573d6000803e3d6000fd5b505050506040513d601f19601f82011682018060405250810190611143919061537f565b91505090565b600080611154613287565b600181015460405163380c5db560e21b81523360048201529192506001600160a01b03169063e03176d4906024016020604051808303816000875af11580156111a1573d6000803e3d6000fd5b505050506040513d601f19601f82011682018060405250810190611143919061539c565b6111cd613255565b6111d7600061364e565b565b606060006111e5613287565b905060006111f385856153cb565b6001600160401b0381111561120a5761120a6144f4565b604051908082528060200260200182016040528015611233578160200160208202803683370190505b509050845b8481101561129057826003018181548110611255576112556151c5565b906000526020600020015482878361126d91906153cb565b8151811061127d5761127d6151c5565b6020908102919091010152600101611238565b50949350505050565b6112a1613255565b60006112ab613287565b6008019190915550565b6000806112c0613287565b6003015492915050565b6000807f9016d09d72d40fdae2fd8ceac6b6234c7706214fd39c1cd1e609a0528c1993005b546001600160a01b031692915050565b611307613255565b6001600160a01b031660009081527f9042a41a974b9fb065efd30b036d9f6283b7b2827a70d0d1b892f50c78b11e0060205260409020805460ff19169055565b6000918252600080516020615a30833981519152602090815260408084206001600160a01b0393909316845291905290205460ff1690565b6000806112ef613287565b611392613255565b600061139c613287565b80546001600160a01b03199081166001600160a01b0396871617825560018201805482169587169590951790945560020180549093169190931617905550565b6000806113e7613287565b600101546001600160a01b031692915050565b60606000611406613287565b9050600061141485856153cb565b6001600160401b0381111561142b5761142b6144f4565b604051908082528060200260200182016040528015611454578160200160208202803683370190505b509050845b8481101561129057826004018181548110611476576114766151c5565b906000526020600020015482878361148e91906153cb565b8151811061149e5761149e6151c5565b6020908102919091010152600101611459565b6000806114bc613287565b90508060010160009054906101000a90046001600160a01b03166001600160a01b0316635527014c6040518163ffffffff1660e01b8152600401602060405180830381865afa15801561111f573d6000803e3d6000fd5b61151b6136bf565b6000611525613287565b60008981526005820160205260409020600181015491925090600160a01b900460ff16156115955760405162461bcd60e51b815260206004820152601960248201527f5265717565737420616c726561647920636f6d706c65746564000000000000006044820152606401610874565b6000898152600783016020908152604080832088845290915290205460ff16156115fa5760405162461bcd60e51b8152602060048201526016602482015275139bd91948185b1c9958591e481c995cdc1bdb99195960521b6044820152606401610874565b8154604051632864a37f60e11b8152600481018790526000916001600160a01b0316906350c946fe90602401600060405180830381865afa158015611643573d6000803e3d6000fd5b505050506040513d6000823e601f3d908101601f1916820160405261166b919081019061544c565b905061169e6040518060400160405280600b81526020016a3737b232973bb7b935b2b960a91b8152508260400151613709565b60408101516001600160a01b031633146116f05760405162461bcd60e51b81526020600482015260136024820152722737ba103a3432903737b232903bb7b935b2b960691b6044820152606401610874565b8060c001516117335760405162461bcd60e51b815260206004820152600f60248201526e4e6f6465206e6f742061637469766560881b6044820152606401610874565b6117e0868360030160000180548060200260200160405190810160405280929190818152602001828054801561178857602002820191906000526020600020905b815481526020019060010190808311611774575b505050506004860180546040805160208084028201810190925282815293508301828280156117d657602002820191906000526020600020905b8154815260200190600101908083116117c2575b505050505061374e565b6118405760405162461bcd60e51b815260206004820152602b60248201527f4e6f646520646f6573206e6f742068617665207265717569726564207472757360448201526a74206e616d65737061636560a81b6064820152608401610874565b8254600283015460405163ede0e01560e01b81526004810189905260248101919091526001600160a01b039091169063ede0e01590604401602060405180830381865afa158015611895573d6000803e3d6000fd5b505050506040513d601f19601f820116820180604052508101906118b9919061554c565b6119115760405162461bcd60e51b815260206004820152602360248201527f4e6f646520646f6573206e6f7420736572766520726571756573746564206d6f60448201526219195b60ea1b6064820152608401610874565b506000808060028b600281111561192a5761192a614ae2565b0361195257600885015461193e8189615567565b925061194a8188615567565b915050611976565b60098401546119619088615567565b600a8501549092506119739087615567565b90505b611980818361557e565b600b85015490935083111561199757600b84015492505b6001850154845460405163158adc7560e21b815260048101919091526000916001600160a01b03169063562b71d490602401602060405180830381865afa1580156119e6573d6000803e3d6000fd5b505050506040513d601f19601f82011682018060405250810190611a0a919061539c565b905083811015611a18578093505b5050506001830154825460405163e203a83160e01b81526004810191909152602481018390523360448201526001600160a01b039091169063e203a83190606401600060405180830381600087803b158015611a7357600080fd5b505af1158015611a87573d6000803e3d6000fd5b505050506000611a998a8a8a8a6138eb565b60008c815260068601602090815260408220805460018181018355918452919092208351600590920201805493945084939092839160ff191690836002811115611ae557611ae5614ae2565b021790555060208201516001820190611afe9082615263565b5060408201516002820190611b139082615263565b506060820151600382015560809091015160049091015560008b815260078501602090815260408083208a84529091528120805460ff19166001179055600e8401805491611b6083615591565b9190505550868b7feb283c28f91993bafa4d21e3050792eb71615441c3dd228b74c8982c0a9c98f38c604051611b9691906155aa565b60405180910390a36005830154600e84015463ffffffff90911611611bdc57611bc18b84868d613935565b60048401805460018101825560009182526020909120018b90555b50505050611c0960017f9b779b17422d0df92223018b32b4d1fa46e071723d6817e2486d003becc55f0055565b50505050505050565b60006060806000611c21613287565b60008681526005820160205260409020600181015491925090600160a01b900460ff16611c885760405162461bcd60e51b815260206004820152601560248201527414995c5d595cdd081b9bdd0818dbdb5c1b195d1959605a1b6044820152606401610874565b601281015415611dcc57600f81015460108201805460ff9092169160118401908290611cb3906151db565b80601f0160208091040260200160405190810160405280929190818152602001828054611cdf906151db565b8015611d2c5780601f10611d0157610100808354040283529160200191611d2c565b820191906000526020600020905b815481529060010190602001808311611d0f57829003601f168201915b50505050509150808054611d3f906151db565b80601f0160208091040260200160405190810160405280929190818152602001828054611d6b906151db565b8015611db85780601f10611d8d57610100808354040283529160200191611db8565b820191906000526020600020905b815481529060010190602001808311611d9b57829003601f168201915b505050505090509450945094505050611f5f565b600086815260068301602052604090208054600114611dfd5760405162461bcd60e51b8152600401610874906155b8565b600081600081548110611e1257611e126151c5565b906000526020600020906005020190508060000160009054906101000a900460ff168160010182600201818054611e48906151db565b80601f0160208091040260200160405190810160405280929190818152602001828054611e74906151db565b8015611ec15780601f10611e9657610100808354040283529160200191611ec1565b820191906000526020600020905b815481529060010190602001808311611ea457829003601f168201915b50505050509150808054611ed4906151db565b80601f0160208091040260200160405190810160405280929190818152602001828054611f00906151db565b8015611f4d5780601f10611f2257610100808354040283529160200191611f4d565b820191906000526020600020905b815481529060010190602001808311611f3057829003601f168201915b50505050509050965096509650505050505b9193909250565b611f6f82610a0b565b611f78816132de565b610a5e838361338d565b611fac7fd877142ad2f92a7d4cd9e425a144cae1b0d908135b086d0aac4d05603ebdd89933611347565b611ff45760405162461bcd60e51b815260206004820152601960248201527821b0b63632b91034b9903737ba103a393ab9ba1030b236b4b760391b6044820152606401610874565b611ffd83613e1a565b6120495760405162461bcd60e51b815260206004820152601c60248201527f496e76616c696420445450206e616d65737061636520707265666978000000006044820152606401610874565b6040805160a0810182526001600160a01b0380851682526000602080840182905260018486015284518086018652600a8152693a393ab9ba17323a381760b11b818301526060850152918516608084015292516000805160206159d083398151915293849290916120bc918991016149f4565b60408051808303601f190181529181528151602092830120835282820193909352908201600020835181546001600160a01b0319166001600160a01b039091161781559083015160018201559082015160028201805460ff1916911515919091179055606082015160038201906121339082615263565b5060809190910151600490910180546001600160a01b0319166001600160a01b03909216919091179055600281018054600181018255600091825260209091200161217e8582615263565b50604080518082018252600a8152693a393ab9ba17323a381760b11b602082015290517f8c9f402b87abe512a9cf74467b907aed4e5c18d63803c65ff538e02c9423b523916110af9187918791615324565b60006121da613e48565b805490915060ff600160401b82041615906001600160401b03166000811580156122015750825b90506000826001600160401b0316600114801561221d5750303b155b90508115801561222b575080155b156122495760405163f92ee8a960e01b815260040160405180910390fd5b845467ffffffffffffffff19166001178555831561227357845460ff60401b1916600160401b1785555b61227b613e71565b61228486613e79565b61228d87613e8a565b612295613e71565b61229d613ebe565b6122a86000876132e8565b506122d37fb19546dff01e856fb3f010c267a7b1c60363cf8a4664e21cc89c26224620214e876132e8565b5061230c600080516020615a108339815191527fb19546dff01e856fb3f010c267a7b1c60363cf8a4664e21cc89c26224620214e613ece565b6123447fd877142ad2f92a7d4cd9e425a144cae1b0d908135b086d0aac4d05603ebdd899600080516020615a10833981519152613ece565b61237c7fcb4e9bedf9db66de77d2648cbd49e5dcad686269cc5c887eb6fa8d2052ec1e35600080516020615a10833981519152613ece565b6000612386613287565b6001600890910155508315611c0957845460ff60401b19168555604051600181527fc7f505b2f371ae2175ee4913f4499e1f2633a7b5936321eed1cdaeb6115181d29060200160405180910390a150505050505050565b60006123e7613287565b60018101546040516352e25b6160e11b8152600481018590523360248201529192506001600160a01b03169063a5c4b6c290604401600060405180830381600087803b15801561243657600080fd5b505af115801561244a573d6000803e3d6000fd5b505050505050565b61245a61438d565b6000612464613287565b60008581526005820160205260409020600181015491925090600160a01b900460ff166124cb5760405162461bcd60e51b815260206004820152601560248201527414995c5d595cdd081b9bdd0818dbdb5c1b195d1959605a1b6044820152606401610874565b80600e01546001146124ef5760405162461bcd60e51b8152600401610874906155b8565b816007016000868152602001908152602001600020600085600081518110612519576125196151c5565b6020908102919091018101516060015182528101919091526040016000205460ff1661257e5760405162461bcd60e51b8152602060048201526014602482015273139bd91948191a59081b9bdd081c995cdc1bdb9960621b6044820152606401610874565b600184600081518110612593576125936151c5565b60200260200101516000015160028111156125b0576125b0614ae2565b146125fd5760405162461bcd60e51b815260206004820152601e60248201527f526573706f6e736520737461747573206973206e6f74207375636365737300006044820152606401610874565b60008581526006830160205260408120805490919061261e5761261e6151c5565b600091825260209091206040805160a081019091526005909202018054829060ff16600281111561265157612651614ae2565b600281111561266257612662614ae2565b8152602001600182018054612676906151db565b80601f01602080910402602001604051908101604052809291908181526020018280546126a2906151db565b80156126ef5780601f106126c4576101008083540402835291602001916126ef565b820191906000526020600020905b8154815290600101906020018083116126d257829003601f168201915b50505050508152602001600282018054612708906151db565b80601f0160208091040260200160405190810160405280929190818152602001828054612734906151db565b80156127815780601f1061275657610100808354040283529160200191612781565b820191906000526020600020905b81548152906001019060200180831161276457829003601f168201915b50505050508152602001600382015481526020016004820154815250509250505092915050565b6000806127b3613287565b600181015460405163136e644f60e21b8152600481018c90529192506000916001600160a01b0390911690634db9913c906024016040805180830381865afa158015612803573d6000803e3d6000fd5b505050506040513d601f19601f820116820180604052508101906128279190615615565b80519091506001600160a01b031633146128835760405162461bcd60e51b815260206004820152601f60248201527f53657373696f6e206e6f742072656c6174656420746f207468652075736572006044820152606401610874565b833410156128d35760405162461bcd60e51b815260206004820152601960248201527f496e73756666696369656e742063616c6c6261636b20676173000000000000006044820152606401610874565b6002820154604051630114b26960e11b8152600481018b90526001600160a01b039091169063022964d290602401602060405180830381865afa15801561291e573d6000803e3d6000fd5b505050506040513d601f19601f82011682018060405250810190612942919061554c565b6129855760405162461bcd60e51b8152602060048201526014602482015273135bd9195b08191bd95cc81b9bdd08195e1a5cdd60621b6044820152606401610874565b604080514260208201529081018b90526bffffffffffffffffffffffff19606087811b82168184015233901b1660748201526000906088016040516020818303038152906040528051906020012090506040518061014001604052808c8152602001876001600160a01b031681526020016000151581526020018b81526020018a8152602001898152602001888152602001868152602001600081526020016040518060a0016040528060016002811115612a4257612a42614ae2565b815260408051602081810183526000808352818501929092528251808201845282815283850152606080850183905242608095860152949095528681526005890185528190208551815585850151600182018054938801511515600160a01b026001600160a81b03199094166001600160a01b03909216919091179290921790915591840151600283015583015180518051929391926003850192612aeb9284929101906143c0565b506020828101518051612b0492600185019201906143c0565b506040820151600282018054606085015160ff166401000000000264ffffffffff1990911663ffffffff90931692909217919091178082556080840151919065ff0000000000191665010000000000836004811115612b6557612b65614ae2565b0217905550505060a0820151805160068301908190612b849082615263565b5060208201516001820190612b999082615263565b50604082015160028201805460ff191660018381811115612bbc57612bbc614ae2565b0217905550606082015160038201556080820151600482015560a09091015160059091015560c08201518051600c8301805460208401516040909401516001600160a01b0316600160401b0268010000000000000000600160e01b031960e095861c6401000000000267ffffffffffffffff1990931694861c949094179190911792909216919091179055820151600d820155610100820151600e8201556101208201518051600f83018054909190829060ff19166001836002811115612c8557612c85614ae2565b021790555060208201516001820190612c9e9082615263565b5060408201516002820190612cb39082615263565b50606082015160038083019190915560809092015160049091015585018054600181018255600091825260208220018490556040516001600160a01b038a1693508e925084917f146edb1cf019355ed32a9220da0c085f37fffdf2933b4274e8eda3aeab901ba491a49a9950505050505050505050565b612d32613255565b6001600160a01b038116612d5c57604051631e4fbdf760e01b815260006004820152602401610874565b612d658161364e565b50565b612d7061440b565b6000612d7a613287565b60008481526005820160209081526040918290208251610140810184528154815260018201546001600160a01b0381168285015260ff600160a01b9091041615158185015260028201546060820152835160038301805460c09581028301860190965260a082018681529697509195929460808701949193849290918491840182828015612e2757602002820191906000526020600020905b815481526020019060010190808311612e13575b5050505050815260200160018201805480602002602001604051908101604052809291908181526020018280548015612e7f57602002820191906000526020600020905b815481526020019060010190808311612e6b575b5050509183525050600282015463ffffffff8116602083015260ff64010000000082048116604084015260609092019165010000000000909104166004811115612ecb57612ecb614ae2565b6004811115612edc57612edc614ae2565b815250508152602001600682016040518060c0016040529081600082018054612f04906151db565b80601f0160208091040260200160405190810160405280929190818152602001828054612f30906151db565b8015612f7d5780601f10612f5257610100808354040283529160200191612f7d565b820191906000526020600020905b815481529060010190602001808311612f6057829003601f168201915b50505050508152602001600182018054612f96906151db565b80601f0160208091040260200160405190810160405280929190818152602001828054612fc2906151db565b801561300f5780601f10612fe45761010080835404028352916020019161300f565b820191906000526020600020905b815481529060010190602001808311612ff257829003601f168201915b5050509183525050600282015460209091019060ff16600181111561303657613036614ae2565b600181111561304757613047614ae2565b81526003820154602080830191909152600483015460408084019190915260059093015460609283015292845281518082018352600c8601546001600160e01b031960e082811b821684526401000000008304901b16828601526001600160a01b03600160401b909104168184015292840192909252600d84015483820152600e84015491830191909152805160a08101909152600f83018054608090930192829060ff1660028111156130fd576130fd614ae2565b600281111561310e5761310e614ae2565b8152602001600182018054613122906151db565b80601f016020809104026020016040519081016040528092919081815260200182805461314e906151db565b801561319b5780601f106131705761010080835404028352916020019161319b565b820191906000526020600020905b81548152906001019060200180831161317e57829003601f168201915b505050505081526020016002820180546131b4906151db565b80601f01602080910402602001604051908101604052809291908181526020018280546131e0906151db565b801561322d5780601f106132025761010080835404028352916020019161322d565b820191906000526020600020905b81548152906001019060200180831161321057829003601f168201915b5050509183525050600382015460208201526004909101546040909101529052509392505050565b3361325e6112ca565b6001600160a01b0316146111d75760405163118cdaa760e01b8152336004820152602401610874565b7fd9df4050ae7b51269371916df4148c5d25559acd8ad82e2b2cc4c87cd91c7e0090565b60006107e6826040518060400160405280600f81526020016e3a393ab9ba1730baba3437b932b21760891b815250613f31565b612d658133613ffc565b6000600080516020615a308339815191526133038484611347565b613383576000848152602082815260408083206001600160a01b03871684529091529020805460ff191660011790556133393390565b6001600160a01b0316836001600160a01b0316857f2f8788117e7eff1d82e926ec794901d17c78024a50270940304540a733656f0d60405160405180910390a460019150506107e6565b60009150506107e6565b6000600080516020615a308339815191526133a88484611347565b15613383576000848152602082815260408083206001600160a01b0387168085529252808320805460ff1916905551339287917ff6391f5c32d9c69d2a47ea670b442974b53935d1edc7fd64eb21e047a839171b9190a460019150506107e6565b306001600160a01b037f000000000000000000000000000000000000000000000000000000000000000016148061349057507f00000000000000000000000000000000000000000000000000000000000000006001600160a01b03166134846000805160206159f0833981519152546001600160a01b031690565b6001600160a01b031614155b156111d75760405163703e46dd60e11b815260040160405180910390fd5b6134d87fb19546dff01e856fb3f010c267a7b1c60363cf8a4664e21cc89c26224620214e33611347565b612d655760405162461bcd60e51b815260206004820152600e60248201526d139bdd08185d5d1a1bdc9a5e995960921b6044820152606401610874565b816001600160a01b03166352d1902d6040518163ffffffff1660e01b8152600401602060405180830381865afa92505050801561356f575060408051601f3d908101601f1916820190925261356c9181019061539c565b60015b61359757604051634c9c8ce360e01b81526001600160a01b0383166004820152602401610874565b6000805160206159f083398151915281146135c857604051632a87526960e21b815260048101829052602401610874565b6107b08383614035565b306001600160a01b037f000000000000000000000000000000000000000000000000000000000000000016146111d75760405163703e46dd60e11b815260040160405180910390fd5b60006107e6826040518060400160405280600f81526020016e3a393ab9ba173b32b934b334b2b21760891b815250613f31565b7f9016d09d72d40fdae2fd8ceac6b6234c7706214fd39c1cd1e609a0528c19930080546001600160a01b031981166001600160a01b03848116918217845560405192169182907f8be0079c531659141344cd1fd0a4f28419497f9722a3daafe3b4186f6b6457e090600090a3505050565b7f9b779b17422d0df92223018b32b4d1fa46e071723d6817e2486d003becc55f0080546001190161370357604051633ee5aeb560e01b815260040160405180910390fd5b60029055565b610e3a828260405160240161371f92919061566e565b60408051601f198184030181529190526020810180516001600160e01b031663319af33360e01b17905261408b565b600080613759613287565b8351909150156137a45760005b83518110156137a25785848281518110613782576137826151c5565b60200260200101510361379a576001925050506138e4565b600101613766565b505b60005b84518110156138dd5760008582815181106137c4576137c46151c5565b602090810291909101015183546040516337556c0360e21b8152600481018a9052602481018390529192506001600160a01b03169063dd55b00c90604401602060405180830381865afa15801561381f573d6000803e3d6000fd5b505050506040513d601f19601f82011682018060405250810190613843919061554c565b156138d4578254604051631e892ccf60e01b815260048101899052602481018390526000916001600160a01b031690631e892ccf90604401602060405180830381865afa158015613898573d6000803e3d6000fd5b505050506040513d601f19601f820116820180604052508101906138bc919061539c565b90508042116138d25760019450505050506138e4565b505b506001016137a7565b5060009150505b9392505050565b6138f361438d565b6040518060a0016040528086600281111561391057613910614ae2565b8152602001858152602001848152602001838152602001428152509050949350505050565b60058301546000906139529065010000000000900460ff16614094565b6001858101805460ff60a01b1916600160a01b17905590915082600281111561397d5761397d614ae2565b03613a7857600085815260068401602052604080822090516339124b1f60e21b81526001600160a01b0384169163e4492c7c916139be918a9160040161571b565b600060405180830381865afa1580156139db573d6000803e3d6000fd5b505050506040513d6000823e601f3d908101601f19168201604052613a039190810190615824565b8051600f870180549293508392909190829060ff19166001836002811115613a2d57613a2d614ae2565b021790555060208201516001820190613a469082615263565b5060408201516002820190613a5b9082615263565b506060820151600382015560809091015160049091015550613b62565b6000858152600684016020526040902054613aca5760405162461bcd60e51b8152602060048201526012602482015271139bc81c995cdc1bdb9cd95cc8199bdd5b9960721b6044820152606401610874565b600085815260068401602052604081208054909190613aeb57613aeb6151c5565b600091825260209091206005909102018054600f86018054909160ff1690829060ff19166001836002811115613b2357613b23614ae2565b0217905550600181810190613b3a908401826158fb565b50600281810190613b4d908401826158fb565b50600382810154908201556004918201549101555b6001826002811115613b7657613b76614ae2565b03613cb357600c840154600d850154604051602481018890526000928392600160401b82046001600160a01b031692909160e01b9060440160408051601f198184030181529181526020820180516001600160e01b03166001600160e01b0319909416939093179092529051613bec9190615358565b60006040518083038160008787f1925050503d8060008114613c2a576040519150601f19603f3d011682016040523d82523d6000602084013e613c2f565b606091505b5091509150613c656040518060400160405280601081526020016f537563636573732063616c6c6261636b60801b815250614107565b613c6e8161414a565b81613cac57867fca7cb5fec581ff43e2ba66ce1647295b3efa8ee7c4a1f9f211b3ce720ac3aa3382604051613ca391906149f4565b60405180910390a25b5050613db5565b600c840154600d850154604051602481018890526000928392600160401b82046001600160a01b0316929091640100000000900460e01b9060440160408051601f198184030181529181526020820180516001600160e01b03166001600160e01b0319909416939093179092529051613d2c9190615358565b60006040518083038160008787f1925050503d8060008114613d6a576040519150601f19603f3d011682016040523d82523d6000602084013e613d6f565b606091505b509150915081613db257867f98388b050cb6da6b95f851c993308e53a4752933bdf72cc03900d5b7f61135bb82604051613da991906149f4565b60405180910390a25b50505b847f7440dcb305810aebdd91a4774340f006b79bd122b97103951423b74babbe2e8183604051613de591906155aa565b60405180910390a25050505050565b60017f9b779b17422d0df92223018b32b4d1fa46e071723d6817e2486d003becc55f0055565b60006107e6826040518060400160405280600a8152602001693a393ab9ba17323a381760b11b815250613f31565b6000807ff0c57e16840df040f15088dc2f81fe391c3923bec73e23a9662efc9c229c6a006107e6565b6111d761418d565b613e8161418d565b612d65816141b2565b613e9261418d565b613e9a613e71565b7fad4fe8e5c0444567eeb89b13bf7f7573d4552b43fd078ed93e20764d22767d0155565b613ec661418d565b6111d76141c3565b600080516020615a308339815191526000613ee884610a0b565b600085815260208490526040808220600101869055519192508491839187917fbd79b86ffe0ab8e8776151514217cd7cacd52c909f66475c3af44e129f0b00ff9190a450505050565b6000808351835181811115613f4557600092505b818111613ff25760208601602086016021831015613f78578151815160001960208690036101000a011990811691161494505b60218310613fef57600194506020830460005b81811015613fb857602081028481015190840151808214613fae57600098508392505b5050600101613f8b565b5060006020850611861615613fed5760208181028481015190840151601f87169092036101000a600019011990811691161495505b505b50505b5090949350505050565b6140068282611347565b610e3a5760405163e2517d3f60e01b81526001600160a01b038216600482015260248101839052604401610874565b61403e826141cb565b6040516001600160a01b038316907fbc7cd75a20ee27fd9adebab32041f755214dbc6bffa90cc0225b39da2e5c2d3b90600090a2805115614083576107b08282614230565b610e3a6142a6565b612d65816142c5565b6000808260048111156140a9576140a9614ae2565b036140b5575030919050565b60405162461bcd60e51b815260206004820152602160248201527f526573706f6e7365207374726174656779206e6f7420696d706c656d656e74656044820152601960fa1b6064820152608401610874565b612d658160405160240161411b91906149f4565b60408051601f198184030181529190526020810180516001600160e01b031663104c13eb60e21b17905261408b565b612d658160405160240161415e91906149f4565b60408051601f198184030181529190526020810180516001600160e01b03166305f3bfab60e11b17905261408b565b6141956142e6565b6111d757604051631afcd79f60e31b815260040160405180910390fd5b6141ba61418d565b612d6581614300565b613df461418d565b806001600160a01b03163b60000361420157604051634c9c8ce360e01b81526001600160a01b0382166004820152602401610874565b6000805160206159f083398151915280546001600160a01b0319166001600160a01b0392909216919091179055565b6060600080846001600160a01b03168460405161424d9190615358565b600060405180830381855af49150503d8060008114614288576040519150601f19603f3d011682016040523d82523d6000602084013e61428d565b606091505b509150915061429d858383614308565b95945050505050565b34156111d75760405163b398979f60e01b815260040160405180910390fd5b60006a636f6e736f6c652e6c6f679050600080835160208501845afa505050565b60006142f0613e48565b54600160401b900460ff16919050565b612d3261418d565b60608261431d5761431882614364565b6138e4565b815115801561433457506001600160a01b0384163b155b1561435d57604051639996b31560e01b81526001600160a01b0385166004820152602401610874565b50806138e4565b8051156143745780518082602001fd5b60405163d6bda27560e01b815260040160405180910390fd5b6040805160a081019091528060008152602001606081526020016060815260200160008019168152602001600081525090565b8280548282559060005260206000209081019282156143fb579160200282015b828111156143fb5782518255916020019190600101906143e0565b506144079291506144df565b5090565b60408051610140810182526000808252602082018190529181018290526060810191909152608081016144636040805160a0810182526060808252602082018190526000928201839052810182905290608082015290565b815260200161449f6040805160c08101825260608082526020820152908101600081526020016000815260200160008152602001600081525090565b8152604080516060810182526000808252602082810182905292820152910190815260200160008152602001600081526020016144da61438d565b905290565b5b8082111561440757600081556001016144e0565b634e487b7160e01b600052604160045260246000fd5b60405160a081016001600160401b038111828210171561452c5761452c6144f4565b60405290565b60405160c081016001600160401b038111828210171561452c5761452c6144f4565b60405161012081016001600160401b038111828210171561452c5761452c6144f4565b604051601f8201601f191681016001600160401b038111828210171561459f5761459f6144f4565b604052919050565b60006001600160401b038211156145c0576145c06144f4565b5060051b60200190565b6001600160a01b0381168114612d6557600080fd5b80356145ea816145ca565b919050565b60006020828403121561460157600080fd5b81356001600160401b0381111561461757600080fd5b8201601f8101841361462857600080fd5b803561463b614636826145a7565b614577565b8082825260208201915060208360051b85010192508683111561465d57600080fd5b6020840193505b82841015614688578335614677816145ca565b825260209384019390910190614664565b9695505050505050565b80356001600160e01b0319811681146145ea57600080fd5b6000602082840312156146bc57600080fd5b6138e482614692565b60006001600160401b038211156146de576146de6144f4565b50601f01601f191660200190565b600082601f8301126146fd57600080fd5b8135602083016000614711614636846146c5565b905082815285838301111561472557600080fd5b82826020830137600092810160200192909252509392505050565b6000806040838503121561475357600080fd5b82356001600160401b0381111561476957600080fd5b614775858286016146ec565b9250506020830135614786816145ca565b809150509250929050565b6000602082840312156147a357600080fd5b5035919050565b600080604083850312156147bd57600080fd5b823591506020830135614786816145ca565b6000602082840312156147e157600080fd5b81356001600160401b038111156147f757600080fd5b614803848285016146ec565b949350505050565b60005b8381101561482657818101518382015260200161480e565b50506000910152565b6000815180845261484781602086016020860161480b565b601f01601f19169290920160200192915050565b6000602082016020835280845180835260408501915060408160051b86010192506020860160005b82811015613fef57603f1987860301845261489f85835161482f565b94506020938401939190910190600101614883565b600080604083850312156148c757600080fd5b82356148d2816145ca565b915060208301356001600160401b038111156148ed57600080fd5b6148f9858286016146ec565b9150509250929050565b60008060006060848603121561491857600080fd5b83356001600160401b0381111561492e57600080fd5b61493a868287016146ec565b935050602084013561494b816145ca565b9150604084013561495b816145ca565b809150509250925092565b6000806040838503121561497957600080fd5b50508035926020909101359150565b600081518084526020840193506020830160005b828110156149ba57815186526020958601959091019060010161499c565b5093949350505050565b6020815260006138e46020830184614988565b6000602082840312156149e957600080fd5b81356138e4816145ca565b6020815260006138e4602083018461482f565b600080600060608486031215614a1c57600080fd5b8335614a27816145ca565b9250602084013561494b816145ca565b60038110612d6557600080fd5b600080600080600080600060e0888a031215614a5f57600080fd5b873596506020880135614a7181614a37565b955060408801356001600160401b03811115614a8c57600080fd5b614a988a828b016146ec565b95505060608801356001600160401b03811115614ab457600080fd5b614ac08a828b016146ec565b979a969950949760808101359660a0820135965060c090910135945092505050565b634e487b7160e01b600052602160045260246000fd5b60038110614b0857614b08614ae2565b9052565b614b168185614af8565b606060208201526000614b2c606083018561482f565b8281036040840152614688818561482f565b60008060408385031215614b5157600080fd5b8235915060208301356001600160401b03811115614b6e57600080fd5b8301601f81018513614b7f57600080fd5b8035614b8d614636826145a7565b8082825260208201915060208360051b850101925087831115614baf57600080fd5b602084015b83811015614c825780356001600160401b03811115614bd257600080fd5b850160a0818b03601f19011215614be857600080fd5b614bf061450a565b6020820135614bfe81614a37565b815260408201356001600160401b03811115614c1957600080fd5b614c288c6020838601016146ec565b60208301525060608201356001600160401b03811115614c4757600080fd5b614c568c6020838601016146ec565b604083015250608082810135606083015260a09092013591810191909152835260209283019201614bb4565b50809450505050509250929050565b614c9c828251614af8565b6000602082015160a06020850152614cb760a085018261482f565b905060408301518482036040860152614cd0828261482f565b91505060608301516060850152608083015160808501528091505092915050565b6020815260006138e46020830184614c91565b600082601f830112614d1557600080fd5b8135614d23614636826145a7565b8082825260208201915060208360051b860101925085831115614d4557600080fd5b602085015b83811015614d62578035835260209283019201614d4a565b5095945050505050565b803560ff811681146145ea57600080fd5b8035600581106145ea57600080fd5b8035600281106145ea57600080fd5b600060c08284031215614dad57600080fd5b614db5614532565b905081356001600160401b03811115614dcd57600080fd5b614dd9848285016146ec565b82525060208201356001600160401b03811115614df557600080fd5b614e01848285016146ec565b602083015250614e1360408301614d8c565b6040820152606082810135908201526080808301359082015260a09182013591810191909152919050565b600060608284031215614e5057600080fd5b604051606081016001600160401b0381118282101715614e7257614e726144f4565b604052905080614e8183614692565b8152614e8f60208401614692565b60208201526040830135614ea2816145ca565b6040919091015292915050565b6000806000806000806000610120888a031215614ecb57600080fd5b873596506020880135955060408801356001600160401b03811115614eef57600080fd5b880160a0818b031215614f0157600080fd5b614f0961450a565b81356001600160401b03811115614f1f57600080fd5b614f2b8c828501614d04565b82525060208201356001600160401b03811115614f4757600080fd5b614f538c828501614d04565b602083015250604082013563ffffffff81168114614f7057600080fd5b6040820152614f8160608301614d6c565b6060820152614f9260808301614d7d565b608082015295505060608801356001600160401b03811115614fb357600080fd5b614fbf8a828b01614d9b565b945050614fcf8960808a01614e3e565b9250614fdd60e089016145df565b9699959850939692959194919350506101009091013590565b6000815160a0845261500b60a0850182614988565b9050602083015184820360208601526150248282614988565b91505063ffffffff604084015116604085015260ff606084015116606085015260808301516005811061505957615059614ae2565b806080860152508091505092915050565b6000815160c0845261507f60c085018261482f565b905060208301518482036020860152615098828261482f565b9150506040830151600281106150b0576150b0614ae2565b6040850152606083810151908501526080808401519085015260a09283015192909301919091525090565b60208152815160208201526000602083015161510260408401826001600160a01b03169052565b50604083015180151560608401525060608301516080830152608083015161018060a08401526151366101a0840182614ff6565b905060a0840151601f198483030160c0850152615153828261506a565b60c086015180516001600160e01b031990811660e088015260208201511661010087015260408101516001600160a01b031661012087015290925090505060e0840151610140840152610100840151610160840152610120840151838203601f190161018085015261429d8282614c91565b634e487b7160e01b600052603260045260246000fd5b600181811c908216806151ef57607f821691505b60208210810361520f57634e487b7160e01b600052602260045260246000fd5b50919050565b601f8211156107b057806000526020600020601f840160051c8101602085101561523c5750805b601f840160051c820191505b8181101561525c5760008155600101615248565b5050505050565b81516001600160401b0381111561527c5761527c6144f4565b6152908161528a84546151db565b84615215565b6020601f8211600181146152c757600083156152ac5750848201515b600184901b600019600386901b1c198216175b85555061525c565b600084815260208120601f198516915b828110156152f757878501518255602094850194600190920191016152d7565b50848210156153155786840151600019600387901b60f8161c191681555b50505050600190811b01905550565b606081526000615337606083018661482f565b6001600160a01b03851660208401528281036040840152614688818561482f565b6000825161536a81846020870161480b565b9190910192915050565b80516145ea816145ca565b60006020828403121561539157600080fd5b81516138e4816145ca565b6000602082840312156153ae57600080fd5b5051919050565b634e487b7160e01b600052601160045260246000fd5b818103818111156107e6576107e66153b5565b600082601f8301126153ef57600080fd5b81516153fd614636826145a7565b8082825260208201915060208360051b86010192508583111561541f57600080fd5b602085015b83811015614d62578051835260209283019201615424565b805180151581146145ea57600080fd5b60006020828403121561545e57600080fd5b81516001600160401b0381111561547457600080fd5b8201610120818503121561548757600080fd5b61548f614554565b61549882615374565b81526154a660208301615374565b60208201526154b760408301615374565b604082015260608201516001600160401b038111156154d557600080fd5b6154e1868285016153de565b60608301525060808201516001600160401b0381111561550057600080fd5b61550c868285016153de565b60808301525060a0828101519082015261552860c0830161543c565b60c082015260e0828101519082015261010091820151918101919091529392505050565b60006020828403121561555e57600080fd5b6138e48261543c565b80820281158282048414176107e6576107e66153b5565b808201808211156107e6576107e66153b5565b6000600182016155a3576155a36153b5565b5060010190565b602081016107e68284614af8565b6020808252603c908201527f4e6f20726573706f6e73657320666f756e64206f72206d756c7469706c65207260408201527f6573706f6e73657320776974686f7574206167677265676174696f6e00000000606082015260800190565b6000604082840312801561562857600080fd5b50604080519081016001600160401b038111828210171561564b5761564b6144f4565b6040528251615659816145ca565b81526020928301519281019290925250919050565b604081526000615681604083018561482f565b905060018060a01b03831660208301529392505050565b600081546156a5816151db565b8085526001821680156156bf57600181146156db57615712565b60ff1983166020870152602082151560051b8701019350615712565b84600052602060002060005b838110156157095781546020828a0101526001820191506020810190506156e7565b87016020019450505b50505092915050565b6000604082018483526040602084015280845480835260608501915060608160051b860101925085600052602060002060005b828110156157c757605f1987860301845261576d8560ff845416614af8565b60a0602086015261578460a0860160018401615698565b85810360408701526157998160028501615698565b600384015460608801526004840154608090970196909652506020939093019260059091019060010161574e565b5092979650505050505050565b60006157e2614636846146c5565b90508281528383830111156157f657600080fd5b6138e483602083018461480b565b600082601f83011261581557600080fd5b6138e4838351602085016157d4565b60006020828403121561583657600080fd5b81516001600160401b0381111561584c57600080fd5b820160a0818503121561585e57600080fd5b61586661450a565b815161587181614a37565b815260208201516001600160401b0381111561588c57600080fd5b8201601f8101861361589d57600080fd5b6158ac868251602084016157d4565b60208301525060408201516001600160401b038111156158cb57600080fd5b6158d786828501615804565b60408301525060608281015190820152608091820151918101919091529392505050565b818103615906575050565b61591082546151db565b6001600160401b03811115615927576159276144f4565b6159358161528a84546151db565b6000601f82116001811461596757600083156152ac575081850154600184901b600019600386901b1c198216176152bf565b600085815260209020601f19841690600086815260209020845b838110156159a15782860154825560019586019590910190602001615981565b50858310156159bf5781850154600019600388901b60f8161c191681555b5050505050600190811b0190555056fead4fe8e5c0444567eeb89b13bf7f7573d4552b43fd078ed93e20764d22767d00360894a13ba1a3210667c828492db98dca3e2076cc3735a920a3ca505d382bbc73e9313463d20ecb48d57e0f6f5d83b7adbe3a3f694bf9358ab1f80d8ebcd90a02dd7bc7dec4dceedda775e58dd541e08a116c6c53815c0bd028192f7b626800a2646970667358221220b5edd9296a50f88d8908b79abb7a2919e8c7d1c5549b4f443a04079f4453b5f864736f6c634300081c0033",
  "linkReferences": {},
  "deployedLinkReferences": {}
}