{
  "_format": "hh-sol-artifact-1",
  "contractName": "SessionManagerUpgradeable",
  "sourceName": "contracts/session/session-manager.sol",
  "abi": [
    {
      "inputs": [],
      "stateMutability": "nonpayable",
      "type": "constructor"
    },
    {
      "inputs": [
        {
          "internalType": "address",
          "name": "target",
          "type": "address"
        }
      ],
      "name": "AddressEmptyCode",
      "type": "error"
    },
    {
      "inputs": [
        {
          "internalType": "address",
          "name": "implementation",
          "type": "address"
        }
      ],
      "name": "ERC1967InvalidImplementation",
      "type": "error"
    },
    {
      "inputs": [],
      "name": "ERC1967NonPayable",
      "type": "error"
    },
    {
      "inputs": [],
      "name": "FailedCall",
      "type": "error"
    },
    {
      "inputs": [
        {
          "internalType": "uint256",
          "name": "sessionId",
          "type": "uint256"
        },
        {
          "internalType": "uint256",
          "name": "required",
          "type": "uint256"
        },
        {
          "internalType": "uint256",
          "name": "available",
          "type": "uint256"
        }
      ],
      "name": "InsufficientBalance",
      "type": "error"
    },
    {
      "inputs": [],
      "name": "InvalidAmount",
      "type": "error"
    },
    {
      "inputs": [],
      "name": "InvalidInitialization",
      "type": "error"
    },
    {
      "inputs": [
        {
          "internalType": "uint256",
          "name": "sessionId",
          "type": "uint256"
        }
      ],
      "name": "InvalidSession",
      "type": "error"
    },
    {
      "inputs": [
        {
          "internalType": "address",
          "name": "_dtnContract",
          "type": "address"
        }
      ],
      "name": "NotDtnContract",
      "type": "error"
    },
    {
      "inputs": [],
      "name": "NotInitializing",
      "type": "error"
    },
    {
      "inputs": [
        {
          "internalType": "address",
          "name": "owner",
          "type": "address"
        }
      ],
      "name": "OwnableInvalidOwner",
      "type": "error"
    },
    {
      "inputs": [
        {
          "internalType": "address",
          "name": "account",
          "type": "address"
        }
      ],
      "name": "OwnableUnauthorizedAccount",
      "type": "error"
    },
    {
      "inputs": [
        {
          "internalType": "address",
          "name": "token",
          "type": "address"
        }
      ],
      "name": "SafeERC20FailedOperation",
      "type": "error"
    },
    {
      "inputs": [],
      "name": "TransferFailed",
      "type": "error"
    },
    {
      "inputs": [],
      "name": "UUPSUnauthorizedCallContext",
      "type": "error"
    },
    {
      "inputs": [
        {
          "internalType": "bytes32",
          "name": "slot",
          "type": "bytes32"
        }
      ],
      "name": "UUPSUnsupportedProxiableUUID",
      "type": "error"
    },
    {
      "inputs": [
        {
          "internalType": "address",
          "name": "caller",
          "type": "address"
        },
        {
          "internalType": "address",
          "name": "owner",
          "type": "address"
        }
      ],
      "name": "Unauthorized",
      "type": "error"
    },
    {
      "anonymous": false,
      "inputs": [
        {
          "indexed": false,
          "internalType": "uint64",
          "name": "version",
          "type": "uint64"
        }
      ],
      "name": "Initialized",
      "type": "event"
    },
    {
      "anonymous": false,
      "inputs": [
        {
          "indexed": true,
          "internalType": "address",
          "name": "previousOwner",
          "type": "address"
        },
        {
          "indexed": true,
          "internalType": "address",
          "name": "newOwner",
          "type": "address"
        }
      ],
      "name": "OwnershipTransferred",
      "type": "event"
    },
    {
      "anonymous": false,
      "inputs": [
        {
          "indexed": true,
          "internalType": "uint256",
          "name": "sessionId",
          "type": "uint256"
        },
        {
          "indexed": false,
          "internalType": "uint256",
          "name": "amount",
          "type": "uint256"
        },
        {
          "indexed": true,
          "internalType": "address",
          "name": "to",
          "type": "address"
        }
      ],
      "name": "SessionCharged",
      "type": "event"
    },
    {
      "anonymous": false,
      "inputs": [
        {
          "indexed": true,
          "internalType": "uint256",
          "name": "sessionId",
          "type": "uint256"
        },
        {
          "indexed": false,
          "internalType": "uint256",
          "name": "remainingBalance",
          "type": "uint256"
        }
      ],
      "name": "SessionClosed",
      "type": "event"
    },
    {
      "anonymous": false,
      "inputs": [
        {
          "indexed": true,
          "internalType": "uint256",
          "name": "sessionId",
          "type": "uint256"
        },
        {
          "indexed": true,
          "internalType": "address",
          "name": "owner",
          "type": "address"
        },
        {
          "indexed": false,
          "internalType": "uint256",
          "name": "balance",
          "type": "uint256"
        }
      ],
      "name": "SessionStarted",
      "type": "event"
    },
    {
      "anonymous": false,
      "inputs": [
        {
          "indexed": true,
          "internalType": "address",
          "name": "implementation",
          "type": "address"
        }
      ],
      "name": "Upgraded",
      "type": "event"
    },
    {
      "inputs": [],
      "name": "UPGRADE_INTERFACE_VERSION",
      "outputs": [
        {
          "internalType": "string",
          "name": "",
          "type": "string"
        }
      ],
      "stateMutability": "view",
      "type": "function"
    },
    {
      "inputs": [
        {
          "internalType": "address[]",
          "name": "_dtnContracts",
          "type": "address[]"
        }
      ],
      "name": "addDtnContracts",
      "outputs": [],
      "stateMutability": "nonpayable",
      "type": "function"
    },
    {
      "inputs": [
        {
          "internalType": "uint256",
          "name": "sessionId",
          "type": "uint256"
        },
        {
          "internalType": "uint256",
          "name": "amount",
          "type": "uint256"
        },
        {
          "internalType": "address",
          "name": "to",
          "type": "address"
        }
      ],
      "name": "chargeUserSession",
      "outputs": [],
      "stateMutability": "nonpayable",
      "type": "function"
    },
    {
      "inputs": [
        {
          "internalType": "uint256",
          "name": "sessionId",
          "type": "uint256"
        },
        {
          "internalType": "address",
          "name": "owner",
          "type": "address"
        }
      ],
      "name": "closeUserSession",
      "outputs": [],
      "stateMutability": "nonpayable",
      "type": "function"
    },
    {
      "inputs": [],
      "name": "getFeeTarget",
      "outputs": [
        {
          "internalType": "address",
          "name": "",
          "type": "address"
        }
      ],
      "stateMutability": "view",
      "type": "function"
    },
    {
      "inputs": [],
      "name": "getFeeToken",
      "outputs": [
        {
          "internalType": "address",
          "name": "",
          "type": "address"
        }
      ],
      "stateMutability": "view",
      "type": "function"
    },
    {
      "inputs": [
        {
          "internalType": "uint256",
          "name": "sessionId",
          "type": "uint256"
        }
      ],
      "name": "getSessionBalance",
      "outputs": [
        {
          "internalType": "uint256",
          "name": "",
          "type": "uint256"
        }
      ],
      "stateMutability": "view",
      "type": "function"
    },
    {
      "inputs": [
        {
          "internalType": "uint256",
          "name": "sessionId",
          "type": "uint256"
        }
      ],
      "name": "getSessionById",
      "outputs": [
        {
          "components": [
            {
              "internalType": "address",
              "name": "owner",
              "type": "address"
            },
            {
              "internalType": "uint256",
              "name": "balance",
              "type": "uint256"
            }
          ],
          "internalType": "struct ISessionManager.Session",
          "name": "",
          "type": "tuple"
        }
      ],
      "stateMutability": "view",
      "type": "function"
    },
    {
      "inputs": [
        {
          "internalType": "address",
          "name": "user",
          "type": "address"
        }
      ],
      "name": "getUserSessionIds",
      "outputs": [
        {
          "internalType": "uint256[]",
          "name": "",
          "type": "uint256[]"
        }
      ],
      "stateMutability": "view",
      "type": "function"
    },
    {
      "inputs": [
        {
          "internalType": "address",
          "name": "user",
          "type": "address"
        }
      ],
      "name": "getUserSessions",
      "outputs": [
        {
          "components": [
            {
              "internalType": "address",
              "name": "owner",
              "type": "address"
            },
            {
              "internalType": "uint256",
              "name": "balance",
              "type": "uint256"
            }
          ],
          "internalType": "struct ISessionManager.Session[]",
          "name": "",
          "type": "tuple[]"
        }
      ],
      "stateMutability": "view",
      "type": "function"
    },
    {
      "inputs": [
        {
          "internalType": "address",
          "name": "_feeToken",
          "type": "address"
        },
        {
          "internalType": "address",
          "name": "_feeTarget",
          "type": "address"
        },
        {
          "internalType": "address",
          "name": "owner",
          "type": "address"
        }
      ],
      "name": "initialize",
      "outputs": [],
      "stateMutability": "nonpayable",
      "type": "function"
    },
    {
      "inputs": [],
      "name": "owner",
      "outputs": [
        {
          "internalType": "address",
          "name": "",
          "type": "address"
        }
      ],
      "stateMutability": "view",
      "type": "function"
    },
    {
      "inputs": [],
      "name": "proxiableUUID",
      "outputs": [
        {
          "internalType": "bytes32",
          "name": "",
          "type": "bytes32"
        }
      ],
      "stateMutability": "view",
      "type": "function"
    },
    {
      "inputs": [
        {
          "internalType": "address",
          "name": "_dtnContract",
          "type": "address"
        }
      ],
      "name": "removeDtnContracts",
      "outputs": [],
      "stateMutability": "nonpayable",
      "type": "function"
    },
    {
      "inputs": [],
      "name": "renounceOwnership",
      "outputs": [],
      "stateMutability": "nonpayable",
      "type": "function"
    },
    {
      "inputs": [
        {
          "internalType": "address",
          "name": "_feeTarget",
          "type": "address"
        }
      ],
      "name": "setFeeTarget",
      "outputs": [],
      "stateMutability": "nonpayable",
      "type": "function"
    },
    {
      "inputs": [
        {
          "internalType": "address",
          "name": "owner",
          "type": "address"
        }
      ],
      "name": "startUserSession",
      "outputs": [
        {
          "internalType": "uint256",
          "name": "",
          "type": "uint256"
        }
      ],
      "stateMutability": "nonpayable",
      "type": "function"
    },
    {
      "inputs": [
        {
          "internalType": "address",
          "name": "_feeToken",
          "type": "address"
        },
        {
          "internalType": "address",
          "name": "to",
          "type": "address"
        }
      ],
      "name": "sweep",
      "outputs": [],
      "stateMutability": "nonpayable",
      "type": "function"
    },
    {
      "inputs": [
        {
          "internalType": "address",
          "name": "newOwner",
          "type": "address"
        }
      ],
      "name": "transferOwnership",
      "outputs": [],
      "stateMutability": "nonpayable",
      "type": "function"
    },
    {
      "inputs": [
        {
          "internalType": "address",
          "name": "newImplementation",
          "type": "address"
        },
        {
          "internalType": "bytes",
          "name": "data",
          "type": "bytes"
        }
      ],
      "name": "upgradeToAndCall",
      "outputs": [],
      "stateMutability": "payable",
      "type": "function"
    }
  ],
  "bytecode": "0x60a060405230608052348015601357600080fd5b50608051611ab661003d60003960008181610b6901528181610b920152610cd30152611ab66000f3fe60806040526004361061011e5760003560e01c80638f05ddc2116100a0578063ca709a2511610064578063ca709a25146103a9578063dc3ca1bf146103d4578063e03176d4146103f4578063e203a83114610414578063f2fde38b1461043457600080fd5b80638f05ddc2146102eb578063a5c4b6c21461030b578063ad3cb1cc1461032b578063b8dc491b14610369578063c0c53b8b1461038957600080fd5b806352d1902d116100e757806352d1902d146101e85780635527014c1461020b578063562b71d41461025c578063715018a6146102995780638da5cb5b146102ae57600080fd5b806241035514610123578063223715dd146101455780633d97fbda1461017b5780634db9913c146101a85780634f1ef286146101d5575b600080fd5b34801561012f57600080fd5b5061014361013e3660046115d5565b610454565b005b34801561015157600080fd5b50610165610160366004611689565b6104d0565b60405161017291906116a4565b60405180910390f35b34801561018757600080fd5b5061019b610196366004611689565b61059e565b6040516101729190611705565b3480156101b457600080fd5b506101c86101c336600461173d565b610629565b6040516101729190611756565b6101436101e3366004611776565b61067a565b3480156101f457600080fd5b506101fd610699565b604051908152602001610172565b34801561021757600080fd5b507ff2c05596afc0fa7a667b407040331ebc39d72b2fe94f39b136657de5e1b94f04546001600160a01b03165b6040516001600160a01b039091168152602001610172565b34801561026857600080fd5b506101fd61027736600461173d565b6000908152600080516020611a01833981519152602052604090206001015490565b3480156102a557600080fd5b506101436106b6565b3480156102ba57600080fd5b507f9016d09d72d40fdae2fd8ceac6b6234c7706214fd39c1cd1e609a0528c199300546001600160a01b0316610244565b3480156102f757600080fd5b50610143610306366004611689565b6106ca565b34801561031757600080fd5b50610143610326366004611821565b610700565b34801561033757600080fd5b5061035c604051806040016040528060058152602001640352e302e360dc1b81525081565b6040516101729190611871565b34801561037557600080fd5b506101436103843660046118a4565b6107ee565b34801561039557600080fd5b506101436103a43660046118ce565b610875565b3480156103b557600080fd5b506000805160206119e1833981519152546001600160a01b0316610244565b3480156103e057600080fd5b506101436103ef366004611689565b61097d565b34801561040057600080fd5b506101fd61040f366004611689565b6109c6565b34801561042057600080fd5b5061014361042f366004611911565b610a72565b34801561044057600080fd5b5061014361044f366004611689565b610ac5565b61045c610b03565b600080516020611a4183398151915260005b82518110156104cb5760018260000160008584815181106104915761049161193d565b6020908102919091018101516001600160a01b03168252810191909152604001600020805460ff191691151591909117905560010161046e565b505050565b606060006104dd8361059e565b90506000815167ffffffffffffffff8111156104fb576104fb611572565b60405190808252806020026020018201604052801561054057816020015b60408051808201909152600080825260208201528152602001906001900390816105195790505b50905060005b8251811015610596576105718382815181106105645761056461193d565b6020026020010151610629565b8282815181106105835761058361193d565b6020908102919091010152600101610546565b509392505050565b6001600160a01b03811660009081527ff2c05596afc0fa7a667b407040331ebc39d72b2fe94f39b136657de5e1b94f01602090815260409182902080548351818402810184019094528084526060939283018282801561061d57602002820191906000526020600020905b815481526020019060010190808311610609575b50505050509050919050565b60408051808201825260008082526020918201819052928352600080516020611a01833981519152815291819020815180830190925280546001600160a01b03168252600101549181019190915290565b610682610b5e565b61068b82610c03565b6106958282610c0b565b5050565b60006106a3610cc8565b50600080516020611a6183398151915290565b6106be610b03565b6106c86000610d11565b565b6106d2610b03565b6001600160a01b03166000908152600080516020611a4183398151915260205260409020805460ff19169055565b336000908152600080516020611a41833981519152602081905260409091205460ff16610747576040516312a0e76360e01b81523360048201526024015b60405180910390fd5b600061075284610629565b9050826001600160a01b031681600001516001600160a01b03161461079e57805160405163295a81c160e01b81523360048201526001600160a01b03909116602482015260440161073e565b60006107a985610d82565b905080156107e7576000805160206119e183398151915254600080516020611a21833981519152906107e5906001600160a01b03168684610f0b565b505b5050505050565b6107f6610b03565b6040516370a0823160e01b81523060048201526106959082906001600160a01b038516906370a0823190602401602060405180830381865afa158015610840573d6000803e3d6000fd5b505050506040513d601f19601f820116820180604052508101906108649190611953565b6001600160a01b0385169190610f64565b600061087f610fb6565b805490915060ff600160401b820416159067ffffffffffffffff166000811580156108a75750825b905060008267ffffffffffffffff1660011480156108c45750303b155b9050811580156108d2575080155b156108f05760405163f92ee8a960e01b815260040160405180910390fd5b845467ffffffffffffffff19166001178555831561091a57845460ff60401b1916600160401b1785555b6109248888610fe1565b61092d86611043565b831561097357845460ff60401b19168555604051600181527fc7f505b2f371ae2175ee4913f4499e1f2633a7b5936321eed1cdaeb6115181d29060200160405180910390a15b5050505050505050565b610985610b03565b7ff2c05596afc0fa7a667b407040331ebc39d72b2fe94f39b136657de5e1b94f0480546001600160a01b0319166001600160a01b0392909216919091179055565b336000908152600080516020611a418339815191526020819052604082205460ff16610a07576040516312a0e76360e01b815233600482015260240161073e565b6000805160206119e183398151915254600080516020611a2183398151915290600090610a3c906001600160a01b0316611054565b905080600003610a5f5760405163162908e360e11b815260040160405180910390fd5b610a6985826110f8565b95945050505050565b336000908152600080516020611a41833981519152602081905260409091205460ff16610ab4576040516312a0e76360e01b815233600482015260240161073e565b610abf8484846111ca565b50505050565b610acd610b03565b6001600160a01b038116610af757604051631e4fbdf760e01b81526000600482015260240161073e565b610b0081610d11565b50565b33610b357f9016d09d72d40fdae2fd8ceac6b6234c7706214fd39c1cd1e609a0528c199300546001600160a01b031690565b6001600160a01b0316146106c85760405163118cdaa760e01b815233600482015260240161073e565b306001600160a01b037f0000000000000000000000000000000000000000000000000000000000000000161480610be557507f00000000000000000000000000000000000000000000000000000000000000006001600160a01b0316610bd9600080516020611a61833981519152546001600160a01b031690565b6001600160a01b031614155b156106c85760405163703e46dd60e11b815260040160405180910390fd5b610b00610b03565b816001600160a01b03166352d1902d6040518163ffffffff1660e01b8152600401602060405180830381865afa925050508015610c65575060408051601f3d908101601f19168201909252610c6291810190611953565b60015b610c8d57604051634c9c8ce360e01b81526001600160a01b038316600482015260240161073e565b600080516020611a618339815191528114610cbe57604051632a87526960e21b81526004810182905260240161073e565b6104cb83836112da565b306001600160a01b037f000000000000000000000000000000000000000000000000000000000000000016146106c85760405163703e46dd60e11b815260040160405180910390fd5b7f9016d09d72d40fdae2fd8ceac6b6234c7706214fd39c1cd1e609a0528c19930080546001600160a01b031981166001600160a01b03848116918217845560405192169182907f8be0079c531659141344cd1fd0a4f28419497f9722a3daafe3b4186f6b6457e090600090a3505050565b6000818152600080516020611a01833981519152602052604081208054600080516020611a2183398151915291906001600160a01b0316610dd957604051630950e82760e41b81526004810185905260240161073e565b6001808201546000868152600285016020908152604080832080546001600160a01b0319168155850183905585546001600160a01b03168352938601905291822090915b8154811015610ec75786828281548110610e3957610e3961193d565b906000526020600020015403610ebf5781548290610e5990600190611982565b81548110610e6957610e6961193d565b9060005260206000200154828281548110610e8657610e8661193d565b906000526020600020018190555081805480610ea457610ea4611995565b60019003818190600052602060002001600090559055610ec7565b600101610e1d565b50857fd2fe606d6e5a1d7a66766fa1df5b7868957cdeb3e929db537e6cea563a79e8e683604051610efa91815260200190565b60405180910390a250949350505050565b7ff2c05596afc0fa7a667b407040331ebc39d72b2fe94f39b136657de5e1b94f058054600080516020611a21833981519152918391600090610f4e908490611982565b90915550610abf90506001600160a01b03851684845b604080516001600160a01b038416602482015260448082018490528251808303909101815260649091019091526020810180516001600160e01b031663a9059cbb60e01b1790526104cb908490611330565b6000807ff0c57e16840df040f15088dc2f81fe391c3923bec73e23a9662efc9c229c6a005b92915050565b610fe96113a1565b6000805160206119e183398151915280546001600160a01b039384166001600160a01b0319918216179091557ff2c05596afc0fa7a667b407040331ebc39d72b2fe94f39b136657de5e1b94f048054929093169116179055565b61104b6113a1565b610b00816113c6565b600080600080516020611a218339815191526040516370a0823160e01b81523060048201529091506000906001600160a01b038516906370a0823190602401602060405180830381865afa1580156110b0573d6000803e3d6000fd5b505050506040513d601f19601f820116820180604052508101906110d49190611953565b905060008260050154826110e89190611982565b6005909301919091555092915050565b600080600080516020611a2183398151915290506000816000016000815461111f906119ab565b91829055506040805180820182526001600160a01b0388811680835260208084018a8152600087815260028a018352868120955186546001600160a01b03191695169490941785555160019485015581835283880181528483208054948501815583529182902090920184905591518781529293509183917f16179d2ae7d0f222358d8b9a730126da72c9a3c322b695c25d9a67dcbad4b745910160405180910390a3949350505050565b6000838152600080516020611a01833981519152602052604090208054600080516020611a2183398151915291906001600160a01b031661122157604051630950e82760e41b81526004810186905260240161073e565b838160010154101561125d57600181015460405163fcca373360e01b81526004810187905260248101869052604481019190915260640161073e565b838160010160008282546112719190611982565b9091555050600382015461128f906001600160a01b03168486610f0b565b826001600160a01b0316857f95d9ac71fa5059c6b0dab152a1b719046f8820751d0ef43042b6d7d9a2b69a77866040516112cb91815260200190565b60405180910390a35050505050565b6112e3826113d7565b6040516001600160a01b038316907fbc7cd75a20ee27fd9adebab32041f755214dbc6bffa90cc0225b39da2e5c2d3b90600090a2805115611328576104cb828261143c565b6106956114a9565b600080602060008451602086016000885af180611353576040513d6000823e3d81fd5b50506000513d9150811561136b578060011415611378565b6001600160a01b0384163b155b15610abf57604051635274afe760e01b81526001600160a01b038516600482015260240161073e565b6113a96114c8565b6106c857604051631afcd79f60e31b815260040160405180910390fd5b6113ce6113a1565b610b00816114e2565b806001600160a01b03163b60000361140d57604051634c9c8ce360e01b81526001600160a01b038216600482015260240161073e565b600080516020611a6183398151915280546001600160a01b0319166001600160a01b0392909216919091179055565b6060600080846001600160a01b03168460405161145991906119c4565b600060405180830381855af49150503d8060008114611494576040519150601f19603f3d011682016040523d82523d6000602084013e611499565b606091505b5091509150610a698583836114ea565b34156106c85760405163b398979f60e01b815260040160405180910390fd5b60006114d2610fb6565b54600160401b900460ff16919050565b610acd6113a1565b6060826114ff576114fa82611549565b611542565b815115801561151657506001600160a01b0384163b155b1561153f57604051639996b31560e01b81526001600160a01b038516600482015260240161073e565b50805b9392505050565b8051156115595780518082602001fd5b60405163d6bda27560e01b815260040160405180910390fd5b634e487b7160e01b600052604160045260246000fd5b604051601f8201601f1916810167ffffffffffffffff811182821017156115b1576115b1611572565b604052919050565b80356001600160a01b03811681146115d057600080fd5b919050565b6000602082840312156115e757600080fd5b813567ffffffffffffffff8111156115fe57600080fd5b8201601f8101841361160f57600080fd5b803567ffffffffffffffff81111561162957611629611572565b8060051b61163960208201611588565b9182526020818401810192908101908784111561165557600080fd5b6020850194505b8385101561167e5761166d856115b9565b82526020948501949091019061165c565b979650505050505050565b60006020828403121561169b57600080fd5b611542826115b9565b602080825282518282018190526000918401906040840190835b818110156116fa576116e483855180516001600160a01b03168252602090810151910152565b60209390930192604092909201916001016116be565b509095945050505050565b602080825282518282018190526000918401906040840190835b818110156116fa57835183526020938401939092019160010161171f565b60006020828403121561174f57600080fd5b5035919050565b81516001600160a01b031681526020808301519082015260408101610fdb565b6000806040838503121561178957600080fd5b611792836115b9565b9150602083013567ffffffffffffffff8111156117ae57600080fd5b8301601f810185136117bf57600080fd5b803567ffffffffffffffff8111156117d9576117d9611572565b6117ec601f8201601f1916602001611588565b81815286602083850101111561180157600080fd5b816020840160208301376000602083830101528093505050509250929050565b6000806040838503121561183457600080fd5b82359150611844602084016115b9565b90509250929050565b60005b83811015611868578181015183820152602001611850565b50506000910152565b602081526000825180602084015261189081604085016020870161184d565b601f01601f19169190910160400192915050565b600080604083850312156118b757600080fd5b6118c0836115b9565b9150611844602084016115b9565b6000806000606084860312156118e357600080fd5b6118ec846115b9565b92506118fa602085016115b9565b9150611908604085016115b9565b90509250925092565b60008060006060848603121561192657600080fd5b8335925060208401359150611908604085016115b9565b634e487b7160e01b600052603260045260246000fd5b60006020828403121561196557600080fd5b5051919050565b634e487b7160e01b600052601160045260246000fd5b81810381811115610fdb57610fdb61196c565b634e487b7160e01b600052603160045260246000fd5b6000600182016119bd576119bd61196c565b5060010190565b600082516119d681846020870161184d565b919091019291505056fef2c05596afc0fa7a667b407040331ebc39d72b2fe94f39b136657de5e1b94f03f2c05596afc0fa7a667b407040331ebc39d72b2fe94f39b136657de5e1b94f02f2c05596afc0fa7a667b407040331ebc39d72b2fe94f39b136657de5e1b94f009042a41a974b9fb065efd30b036d9f6283b7b2827a70d0d1b892f50c78b11e00360894a13ba1a3210667c828492db98dca3e2076cc3735a920a3ca505d382bbca2646970667358221220c82a8fac27d8f2df0135b181cdfd82e4814b4ad49a3d58c60ab850a30ae6624664736f6c634300081c0033",
  "linkReferences": {},
  "deployedLinkReferences": {}
}